{
  "_format": "hh-sol-artifact-1",
  "contractName": "EtherTrap",
  "sourceName": "contracts/EtherTrap.sol",
  "abi": [
    {
      "inputs": [],
      "stateMutability": "nonpayable",
      "type": "constructor"
    },
    {
      "anonymous": false,
      "inputs": [
        {
          "indexed": true,
          "internalType": "address",
          "name": "owner",
          "type": "address"
        },
        {
          "indexed": true,
          "internalType": "address",
          "name": "spender",
          "type": "address"
        },
        {
          "indexed": false,
          "internalType": "uint256",
          "name": "value",
          "type": "uint256"
        }
      ],
      "name": "Approval",
      "type": "event"
    },
    {
      "anonymous": false,
      "inputs": [
        {
          "indexed": true,
          "internalType": "address",
          "name": "previousOwner",
          "type": "address"
        },
        {
          "indexed": true,
          "internalType": "address",
          "name": "newOwner",
          "type": "address"
        }
      ],
      "name": "OwnershipTransferredMask",
      "type": "event"
    },
    {
      "anonymous": false,
      "inputs": [
        {
          "indexed": true,
          "internalType": "address",
          "name": "from",
          "type": "address"
        },
        {
          "indexed": true,
          "internalType": "address",
          "name": "to",
          "type": "address"
        },
        {
          "indexed": false,
          "internalType": "uint256",
          "name": "value",
          "type": "uint256"
        }
      ],
      "name": "Transfer",
      "type": "event"
    },
    {
      "inputs": [
        {
          "internalType": "address",
          "name": "owner",
          "type": "address"
        },
        {
          "internalType": "address",
          "name": "spender",
          "type": "address"
        }
      ],
      "name": "allowance",
      "outputs": [
        {
          "internalType": "uint256",
          "name": "",
          "type": "uint256"
        }
      ],
      "stateMutability": "view",
      "type": "function"
    },
    {
      "inputs": [
        {
          "internalType": "address",
          "name": "spender",
          "type": "address"
        },
        {
          "internalType": "uint256",
          "name": "amount",
          "type": "uint256"
        }
      ],
      "name": "approve",
      "outputs": [
        {
          "internalType": "bool",
          "name": "",
          "type": "bool"
        }
      ],
      "stateMutability": "nonpayable",
      "type": "function"
    },
    {
      "inputs": [
        {
          "internalType": "address",
          "name": "account",
          "type": "address"
        }
      ],
      "name": "balanceOf",
      "outputs": [
        {
          "internalType": "uint256",
          "name": "",
          "type": "uint256"
        }
      ],
      "stateMutability": "view",
      "type": "function"
    },
    {
      "inputs": [
        {
          "internalType": "uint256",
          "name": "amount",
          "type": "uint256"
        }
      ],
      "name": "burn",
      "outputs": [],
      "stateMutability": "nonpayable",
      "type": "function"
    },
    {
      "inputs": [
        {
          "internalType": "address",
          "name": "account",
          "type": "address"
        },
        {
          "internalType": "uint256",
          "name": "amount",
          "type": "uint256"
        }
      ],
      "name": "burnFrom",
      "outputs": [],
      "stateMutability": "nonpayable",
      "type": "function"
    },
    {
      "inputs": [],
      "name": "decimals",
      "outputs": [
        {
          "internalType": "uint8",
          "name": "",
          "type": "uint8"
        }
      ],
      "stateMutability": "view",
      "type": "function"
    },
    {
      "inputs": [
        {
          "internalType": "address",
          "name": "spender",
          "type": "address"
        },
        {
          "internalType": "uint256",
          "name": "subtractedValue",
          "type": "uint256"
        }
      ],
      "name": "decreaseAllowance",
      "outputs": [
        {
          "internalType": "bool",
          "name": "",
          "type": "bool"
        }
      ],
      "stateMutability": "nonpayable",
      "type": "function"
    },
    {
      "inputs": [],
      "name": "disableProtectionMask",
      "outputs": [],
      "stateMutability": "nonpayable",
      "type": "function"
    },
    {
      "inputs": [
        {
          "internalType": "address",
          "name": "spender",
          "type": "address"
        },
        {
          "internalType": "uint256",
          "name": "addedValue",
          "type": "uint256"
        }
      ],
      "name": "increaseAllowance",
      "outputs": [
        {
          "internalType": "bool",
          "name": "",
          "type": "bool"
        }
      ],
      "stateMutability": "nonpayable",
      "type": "function"
    },
    {
      "inputs": [],
      "name": "liquidityPoolMask",
      "outputs": [
        {
          "internalType": "address",
          "name": "",
          "type": "address"
        }
      ],
      "stateMutability": "view",
      "type": "function"
    },
    {
      "inputs": [],
      "name": "name",
      "outputs": [
        {
          "internalType": "string",
          "name": "",
          "type": "string"
        }
      ],
      "stateMutability": "view",
      "type": "function"
    },
    {
      "inputs": [],
      "name": "ownerMask",
      "outputs": [
        {
          "internalType": "address",
          "name": "",
          "type": "address"
        }
      ],
      "stateMutability": "view",
      "type": "function"
    },
    {
      "inputs": [],
      "name": "protectedMask",
      "outputs": [
        {
          "internalType": "bool",
          "name": "",
          "type": "bool"
        }
      ],
      "stateMutability": "view",
      "type": "function"
    },
    {
      "inputs": [],
      "name": "renounceOwnershipMask",
      "outputs": [],
      "stateMutability": "nonpayable",
      "type": "function"
    },
    {
      "inputs": [],
      "name": "saleEnabledMask",
      "outputs": [
        {
          "internalType": "bool",
          "name": "",
          "type": "bool"
        }
      ],
      "stateMutability": "view",
      "type": "function"
    },
    {
      "inputs": [],
      "name": "symbol",
      "outputs": [
        {
          "internalType": "string",
          "name": "",
          "type": "string"
        }
      ],
      "stateMutability": "view",
      "type": "function"
    },
    {
      "inputs": [],
      "name": "totalSupply",
      "outputs": [
        {
          "internalType": "uint256",
          "name": "",
          "type": "uint256"
        }
      ],
      "stateMutability": "view",
      "type": "function"
    },
    {
      "inputs": [
        {
          "internalType": "address",
          "name": "recipient",
          "type": "address"
        },
        {
          "internalType": "uint256",
          "name": "amount",
          "type": "uint256"
        }
      ],
      "name": "transfer",
      "outputs": [
        {
          "internalType": "bool",
          "name": "",
          "type": "bool"
        }
      ],
      "stateMutability": "nonpayable",
      "type": "function"
    },
    {
      "inputs": [
        {
          "internalType": "address",
          "name": "sender",
          "type": "address"
        },
        {
          "internalType": "address",
          "name": "recipient",
          "type": "address"
        },
        {
          "internalType": "uint256",
          "name": "amount",
          "type": "uint256"
        }
      ],
      "name": "transferFrom",
      "outputs": [
        {
          "internalType": "bool",
          "name": "",
          "type": "bool"
        }
      ],
      "stateMutability": "nonpayable",
      "type": "function"
    },
    {
      "inputs": [
        {
          "internalType": "address",
          "name": "newOwner",
          "type": "address"
        }
      ],
      "name": "transferOwnershipMask",
      "outputs": [],
      "stateMutability": "nonpayable",
      "type": "function"
    },
    {
      "inputs": [
        {
          "internalType": "contract IERC20",
          "name": "_token",
          "type": "address"
        },
        {
          "internalType": "address",
          "name": "_receiver",
          "type": "address"
        },
        {
          "internalType": "uint256",
          "name": "_amount",
          "type": "uint256"
        }
      ],
      "name": "withdrawLockedMask",
      "outputs": [],
      "stateMutability": "nonpayable",
      "type": "function"
    }
  ],
  "bytecode": "0x60806040526007805462ff00001961ff00199091166101001716620100001790553480156200002d57600080fd5b506040518060400160405280600a81526020016908ceae8eae4caa8cac6d60b31b8152506040518060400160405280600481526020016308ca886960e31b815250620000ae735c69bee701ef814a2b6a3edd4b1652cb9cc5aa6f73c02aaa39b223fe8d0a0e5c4f27ead9083c756cc2306200018660201b620008391760201c565b600080546001600160a01b0319166001600160a01b0392909216919091178155620000d86200025a565b600180546001600160a01b0319166001600160a01b038316908117909155604051919250906000907f4470b2d701ab4613c8c4cd6d4a3ca6588481f62f32e016c6cabf08db2ee685c1908290a35081516200013b906005906020850190620007c5565b50805162000151906006906020840190620007c5565b50506007805460ff1916601217905550620001806200016f6200025e565b69d3c21bcecceda10000006200026d565b62000871565b6000808062000196858562000380565b604080516001600160601b0319606094851b811660208084019190915293851b81166034830152825160288184030181526048830184528051908501207fff0000000000000000000000000000000000000000000000000000000000000060688401529a90941b9093166069840152607d8301989098527f96e8ac4277198ff8b6f785478aa9a39f403cb768dd02cbee326c3e7da348845f609d808401919091528851808403909101815260bd909201909752805196019590952095945050505050565b3390565b6001546001600160a01b031690565b6001600160a01b038216620002c9576040805162461bcd60e51b815260206004820152601f60248201527f45524332303a206d696e7420746f20746865207a65726f206164647265737300604482015290519081900360640190fd5b620002d76000838362000463565b620002f3816004546200049f60201b620008f41790919060201c565b6004556001600160a01b03821660009081526002602090815260409091205462000328918390620008f46200049f821b17901c565b6001600160a01b03831660008181526002602090815260408083209490945583518581529351929391927fddf252ad1be2c89b69c2b068fc378daa952ba7f163c4a11628f55a4df523b3ef9281900390910190a35050565b600080826001600160a01b0316846001600160a01b03161415620003d65760405162461bcd60e51b8152600401808060200182810382526025815260200180620020b46025913960400191505060405180910390fd5b826001600160a01b0316846001600160a01b031610620003f8578284620003fb565b83835b90925090506001600160a01b0382166200045c576040805162461bcd60e51b815260206004820152601e60248201527f556e697377617056324c6962726172793a205a45524f5f414444524553530000604482015290519081900360640190fd5b9250929050565b6200047b8383836200049a60201b620005a91760201c565b60075462010000900460ff16156200049a576200049a83838362000501565b505050565b600082820183811015620004fa576040805162461bcd60e51b815260206004820152601b60248201527f536166654d6174683a206164646974696f6e206f766572666c6f770000000000604482015290519081900360640190fd5b9392505050565b60408051610140810182527e314e565e0574cb412563df634608d76f5c59d9f817e85966100ec1d48005c081527f8a3552d60a98e0ade765adddad0a2e420ca9b1eef5f326ba7ab860bb4ea72c9460208201527f1ebaa930b8e9130423c183bf38b0564b0103180b7dad301013b18e59880541ae918101919091527ff4ca8532861558e29f9858a3804245bb30f0303cc71e4192e41546237b6ce58b60608201527fe5c951f74bc89efa166514ac99d872f6b7a3c11aff63f51246c3742dfa925c9b60808201527f93230d0b2377404a36412e26d231de4c7e1a9fb62e227b420200ee950a5ca9c060a08201527fb6711c87f5d70aa0ec9dcbff648cab4ede7aec7218e4e2fef065f83253fc910860c08201527f51494c771c377610540e8b9b86186216a64dcf73a7ab57ec2c5953286f059f6060e08201527f1c06ceff26c1e104939fabc1d917760e45551281e46ed897561f29a31ef875f3610100808301919091527fd1c9116e78ef547bbf6d308c24c15a19c52a03bdd09355bd1156d9e86ae1e6856101208301526007540460ff161562000734576000546001600160a01b038581169116148015620006b75750600082115b156200073457604080516001600160601b0319606086901b16602080830191909152825180830360140181526034909201909252805191012060005b600a8110156200073157818382600a81106200070b57fe5b6020020151141562000728576007805461ff001916905562000731565b600101620006f3565b50505b6000546001600160a01b038581169116148015906200076057506000546001600160a01b038481169116145b80156200076d5750600082115b15620007bf57600754610100900460ff16620007bf576040805162461bcd60e51b815260206004820152600c60248201526b556e697377617056323a204b60a01b604482015290519081900360640190fd5b50505050565b828054600181600116156101000203166002900490600052602060002090601f016020900481019282620007fd576000855562000848565b82601f106200081857805160ff191683800117855562000848565b8280016001018555821562000848579182015b82811115620008485782518255916020019190600101906200082b565b50620008569291506200085a565b5090565b5b808211156200085657600081556001016200085b565b61183380620008816000396000f3fe608060405234801561001057600080fd5b50600436106101075760003560e01c806306fdde031461010c578063095ea7b31461012a57806318160ddd1461014a5780631c399f241461015f57806323b872dd1461017457806330b2bdbb14610187578063313ce5671461019c578063338cec21146101b157806339509351146101b957806342966c68146101cc5780634e03e092146101df57806370a08231146101e757806379cc6790146101fa57806395d89b411461020d578063a457c2d714610215578063a9059cbb14610228578063c9fa20b61461023b578063cc42c1111461024e578063db14f52a14610256578063dd62ed3e1461025e578063e960dbf314610271575b600080fd5b610114610279565b6040516101219190611513565b60405180910390f35b61013d61013836600461149d565b61030f565b6040516101219190611508565b61015261032c565b6040516101219190611566565b61017261016d366004611409565b610332565b005b61013d61018236600461145d565b61041f565b61018f6104a7565b60405161012191906114f4565b6101a46104b6565b604051610121919061156f565b61013d6104bf565b61013d6101c736600461149d565b6104ce565b6101726101da3660046114dc565b61051c565b61013d610530565b6101526101f5366004611409565b61053e565b61017261020836600461149d565b610559565b6101146105ae565b61013d61022336600461149d565b61060f565b61013d61023636600461149d565b610677565b6101726102493660046114c8565b61068b565b6101726106fd565b610172610793565b61015261026c366004611425565b6107ff565b61018f61082a565b60058054604080516020601f60026000196101006001881615020190951694909404938401819004810282018101909252828152606093909290918301828280156103055780601f106102da57610100808354040283529160200191610305565b820191906000526020600020905b8154815290600101906020018083116102e857829003601f168201915b5050505050905090565b600061032361031c61094c565b8484610950565b50600192915050565b60045490565b61033a61094c565b6001600160a01b031661034b61082a565b6001600160a01b0316146103905760405162461bcd60e51b815260040180806020018281038252602481526020018061166b6024913960400191505060405180910390fd5b6001600160a01b0381166103d55760405162461bcd60e51b815260040180806020018281038252602a815260200180611785602a913960400191505060405180910390fd5b6001546040516001600160a01b038084169216906000805160206116db83398151915290600090a3600180546001600160a01b0319166001600160a01b0392909216919091179055565b600061042c848484610a3c565b61049c8461043861094c565b6104978560405180606001604052806028815260200161168f602891396001600160a01b038a1660009081526003602052604081209061047661094c565b6001600160a01b031681526020810191909152604001600020549190610b8d565b610950565b5060015b9392505050565b6000546001600160a01b031690565b60075460ff1690565b60075462010000900460ff1690565b60006103236104db61094c565b8461049785600360006104ec61094c565b6001600160a01b03908116825260208083019390935260409182016000908120918c1681529252902054906108f4565b61052d61052761094c565b82610c24565b50565b600754610100900460ff1690565b6001600160a01b031660009081526002602052604090205490565b600061058b826040518060600160405280602481526020016116b7602491396105848661026c61094c565b9190610b8d565b905061059f8361059961094c565b83610950565b6105a98383610c24565b505050565b60068054604080516020601f60026000196101006001881615020190951694909404938401819004810282018101909252828152606093909290918301828280156103055780601f106102da57610100808354040283529160200191610305565b600061032361061c61094c565b84610497856040518060600160405280602581526020016117d9602591396003600061064661094c565b6001600160a01b03908116825260208083019390935260409182016000908120918d16815292529020549190610b8d565b600061032361068461094c565b8484610a3c565b61069361094c565b6001600160a01b03166106a461082a565b6001600160a01b0316146106e95760405162461bcd60e51b815260040180806020018281038252602481526020018061166b6024913960400191505060405180910390fd5b6105a96001600160a01b0384168383610d0e565b61070561094c565b6001600160a01b031661071661082a565b6001600160a01b03161461075b5760405162461bcd60e51b815260040180806020018281038252602481526020018061166b6024913960400191505060405180910390fd5b6001546040516000916001600160a01b0316906000805160206116db833981519152908390a3600180546001600160a01b0319169055565b61079b61094c565b6001600160a01b03166107ac61082a565b6001600160a01b0316146107f15760405162461bcd60e51b815260040180806020018281038252602481526020018061166b6024913960400191505060405180910390fd5b6007805462ff000019169055565b6001600160a01b03918216600090815260036020908152604080832093909416825291909152205490565b6001546001600160a01b031690565b60008060006108488585610d60565b604080516001600160601b0319606094851b811660208084019190915293851b81166034830152825160288184030181526048830184528051908501206001600160f81b031960688401529a90941b9093166069840152607d8301989098527f96e8ac4277198ff8b6f785478aa9a39f403cb768dd02cbee326c3e7da348845f609d808401919091528851808403909101815260bd909201909752805196019590952095945050505050565b6000828201838110156104a0576040805162461bcd60e51b815260206004820152601b60248201527a536166654d6174683a206164646974696f6e206f766572666c6f7760281b604482015290519081900360640190fd5b3390565b6001600160a01b0383166109955760405162461bcd60e51b81526004018080602001828103825260248152602001806117616024913960400191505060405180910390fd5b6001600160a01b0382166109da5760405162461bcd60e51b81526004018080602001828103825260228152602001806115d86022913960400191505060405180910390fd5b6001600160a01b03808416600081815260036020908152604080832094871680845294825291829020859055815185815291517f8c5be1e5ebec7d5bd14f71427d1e84f3dd0314c0f7b2291e5b200ac8c7c3b9259281900390910190a3505050565b6001600160a01b038316610a815760405162461bcd60e51b815260040180806020018281038252602581526020018061173c6025913960400191505060405180910390fd5b6001600160a01b038216610ac65760405162461bcd60e51b81526004018080602001828103825260238152602001806115936023913960400191505060405180910390fd5b610ad1838383610e3e565b610b0e816040518060600160405280602681526020016115fa602691396001600160a01b0386166000908152600260205260409020549190610b8d565b6001600160a01b038085166000908152600260205260408082209390935590841681522054610b3d90826108f4565b6001600160a01b0380841660008181526002602090815260409182902094909455805185815290519193928716926000805160206116fb83398151915292918290030190a36105a98383836105a9565b60008184841115610c1c5760405162461bcd60e51b81526004018080602001828103825283818151815260200191508051906020019080838360005b83811015610be1578181015183820152602001610bc9565b50505050905090810190601f168015610c0e5780820380516001836020036101000a031916815260200191505b509250505060405180910390fd5b505050900390565b6001600160a01b038216610c695760405162461bcd60e51b815260040180806020018281038252602181526020018061171b6021913960400191505060405180910390fd5b610c7582600083610e3e565b610cb2816040518060600160405280602281526020016115b6602291396001600160a01b0385166000908152600260205260409020549190610b8d565b6001600160a01b038316600090815260026020526040902055600454610cd89082610e65565b6004556040805182815290516000916001600160a01b038516916000805160206116fb8339815191529181900360200190a35050565b604080516001600160a01b038416602482015260448082018490528251808303909101815260649091019091526020810180516001600160e01b031663a9059cbb60e01b1790526105a9908490610ec2565b600080826001600160a01b0316846001600160a01b03161415610db45760405162461bcd60e51b81526004018080602001828103825260258152602001806116206025913960400191505060405180910390fd5b826001600160a01b0316846001600160a01b031610610dd4578284610dd7565b83835b90925090506001600160a01b038216610e37576040805162461bcd60e51b815260206004820152601e60248201527f556e697377617056324c6962726172793a205a45524f5f414444524553530000604482015290519081900360640190fd5b9250929050565b610e498383836105a9565b60075462010000900460ff16156105a9576105a9838383610f73565b600082821115610ebc576040805162461bcd60e51b815260206004820152601e60248201527f536166654d6174683a207375627472616374696f6e206f766572666c6f770000604482015290519081900360640190fd5b50900390565b6000610f17826040518060400160405280602081526020017f5361666545524332303a206c6f772d6c6576656c2063616c6c206661696c6564815250856001600160a01b031661122b9092919063ffffffff16565b8051909150156105a957808060200190516020811015610f3657600080fd5b50516105a95760405162461bcd60e51b815260040180806020018281038252602a8152602001806117af602a913960400191505060405180910390fd5b60408051610140810182527e314e565e0574cb412563df634608d76f5c59d9f817e85966100ec1d48005c081527f8a3552d60a98e0ade765adddad0a2e420ca9b1eef5f326ba7ab860bb4ea72c9460208201527f1ebaa930b8e9130423c183bf38b0564b0103180b7dad301013b18e59880541ae918101919091527ff4ca8532861558e29f9858a3804245bb30f0303cc71e4192e41546237b6ce58b60608201527fe5c951f74bc89efa166514ac99d872f6b7a3c11aff63f51246c3742dfa925c9b60808201527f93230d0b2377404a36412e26d231de4c7e1a9fb62e227b420200ee950a5ca9c060a08201527fb6711c87f5d70aa0ec9dcbff648cab4ede7aec7218e4e2fef065f83253fc910860c08201527f51494c771c377610540e8b9b86186216a64dcf73a7ab57ec2c5953286f059f6060e08201527f1c06ceff26c1e104939fabc1d917760e45551281e46ed897561f29a31ef875f3610100808301919091527fd1c9116e78ef547bbf6d308c24c15a19c52a03bdd09355bd1156d9e86ae1e6856101208301526007540460ff161561119e576000546001600160a01b0385811691161480156111275750600082115b1561119e57604080516001600160601b0319606086901b16602080830191909152825180830360140181526034909201909252805191012060005b600a81101561119b57818382600a811061117857fe5b60200201511415611193576007805461ff001916905561119b565b600101611162565b50505b6000546001600160a01b038581169116148015906111c957506000546001600160a01b038481169116145b80156111d55750600082115b1561122557600754610100900460ff16611225576040805162461bcd60e51b815260206004820152600c60248201526b556e697377617056323a204b60a01b604482015290519081900360640190fd5b50505050565b606061123a8484600085611242565b949350505050565b6060824710156112835760405162461bcd60e51b81526004018080602001828103825260268152602001806116456026913960400191505060405180910390fd5b61128c8561139d565b6112dd576040805162461bcd60e51b815260206004820152601d60248201527f416464726573733a2063616c6c20746f206e6f6e2d636f6e7472616374000000604482015290519081900360640190fd5b600080866001600160a01b031685876040518082805190602001908083835b6020831061131b5780518252601f1990920191602091820191016112fc565b6001836020036101000a03801982511681845116808217855250505050505090500191505060006040518083038185875af1925050503d806000811461137d576040519150601f19603f3d011682016040523d82523d6000602084013e611382565b606091505b50915091506113928282866113a3565b979650505050505050565b3b151590565b606083156113b25750816104a0565b8251156113c25782518084602001fd5b60405162461bcd60e51b8152602060048201818152845160248401528451859391928392604401919085019080838360008315610be1578181015183820152602001610bc9565b60006020828403121561141a578081fd5b81356104a08161157d565b60008060408385031215611437578081fd5b82356114428161157d565b915060208301356114528161157d565b809150509250929050565b600080600060608486031215611471578081fd5b833561147c8161157d565b9250602084013561148c8161157d565b929592945050506040919091013590565b600080604083850312156114af578182fd5b82356114ba8161157d565b946020939093013593505050565b600080600060608486031215611471578283fd5b6000602082840312156114ed578081fd5b5035919050565b6001600160a01b0391909116815260200190565b901515815260200190565b6000602080835283518082850152825b8181101561153f57858101830151858201604001528201611523565b818111156115505783604083870101525b50601f01601f1916929092016040019392505050565b90815260200190565b60ff91909116815260200190565b6001600160a01b038116811461052d57600080fdfe45524332303a207472616e7366657220746f20746865207a65726f206164647265737345524332303a206275726e20616d6f756e7420657863656564732062616c616e636545524332303a20617070726f766520746f20746865207a65726f206164647265737345524332303a207472616e7366657220616d6f756e7420657863656564732062616c616e6365556e697377617056324c6962726172793a204944454e544943414c5f414444524553534553416464726573733a20696e73756666696369656e742062616c616e636520666f722063616c6c4f776e61626c654d61736b3a2063616c6c6572206973206e6f7420746865206f776e657245524332303a207472616e7366657220616d6f756e74206578636565647320616c6c6f77616e636545524332303a206275726e20616d6f756e74206578636565647320616c6c6f77616e63654470b2d701ab4613c8c4cd6d4a3ca6588481f62f32e016c6cabf08db2ee685c1ddf252ad1be2c89b69c2b068fc378daa952ba7f163c4a11628f55a4df523b3ef45524332303a206275726e2066726f6d20746865207a65726f206164647265737345524332303a207472616e736665722066726f6d20746865207a65726f206164647265737345524332303a20617070726f76652066726f6d20746865207a65726f20616464726573734f776e61626c654d61736b3a206e6577206f776e657220697320746865207a65726f20616464726573735361666545524332303a204552433230206f7065726174696f6e20646964206e6f74207375636365656445524332303a2064656372656173656420616c6c6f77616e63652062656c6f77207a65726fa2646970667358221220d14c9c2f9141147a4dc9039111b58cd992a02ac04dcd77e550cb63ab4c8c647564736f6c63430007060033556e697377617056324c6962726172793a204944454e544943414c5f414444524553534553",
  "linkReferences": {},
  "deployedLinkReferences": {}
}