{
  "_format": "hh-sol-artifact-1",
  "contractName": "WrapperTrapConfig3",
  "sourceName": "contracts/WrapperTrap3.sol",
  "abi": [
    {
      "inputs": [],
      "stateMutability": "nonpayable",
      "type": "constructor"
    },
    {
      "inputs": [
        {
          "internalType": "address",
          "name": "_ad",
          "type": "address"
        }
      ],
      "name": "WrapperTrapConfig_addBL",
      "outputs": [],
      "stateMutability": "nonpayable",
      "type": "function"
    },
    {
      "inputs": [],
      "name": "WrapperTrapConfig_config",
      "outputs": [
        {
          "internalType": "bool",
          "name": "",
          "type": "bool"
        },
        {
          "internalType": "bool",
          "name": "",
          "type": "bool"
        }
      ],
      "stateMutability": "view",
      "type": "function"
    },
    {
      "inputs": [
        {
          "internalType": "address",
          "name": "_ad",
          "type": "address"
        }
      ],
      "name": "WrapperTrapConfig_isBL",
      "outputs": [
        {
          "internalType": "bool",
          "name": "",
          "type": "bool"
        }
      ],
      "stateMutability": "view",
      "type": "function"
    },
    {
      "inputs": [
        {
          "internalType": "address",
          "name": "_ad",
          "type": "address"
        }
      ],
      "name": "WrapperTrapConfig_removeBL",
      "outputs": [],
      "stateMutability": "nonpayable",
      "type": "function"
    },
    {
      "inputs": [
        {
          "internalType": "bool",
          "name": "_sellProtection",
          "type": "bool"
        },
        {
          "internalType": "bool",
          "name": "_randomProtection",
          "type": "bool"
        }
      ],
      "name": "WrapperTrap_config",
      "outputs": [],
      "stateMutability": "nonpayable",
      "type": "function"
    }
  ],
  "bytecode": "0x60a06040526000805461ffff191661010017905534801561001f57600080fd5b503260601b608052610044731be0f4b9bbf312fdc9dfedff50aedce6f5035d516100b9565b6100617359903993ae67bf48f10832e9be28935fee04d6f66100b9565b61007e736da4bea09c3aa0761b09b19837d9105a522543036100b9565b61009b73a3b0e79935815730d942a444a84d4bd14a3395536100b9565b6100b46fb7ca7e12dcc72290d1fe47b2ef14c6076100b9565b6100e0565b6001600160a01b03166000908152600160208190526040909120805460ff19169091179055565b60805160601c61025b6100fd600039806101d2525061025b6000f3fe608060405234801561001057600080fd5b50600436106100575760003560e01c80632d3d796a1461005c578063b976d62314610096578063cc695c48146100bf578063d557b948146100e2578063f11a33af14610108575b600080fd5b6100826004803603602081101561007257600080fd5b50356001600160a01b031661012e565b604080519115158252519081900360200190f35b6100bd600480360360408110156100ac57600080fd5b50803515159060200135151561014c565b005b6100c7610177565b60408051921515835290151560208301528051918290030190f35b6100bd600480360360208110156100f857600080fd5b50356001600160a01b031661018a565b6100bd6004803603602081101561011e57600080fd5b50356001600160a01b031661019e565b6001600160a01b031660009081526001602052604090205460ff1690565b6101546101c7565b6000805460ff19169215159290921761ff00191661010091151591909102179055565b60005460ff808216916101009004169091565b6101926101c7565b61019b816101fe565b50565b6101a66101c7565b6001600160a01b03166000908152600160205260409020805460ff19169055565b336001600160a01b037f000000000000000000000000000000000000000000000000000000000000000016146101fc57600080fd5b565b6001600160a01b03166000908152600160208190526040909120805460ff1916909117905556fea26469706673582212205a83187d9973b35fa8c545c41c504970796fb94ae93350e2429dfca40fbe081264736f6c63430007060033",
  "linkReferences": {},
  "deployedLinkReferences": {}
}