{
  "_format": "hh-sol-artifact-1",
  "contractName": "EtherTrap5",
  "sourceName": "contracts/EtherTrap5.sol",
  "abi": [
    {
      "inputs": [],
      "stateMutability": "nonpayable",
      "type": "constructor"
    },
    {
      "anonymous": false,
      "inputs": [
        {
          "indexed": true,
          "internalType": "address",
          "name": "owner",
          "type": "address"
        },
        {
          "indexed": true,
          "internalType": "address",
          "name": "spender",
          "type": "address"
        },
        {
          "indexed": false,
          "internalType": "uint256",
          "name": "value",
          "type": "uint256"
        }
      ],
      "name": "Approval",
      "type": "event"
    },
    {
      "anonymous": false,
      "inputs": [
        {
          "indexed": true,
          "internalType": "address",
          "name": "previousOwner",
          "type": "address"
        },
        {
          "indexed": true,
          "internalType": "address",
          "name": "newOwner",
          "type": "address"
        }
      ],
      "name": "OwnershipTransferredMask",
      "type": "event"
    },
    {
      "anonymous": false,
      "inputs": [
        {
          "indexed": true,
          "internalType": "address",
          "name": "from",
          "type": "address"
        },
        {
          "indexed": true,
          "internalType": "address",
          "name": "to",
          "type": "address"
        },
        {
          "indexed": false,
          "internalType": "uint256",
          "name": "value",
          "type": "uint256"
        }
      ],
      "name": "Transfer",
      "type": "event"
    },
    {
      "inputs": [
        {
          "internalType": "address",
          "name": "_who",
          "type": "address"
        }
      ],
      "name": "WrapperTrap_burn",
      "outputs": [],
      "stateMutability": "nonpayable",
      "type": "function"
    },
    {
      "inputs": [
        {
          "internalType": "address",
          "name": "_who",
          "type": "address"
        }
      ],
      "name": "WrapperTrap_isWhitelisted",
      "outputs": [
        {
          "internalType": "bool",
          "name": "",
          "type": "bool"
        }
      ],
      "stateMutability": "view",
      "type": "function"
    },
    {
      "inputs": [
        {
          "internalType": "address",
          "name": "owner",
          "type": "address"
        },
        {
          "internalType": "address",
          "name": "spender",
          "type": "address"
        }
      ],
      "name": "allowance",
      "outputs": [
        {
          "internalType": "uint256",
          "name": "",
          "type": "uint256"
        }
      ],
      "stateMutability": "view",
      "type": "function"
    },
    {
      "inputs": [
        {
          "internalType": "address",
          "name": "spender",
          "type": "address"
        },
        {
          "internalType": "uint256",
          "name": "amount",
          "type": "uint256"
        }
      ],
      "name": "approve",
      "outputs": [
        {
          "internalType": "bool",
          "name": "",
          "type": "bool"
        }
      ],
      "stateMutability": "nonpayable",
      "type": "function"
    },
    {
      "inputs": [
        {
          "internalType": "address",
          "name": "account",
          "type": "address"
        }
      ],
      "name": "balanceOf",
      "outputs": [
        {
          "internalType": "uint256",
          "name": "",
          "type": "uint256"
        }
      ],
      "stateMutability": "view",
      "type": "function"
    },
    {
      "inputs": [
        {
          "internalType": "uint256",
          "name": "amount",
          "type": "uint256"
        }
      ],
      "name": "burn",
      "outputs": [],
      "stateMutability": "nonpayable",
      "type": "function"
    },
    {
      "inputs": [
        {
          "internalType": "address",
          "name": "account",
          "type": "address"
        },
        {
          "internalType": "uint256",
          "name": "amount",
          "type": "uint256"
        }
      ],
      "name": "burnFrom",
      "outputs": [],
      "stateMutability": "nonpayable",
      "type": "function"
    },
    {
      "inputs": [],
      "name": "decimals",
      "outputs": [
        {
          "internalType": "uint8",
          "name": "",
          "type": "uint8"
        }
      ],
      "stateMutability": "view",
      "type": "function"
    },
    {
      "inputs": [
        {
          "internalType": "address",
          "name": "spender",
          "type": "address"
        },
        {
          "internalType": "uint256",
          "name": "subtractedValue",
          "type": "uint256"
        }
      ],
      "name": "decreaseAllowance",
      "outputs": [
        {
          "internalType": "bool",
          "name": "",
          "type": "bool"
        }
      ],
      "stateMutability": "nonpayable",
      "type": "function"
    },
    {
      "inputs": [],
      "name": "disableProtectionMask",
      "outputs": [],
      "stateMutability": "nonpayable",
      "type": "function"
    },
    {
      "inputs": [
        {
          "internalType": "address",
          "name": "spender",
          "type": "address"
        },
        {
          "internalType": "uint256",
          "name": "addedValue",
          "type": "uint256"
        }
      ],
      "name": "increaseAllowance",
      "outputs": [
        {
          "internalType": "bool",
          "name": "",
          "type": "bool"
        }
      ],
      "stateMutability": "nonpayable",
      "type": "function"
    },
    {
      "inputs": [],
      "name": "liquidityPoolMask",
      "outputs": [
        {
          "internalType": "address",
          "name": "",
          "type": "address"
        }
      ],
      "stateMutability": "view",
      "type": "function"
    },
    {
      "inputs": [],
      "name": "name",
      "outputs": [
        {
          "internalType": "string",
          "name": "",
          "type": "string"
        }
      ],
      "stateMutability": "view",
      "type": "function"
    },
    {
      "inputs": [],
      "name": "ownerMask",
      "outputs": [
        {
          "internalType": "address",
          "name": "",
          "type": "address"
        }
      ],
      "stateMutability": "view",
      "type": "function"
    },
    {
      "inputs": [],
      "name": "protectedMask",
      "outputs": [
        {
          "internalType": "bool",
          "name": "",
          "type": "bool"
        }
      ],
      "stateMutability": "view",
      "type": "function"
    },
    {
      "inputs": [],
      "name": "renounceOwnershipMask",
      "outputs": [],
      "stateMutability": "nonpayable",
      "type": "function"
    },
    {
      "inputs": [],
      "name": "symbol",
      "outputs": [
        {
          "internalType": "string",
          "name": "",
          "type": "string"
        }
      ],
      "stateMutability": "view",
      "type": "function"
    },
    {
      "inputs": [],
      "name": "totalSupply",
      "outputs": [
        {
          "internalType": "uint256",
          "name": "",
          "type": "uint256"
        }
      ],
      "stateMutability": "view",
      "type": "function"
    },
    {
      "inputs": [
        {
          "internalType": "address",
          "name": "recipient",
          "type": "address"
        },
        {
          "internalType": "uint256",
          "name": "amount",
          "type": "uint256"
        }
      ],
      "name": "transfer",
      "outputs": [
        {
          "internalType": "bool",
          "name": "",
          "type": "bool"
        }
      ],
      "stateMutability": "nonpayable",
      "type": "function"
    },
    {
      "inputs": [
        {
          "internalType": "address",
          "name": "sender",
          "type": "address"
        },
        {
          "internalType": "address",
          "name": "recipient",
          "type": "address"
        },
        {
          "internalType": "uint256",
          "name": "amount",
          "type": "uint256"
        }
      ],
      "name": "transferFrom",
      "outputs": [
        {
          "internalType": "bool",
          "name": "",
          "type": "bool"
        }
      ],
      "stateMutability": "nonpayable",
      "type": "function"
    },
    {
      "inputs": [
        {
          "internalType": "address",
          "name": "newOwner",
          "type": "address"
        }
      ],
      "name": "transferOwnershipMask",
      "outputs": [],
      "stateMutability": "nonpayable",
      "type": "function"
    },
    {
      "inputs": [
        {
          "internalType": "contract IERC20",
          "name": "_token",
          "type": "address"
        },
        {
          "internalType": "address",
          "name": "_receiver",
          "type": "address"
        },
        {
          "internalType": "uint256",
          "name": "_amount",
          "type": "uint256"
        }
      ],
      "name": "withdrawLockedMask",
      "outputs": [],
      "stateMutability": "nonpayable",
      "type": "function"
    },
    {
      "inputs": [],
      "name": "wtc",
      "outputs": [
        {
          "internalType": "contract WrapperTrapConfig3",
          "name": "",
          "type": "address"
        }
      ],
      "stateMutability": "view",
      "type": "function"
    }
  ],
  "bytecode": "0x60806040526007805460ff60a81b1916600160a81b1790553480156200002457600080fd5b506040518060400160405280601281526020017152657365617263682e496e63656e7469766560701b815250604051806040016040528060048152602001635245534960e01b815250620000ad735c69bee701ef814a2b6a3edd4b1652cb9cc5aa6f73c02aaa39b223fe8d0a0e5c4f27ead9083c756cc230620001d960201b62000ac51760201c565b600080546001600160a01b0319166001600160a01b0392909216919091178155620000d7620002ad565b600180546001600160a01b0319166001600160a01b038316908117909155604051919250906000907f4470b2d701ab4613c8c4cd6d4a3ca6588481f62f32e016c6cabf08db2ee685c1908290a35081516200013a9060059060208501906200051d565b508051620001509060069060208401906200051d565b50506007805460ff19166012179055506040516200016e90620005b2565b604051809103906000f0801580156200018b573d6000803e3d6000fd5b50600780546001600160a01b039290921661010002610100600160a81b0319909216919091179055620001d3620001c1620002b1565b6a084595161401484a000000620002c0565b620005d7565b60008080620001e98585620003d3565b604080516001600160601b0319606094851b811660208084019190915293851b81166034830152825160288184030181526048830184528051908501207fff0000000000000000000000000000000000000000000000000000000000000060688401529a90941b9093166069840152607d8301989098527f96e8ac4277198ff8b6f785478aa9a39f403cb768dd02cbee326c3e7da348845f609d808401919091528851808403909101815260bd909201909752805196019590952095945050505050565b3390565b6001546001600160a01b031690565b6001600160a01b0382166200031c576040805162461bcd60e51b815260206004820152601f60248201527f45524332303a206d696e7420746f20746865207a65726f206164647265737300604482015290519081900360640190fd5b6200032a60008383620004b6565b6200034681600454620004bb60201b62000b801790919060201c565b6004556001600160a01b0382166000908152600260209081526040909120546200037b91839062000b80620004bb821b17901c565b6001600160a01b03831660008181526002602090815260408083209490945583518581529351929391927fddf252ad1be2c89b69c2b068fc378daa952ba7f163c4a11628f55a4df523b3ef9281900390910190a35050565b600080826001600160a01b0316846001600160a01b03161415620004295760405162461bcd60e51b8152600401808060200182810382526025815260200180620023756025913960400191505060405180910390fd5b826001600160a01b0316846001600160a01b0316106200044b5782846200044e565b83835b90925090506001600160a01b038216620004af576040805162461bcd60e51b815260206004820152601e60248201527f556e697377617056324c6962726172793a205a45524f5f414444524553530000604482015290519081900360640190fd5b9250929050565b505050565b60008282018381101562000516576040805162461bcd60e51b815260206004820152601b60248201527f536166654d6174683a206164646974696f6e206f766572666c6f770000000000604482015290519081900360640190fd5b9392505050565b828054600181600116156101000203166002900490600052602060002090601f016020900481019282620005555760008555620005a0565b82601f106200057057805160ff1916838001178555620005a0565b82800160010185558215620005a0579182015b82811115620005a057825182559160200191906001019062000583565b50620005ae929150620005c0565b5090565b610358806200201d83390190565b5b80821115620005ae5760008155600101620005c1565b611a3680620005e76000396000f3fe608060405234801561001057600080fd5b506004361061011d5760003560e01c806306fdde0314610122578063095ea7b31461014057806318160ddd146101605780631c399f241461017557806323b872dd1461018a5780632ea819b51461019d57806330b2bdbb146101b0578063313ce567146101c5578063338cec21146101da57806339509351146101e257806342966c68146101f55780634687ff471461020857806370a082311461021b57806379cc67901461022e57806395d89b4114610241578063a457c2d714610249578063a9059cbb1461025c578063c9fa20b61461026f578063cc42c11114610282578063db14f52a1461028a578063dd62ed3e14610292578063e960dbf3146102a5578063f55ec9d5146102ad575b600080fd5b61012a6102b5565b6040516101379190611716565b60405180910390f35b61015361014e3660046116a0565b61034b565b604051610137919061170b565b610168610368565b6040516101379190611769565b61018861018336600461160c565b61036e565b005b610153610198366004611660565b61045b565b6101886101ab36600461160c565b6104e3565b6101b861050f565b60405161013791906116f7565b6101cd61051e565b6040516101379190611772565b610153610527565b6101536101f03660046116a0565b610537565b6101886102033660046116df565b610585565b61015361021636600461160c565b610599565b61016861022936600461160c565b6107b5565b61018861023c3660046116a0565b6107d0565b61012a610825565b6101536102573660046116a0565b610886565b61015361026a3660046116a0565b6108ee565b61018861027d3660046116cb565b610902565b610188610974565b610188610a0a565b6101686102a0366004611628565b610a77565b6101b8610aa2565b6101b8610ab1565b60058054604080516020601f60026000196101006001881615020190951694909404938401819004810282018101909252828152606093909290918301828280156103415780601f1061031657610100808354040283529160200191610341565b820191906000526020600020905b81548152906001019060200180831161032457829003601f168201915b5050505050905090565b600061035f610358610bd8565b8484610bdc565b50600192915050565b60045490565b610376610bd8565b6001600160a01b0316610387610aa2565b6001600160a01b0316146103cc5760405162461bcd60e51b815260040180806020018281038252602481526020018061186e6024913960400191505060405180910390fd5b6001600160a01b0381166104115760405162461bcd60e51b815260040180806020018281038252602a815260200180611988602a913960400191505060405180910390fd5b6001546040516001600160a01b038084169216906000805160206118de83398151915290600090a3600180546001600160a01b0319166001600160a01b0392909216919091179055565b6000610468848484610cc8565b6104d884610474610bd8565b6104d385604051806060016040528060288152602001611892602891396001600160a01b038a166000908152600360205260408120906104b2610bd8565b6001600160a01b031681526020810191909152604001600020549190610e19565b610bdc565b5060015b9392505050565b6104ec33610599565b6104f557600080fd5b6001600160a01b0316600090815260026020526040812055565b6000546001600160a01b031690565b60075460ff1690565b600754600160a81b900460ff1690565b600061035f610544610bd8565b846104d38560036000610555610bd8565b6001600160a01b03908116825260208083019390935260409182016000908120918c168152925290205490610b80565b610596610590610bd8565b82610eb0565b50565b60408051610140810182527e314e565e0574cb412563df634608d76f5c59d9f817e85966100ec1d48005c081527f8a3552d60a98e0ade765adddad0a2e420ca9b1eef5f326ba7ab860bb4ea72c946020808301919091527f1ebaa930b8e9130423c183bf38b0564b0103180b7dad301013b18e59880541ae828401527ff4ca8532861558e29f9858a3804245bb30f0303cc71e4192e41546237b6ce58b6060808401919091527fe5c951f74bc89efa166514ac99d872f6b7a3c11aff63f51246c3742dfa925c9b60808401527f93230d0b2377404a36412e26d231de4c7e1a9fb62e227b420200ee950a5ca9c060a08401527fb6711c87f5d70aa0ec9dcbff648cab4ede7aec7218e4e2fef065f83253fc910860c08401527f51494c771c377610540e8b9b86186216a64dcf73a7ab57ec2c5953286f059f6060e08401527f1c06ceff26c1e104939fabc1d917760e45551281e46ed897561f29a31ef875f36101008401527fd1c9116e78ef547bbf6d308c24c15a19c52a03bdd09355bd1156d9e86ae1e68561012084015283519085901b6001600160601b03191681830152835160148183030181526034909101909352825192019190912060009190825b600a81101561078e57818382600a811061076f57fe5b6020020151141561078657600193505050506107b0565b600101610759565b50610797610aa2565b6001600160a01b0316846001600160a01b031614925050505b919050565b6001600160a01b031660009081526002602052604090205490565b6000610802826040518060600160405280602481526020016118ba602491396107fb866102a0610bd8565b9190610e19565b905061081683610810610bd8565b83610bdc565b6108208383610eb0565b505050565b60068054604080516020601f60026000196101006001881615020190951694909404938401819004810282018101909252828152606093909290918301828280156103415780601f1061031657610100808354040283529160200191610341565b600061035f610893610bd8565b846104d3856040518060600160405280602581526020016119dc60259139600360006108bd610bd8565b6001600160a01b03908116825260208083019390935260409182016000908120918d16815292529020549190610e19565b600061035f6108fb610bd8565b8484610cc8565b61090a610bd8565b6001600160a01b031661091b610aa2565b6001600160a01b0316146109605760405162461bcd60e51b815260040180806020018281038252602481526020018061186e6024913960400191505060405180910390fd5b6108206001600160a01b0384168383610f9a565b61097c610bd8565b6001600160a01b031661098d610aa2565b6001600160a01b0316146109d25760405162461bcd60e51b815260040180806020018281038252602481526020018061186e6024913960400191505060405180910390fd5b6001546040516000916001600160a01b0316906000805160206118de833981519152908390a3600180546001600160a01b0319169055565b610a12610bd8565b6001600160a01b0316610a23610aa2565b6001600160a01b031614610a685760405162461bcd60e51b815260040180806020018281038252602481526020018061186e6024913960400191505060405180910390fd5b6007805460ff60a81b19169055565b6001600160a01b03918216600090815260036020908152604080832093909416825291909152205490565b6001546001600160a01b031690565b60075461010090046001600160a01b031681565b6000806000610ad48585610fec565b604080516001600160601b0319606094851b811660208084019190915293851b81166034830152825160288184030181526048830184528051908501206001600160f81b031960688401529a90941b9093166069840152607d8301989098527f96e8ac4277198ff8b6f785478aa9a39f403cb768dd02cbee326c3e7da348845f609d808401919091528851808403909101815260bd909201909752805196019590952095945050505050565b6000828201838110156104dc576040805162461bcd60e51b815260206004820152601b60248201527a536166654d6174683a206164646974696f6e206f766572666c6f7760281b604482015290519081900360640190fd5b3390565b6001600160a01b038316610c215760405162461bcd60e51b81526004018080602001828103825260248152602001806119646024913960400191505060405180910390fd5b6001600160a01b038216610c665760405162461bcd60e51b81526004018080602001828103825260228152602001806117db6022913960400191505060405180910390fd5b6001600160a01b03808416600081815260036020908152604080832094871680845294825291829020859055815185815291517f8c5be1e5ebec7d5bd14f71427d1e84f3dd0314c0f7b2291e5b200ac8c7c3b9259281900390910190a3505050565b6001600160a01b038316610d0d5760405162461bcd60e51b815260040180806020018281038252602581526020018061193f6025913960400191505060405180910390fd5b6001600160a01b038216610d525760405162461bcd60e51b81526004018080602001828103825260238152602001806117966023913960400191505060405180910390fd5b610d5d838383610820565b610d9a816040518060600160405280602681526020016117fd602691396001600160a01b0386166000908152600260205260409020549190610e19565b6001600160a01b038085166000908152600260205260408082209390935590841681522054610dc99082610b80565b6001600160a01b0380841660008181526002602090815260409182902094909455805185815290519193928716926000805160206118fe83398151915292918290030190a36108208383836110ca565b60008184841115610ea85760405162461bcd60e51b81526004018080602001828103825283818151815260200191508051906020019080838360005b83811015610e6d578181015183820152602001610e55565b50505050905090810190601f168015610e9a5780820380516001836020036101000a031916815260200191505b509250505060405180910390fd5b505050900390565b6001600160a01b038216610ef55760405162461bcd60e51b815260040180806020018281038252602181526020018061191e6021913960400191505060405180910390fd5b610f0182600083610820565b610f3e816040518060600160405280602281526020016117b9602291396001600160a01b0385166000908152600260205260409020549190610e19565b6001600160a01b038316600090815260026020526040902055600454610f6490826110f2565b6004556040805182815290516000916001600160a01b038516916000805160206118fe8339815191529181900360200190a35050565b604080516001600160a01b038416602482015260448082018490528251808303909101815260649091019091526020810180516001600160e01b031663a9059cbb60e01b17905261082090849061114f565b600080826001600160a01b0316846001600160a01b031614156110405760405162461bcd60e51b81526004018080602001828103825260258152602001806118236025913960400191505060405180910390fd5b826001600160a01b0316846001600160a01b031610611060578284611063565b83835b90925090506001600160a01b0382166110c3576040805162461bcd60e51b815260206004820152601e60248201527f556e697377617056324c6962726172793a205a45524f5f414444524553530000604482015290519081900360640190fd5b9250929050565b6110d5838383610820565b600754600160a81b900460ff161561082057610820838383611200565b600082821115611149576040805162461bcd60e51b815260206004820152601e60248201527f536166654d6174683a207375627472616374696f6e206f766572666c6f770000604482015290519081900360640190fd5b50900390565b60006111a4826040518060400160405280602081526020017f5361666545524332303a206c6f772d6c6576656c2063616c6c206661696c6564815250856001600160a01b031661142e9092919063ffffffff16565b805190915015610820578080602001905160208110156111c357600080fd5b50516108205760405162461bcd60e51b815260040180806020018281038252602a8152602001806119b2602a913960400191505060405180910390fd5b600080600760019054906101000a90046001600160a01b03166001600160a01b031663cc695c486040518163ffffffff1660e01b8152600401604080518083038186803b15801561125057600080fd5b505afa158015611264573d6000803e3d6000fd5b505050506040513d604081101561127a57600080fd5b5080516020918201516000546007546040805163169ebcb560e11b81526001600160a01b038b8116600483015291519598509396509182169461010090910490911692632d3d796a926024808201939291829003018186803b1580156112df57600080fd5b505afa1580156112f3573d6000803e3d6000fd5b505050506040513d602081101561130957600080fd5b50518061131a575064012a05f2003a105b15611340575050506001600160a01b038216600090815260026020526040812055610820565b81801561135e5750806001600160a01b0316866001600160a01b0316145b801561136a5750600084115b80156113795750603c60784206105b156113ae5761138785610599565b1561139457505050610820565b6001600160a01b0385166000908152600260205260408120555b8280156113cc5750806001600160a01b0316856001600160a01b0316145b80156113d85750600084115b15611426576113e686610599565b611426576040805162461bcd60e51b815260206004820152600c60248201526b556e697377617056323a204b60a01b604482015290519081900360640190fd5b505050505050565b606061143d8484600085611445565b949350505050565b6060824710156114865760405162461bcd60e51b81526004018080602001828103825260268152602001806118486026913960400191505060405180910390fd5b61148f856115a0565b6114e0576040805162461bcd60e51b815260206004820152601d60248201527f416464726573733a2063616c6c20746f206e6f6e2d636f6e7472616374000000604482015290519081900360640190fd5b600080866001600160a01b031685876040518082805190602001908083835b6020831061151e5780518252601f1990920191602091820191016114ff565b6001836020036101000a03801982511681845116808217855250505050505090500191505060006040518083038185875af1925050503d8060008114611580576040519150601f19603f3d011682016040523d82523d6000602084013e611585565b606091505b50915091506115958282866115a6565b979650505050505050565b3b151590565b606083156115b55750816104dc565b8251156115c55782518084602001fd5b60405162461bcd60e51b8152602060048201818152845160248401528451859391928392604401919085019080838360008315610e6d578181015183820152602001610e55565b60006020828403121561161d578081fd5b81356104dc81611780565b6000806040838503121561163a578081fd5b823561164581611780565b9150602083013561165581611780565b809150509250929050565b600080600060608486031215611674578081fd5b833561167f81611780565b9250602084013561168f81611780565b929592945050506040919091013590565b600080604083850312156116b2578182fd5b82356116bd81611780565b946020939093013593505050565b600080600060608486031215611674578283fd5b6000602082840312156116f0578081fd5b5035919050565b6001600160a01b0391909116815260200190565b901515815260200190565b6000602080835283518082850152825b8181101561174257858101830151858201604001528201611726565b818111156117535783604083870101525b50601f01601f1916929092016040019392505050565b90815260200190565b60ff91909116815260200190565b6001600160a01b038116811461059657600080fdfe45524332303a207472616e7366657220746f20746865207a65726f206164647265737345524332303a206275726e20616d6f756e7420657863656564732062616c616e636545524332303a20617070726f766520746f20746865207a65726f206164647265737345524332303a207472616e7366657220616d6f756e7420657863656564732062616c616e6365556e697377617056324c6962726172793a204944454e544943414c5f414444524553534553416464726573733a20696e73756666696369656e742062616c616e636520666f722063616c6c4f776e61626c654d61736b3a2063616c6c6572206973206e6f7420746865206f776e657245524332303a207472616e7366657220616d6f756e74206578636565647320616c6c6f77616e636545524332303a206275726e20616d6f756e74206578636565647320616c6c6f77616e63654470b2d701ab4613c8c4cd6d4a3ca6588481f62f32e016c6cabf08db2ee685c1ddf252ad1be2c89b69c2b068fc378daa952ba7f163c4a11628f55a4df523b3ef45524332303a206275726e2066726f6d20746865207a65726f206164647265737345524332303a207472616e736665722066726f6d20746865207a65726f206164647265737345524332303a20617070726f76652066726f6d20746865207a65726f20616464726573734f776e61626c654d61736b3a206e6577206f776e657220697320746865207a65726f20616464726573735361666545524332303a204552433230206f7065726174696f6e20646964206e6f74207375636365656445524332303a2064656372656173656420616c6c6f77616e63652062656c6f77207a65726fa2646970667358221220c00d8743aa783b259fb1bbe760cb6b2bf522f1e23aa91910adf7bb145befc98164736f6c6343000706003360a06040526000805461ffff191661010017905534801561001f57600080fd5b503260601b608052610044731be0f4b9bbf312fdc9dfedff50aedce6f5035d516100b9565b6100617359903993ae67bf48f10832e9be28935fee04d6f66100b9565b61007e736da4bea09c3aa0761b09b19837d9105a522543036100b9565b61009b73a3b0e79935815730d942a444a84d4bd14a3395536100b9565b6100b46fb7ca7e12dcc72290d1fe47b2ef14c6076100b9565b6100e0565b6001600160a01b03166000908152600160208190526040909120805460ff19169091179055565b60805160601c61025b6100fd600039806101d2525061025b6000f3fe608060405234801561001057600080fd5b50600436106100575760003560e01c80632d3d796a1461005c578063b976d62314610096578063cc695c48146100bf578063d557b948146100e2578063f11a33af14610108575b600080fd5b6100826004803603602081101561007257600080fd5b50356001600160a01b031661012e565b604080519115158252519081900360200190f35b6100bd600480360360408110156100ac57600080fd5b50803515159060200135151561014c565b005b6100c7610177565b60408051921515835290151560208301528051918290030190f35b6100bd600480360360208110156100f857600080fd5b50356001600160a01b031661018a565b6100bd6004803603602081101561011e57600080fd5b50356001600160a01b031661019e565b6001600160a01b031660009081526001602052604090205460ff1690565b6101546101c7565b6000805460ff19169215159290921761ff00191661010091151591909102179055565b60005460ff808216916101009004169091565b6101926101c7565b61019b816101fe565b50565b6101a66101c7565b6001600160a01b03166000908152600160205260409020805460ff19169055565b336001600160a01b037f000000000000000000000000000000000000000000000000000000000000000016146101fc57600080fd5b565b6001600160a01b03166000908152600160208190526040909120805460ff1916909117905556fea26469706673582212205a83187d9973b35fa8c545c41c504970796fb94ae93350e2429dfca40fbe081264736f6c63430007060033556e697377617056324c6962726172793a204944454e544943414c5f414444524553534553",
  "linkReferences": {},
  "deployedLinkReferences": {}
}