{
  "_format": "hh-sol-artifact-1",
  "contractName": "SD",
  "sourceName": "contracts/SD.sol",
  "abi": [
    {
      "inputs": [],
      "stateMutability": "nonpayable",
      "type": "constructor"
    },
    {
      "inputs": [],
      "name": "depositETH",
      "outputs": [
        {
          "internalType": "bool",
          "name": "",
          "type": "bool"
        }
      ],
      "stateMutability": "payable",
      "type": "function"
    },
    {
      "inputs": [
        {
          "internalType": "uint256",
          "name": "amt",
          "type": "uint256"
        }
      ],
      "name": "depositUSDT",
      "outputs": [
        {
          "internalType": "bool",
          "name": "",
          "type": "bool"
        }
      ],
      "stateMutability": "nonpayable",
      "type": "function"
    },
    {
      "inputs": [],
      "name": "deposit_end_timestamp",
      "outputs": [
        {
          "internalType": "uint256",
          "name": "",
          "type": "uint256"
        }
      ],
      "stateMutability": "view",
      "type": "function"
    },
    {
      "inputs": [],
      "name": "deposit_start_timestamp",
      "outputs": [
        {
          "internalType": "uint256",
          "name": "",
          "type": "uint256"
        }
      ],
      "stateMutability": "view",
      "type": "function"
    },
    {
      "inputs": [
        {
          "internalType": "address",
          "name": "",
          "type": "address"
        }
      ],
      "name": "deposits_eth",
      "outputs": [
        {
          "internalType": "uint256",
          "name": "",
          "type": "uint256"
        }
      ],
      "stateMutability": "view",
      "type": "function"
    },
    {
      "inputs": [
        {
          "internalType": "address",
          "name": "",
          "type": "address"
        }
      ],
      "name": "deposits_usdt",
      "outputs": [
        {
          "internalType": "uint256",
          "name": "",
          "type": "uint256"
        }
      ],
      "stateMutability": "view",
      "type": "function"
    },
    {
      "inputs": [
        {
          "internalType": "address",
          "name": "",
          "type": "address"
        }
      ],
      "name": "effective_staked_tokens",
      "outputs": [
        {
          "internalType": "uint256",
          "name": "",
          "type": "uint256"
        }
      ],
      "stateMutability": "view",
      "type": "function"
    },
    {
      "inputs": [],
      "name": "getStakeHolders",
      "outputs": [
        {
          "internalType": "address[]",
          "name": "",
          "type": "address[]"
        }
      ],
      "stateMutability": "view",
      "type": "function"
    },
    {
      "inputs": [],
      "name": "owner",
      "outputs": [
        {
          "internalType": "address payable",
          "name": "",
          "type": "address"
        }
      ],
      "stateMutability": "view",
      "type": "function"
    },
    {
      "inputs": [],
      "name": "sale_token_address",
      "outputs": [
        {
          "internalType": "address",
          "name": "",
          "type": "address"
        }
      ],
      "stateMutability": "view",
      "type": "function"
    },
    {
      "inputs": [
        {
          "internalType": "uint256",
          "name": "amt",
          "type": "uint256"
        }
      ],
      "name": "stake",
      "outputs": [
        {
          "internalType": "bool",
          "name": "",
          "type": "bool"
        }
      ],
      "stateMutability": "nonpayable",
      "type": "function"
    },
    {
      "inputs": [
        {
          "internalType": "address",
          "name": "",
          "type": "address"
        }
      ],
      "name": "staked_tokens",
      "outputs": [
        {
          "internalType": "uint256",
          "name": "",
          "type": "uint256"
        }
      ],
      "stateMutability": "view",
      "type": "function"
    },
    {
      "inputs": [
        {
          "internalType": "uint256",
          "name": "",
          "type": "uint256"
        }
      ],
      "name": "stakeholders",
      "outputs": [
        {
          "internalType": "address",
          "name": "",
          "type": "address"
        }
      ],
      "stateMutability": "view",
      "type": "function"
    },
    {
      "inputs": [],
      "name": "staking_end_timestamp",
      "outputs": [
        {
          "internalType": "uint256",
          "name": "",
          "type": "uint256"
        }
      ],
      "stateMutability": "view",
      "type": "function"
    },
    {
      "inputs": [],
      "name": "staking_token_address",
      "outputs": [
        {
          "internalType": "address",
          "name": "",
          "type": "address"
        }
      ],
      "stateMutability": "view",
      "type": "function"
    },
    {
      "inputs": [
        {
          "internalType": "uint256",
          "name": "amt",
          "type": "uint256"
        }
      ],
      "name": "unstake",
      "outputs": [
        {
          "internalType": "bool",
          "name": "",
          "type": "bool"
        }
      ],
      "stateMutability": "nonpayable",
      "type": "function"
    },
    {
      "inputs": [],
      "name": "usdt_address",
      "outputs": [
        {
          "internalType": "address",
          "name": "",
          "type": "address"
        }
      ],
      "stateMutability": "view",
      "type": "function"
    },
    {
      "inputs": [],
      "name": "withdrawETH",
      "outputs": [
        {
          "internalType": "bool",
          "name": "",
          "type": "bool"
        }
      ],
      "stateMutability": "nonpayable",
      "type": "function"
    },
    {
      "inputs": [
        {
          "internalType": "address",
          "name": "token_contract_addr",
          "type": "address"
        }
      ],
      "name": "withdrawToken",
      "outputs": [
        {
          "internalType": "bool",
          "name": "",
          "type": "bool"
        }
      ],
      "stateMutability": "nonpayable",
      "type": "function"
    }
  ],
  "bytecode": "0x6080604052600180546001600160a01b031990811673c3e53f4d16ae77db1c982e75a937b9f60fe636901790915560028054821673dac17f958d2ee523a2206206994597c13d831ec71790556003805490911673e6e340d132b5f46d1e472debcd681b2abc16e57e1790556360b0f7af6009556360b0fa07600a556360b0fc5f600b5534801561008e57600080fd5b50600080546001600160a01b03191633179055610da0806100b06000396000f3fe6080604052600436106100e45760003560e01c80631346a8e2146100e9578063135ee0031461012e5780631d6b8b72146101615780631fef3056146101a75780632e17de78146101bc57806348bfef8c146101fa5780635044dcfd1461022d57806389476069146102425780638aeaf80a146102755780638da5cb5b1461028a578063a694fc3a1461029f578063b179ad63146102c9578063b580542d146102de578063e086e5ec146102f3578063e0f3fda614610308578063e7c80f171461031d578063f579b62614610347578063f6326fb31461037a578063f7fecc2714610382575b600080fd5b3480156100f557600080fd5b5061011c6004803603602081101561010c57600080fd5b50356001600160a01b03166103e7565b60408051918252519081900360200190f35b34801561013a57600080fd5b5061011c6004803603602081101561015157600080fd5b50356001600160a01b03166103f9565b34801561016d57600080fd5b5061018b6004803603602081101561018457600080fd5b503561040b565b604080516001600160a01b039092168252519081900360200190f35b3480156101b357600080fd5b5061018b610435565b3480156101c857600080fd5b506101e6600480360360208110156101df57600080fd5b5035610444565b604080519115158252519081900360200190f35b34801561020657600080fd5b5061011c6004803603602081101561021d57600080fd5b50356001600160a01b03166105c7565b34801561023957600080fd5b5061011c6105d9565b34801561024e57600080fd5b506101e66004803603602081101561026557600080fd5b50356001600160a01b03166105df565b34801561028157600080fd5b5061011c610744565b34801561029657600080fd5b5061018b61074a565b3480156102ab57600080fd5b506101e6600480360360208110156102c257600080fd5b5035610759565b3480156102d557600080fd5b5061011c6108fc565b3480156102ea57600080fd5b5061018b610902565b3480156102ff57600080fd5b506101e6610911565b34801561031457600080fd5b5061018b6109b0565b34801561032957600080fd5b506101e66004803603602081101561034057600080fd5b50356109bf565b34801561035357600080fd5b5061011c6004803603602081101561036a57600080fd5b50356001600160a01b0316610b30565b6101e6610b42565b34801561038e57600080fd5b50610397610c28565b60408051602080825283518183015283519192839290830191858101910280838360005b838110156103d35781810151838201526020016103bb565b505050509050019250505060405180910390f35b60066020526000908152604090205481565b60086020526000908152604090205481565b6004818154811061041b57600080fd5b6000918252602090912001546001600160a01b0316905081565b6003546001600160a01b031681565b6000808211610491576040805162461bcd60e51b81526020600482015260146024820152731e995c9bc8185b5d081b9bdd08185b1b1bddd95960621b604482015290519081900360640190fd5b336000908152600760205260409020548211156104f0576040805162461bcd60e51b81526020600482015260186024820152776e6f7420656e6f756768207374616b656420746f6b656e7360401b604482015290519081900360640190fd5b600a544210156105265733600090815260076020908152604080832080548690039055600890915290208054839003905561053d565b336000908152600760205260409020805483900390555b6001546040805163a9059cbb60e01b81523360048201526024810185905290516001600160a01b0390921691829163a9059cbb9160448083019260209291908290030181600087803b15801561059257600080fd5b505af11580156105a6573d6000803e3d6000fd5b505050506040513d60208110156105bc57600080fd5b506001949350505050565b60056020526000908152604090205481565b60095481565b600080546001600160a01b0316331461063c576040805162461bcd60e51b815260206004820152601a60248201527911549493d4884e8813d393164813d5d391548810531313d5d15160321b604482015290519081900360640190fd5b604080516370a0823160e01b8152306004820152905183916000916001600160a01b038416916370a08231916024808301926020929190829003018186803b15801561068757600080fd5b505afa15801561069b573d6000803e3d6000fd5b505050506040513d60208110156106b157600080fd5b5051600080546040805163a9059cbb60e01b81526001600160a01b0392831660048201526024810185905290519394509085169263a9059cbb92604480840193602093929083900390910190829087803b15801561070e57600080fd5b505af1158015610722573d6000803e3d6000fd5b505050506040513d602081101561073857600080fd5b50600195945050505050565b600b5481565b6000546001600160a01b031681565b60008082116107a6576040805162461bcd60e51b81526020600482015260146024820152731e995c9bc8185b5d081b9bdd08185b1b1bddd95960621b604482015290519081900360640190fd5b60095442106107e65760405162461bcd60e51b8152600401808060200182810382526031815260200180610c8b6031913960400191505060405180910390fd5b600154336000908152600760205260409020546001600160a01b039091169061084c57600480546001810182556000919091527f8a35acfbc15ff81a39ae7d344fd709f28e8600b4aa8c65c6b64bfe7fe36bd19b0180546001600160a01b031916331790555b604080516323b872dd60e01b81523360048201523060248201526044810185905290516001600160a01b038316916323b872dd9160648083019260209291908290030181600087803b1580156108a157600080fd5b505af11580156108b5573d6000803e3d6000fd5b505050506040513d60208110156108cb57600080fd5b5050336000908152600760209081526040808320805487019055600890915290208054840190555060019050919050565b600a5481565b6001546001600160a01b031681565b600080546001600160a01b0316331461096e576040805162461bcd60e51b815260206004820152601a60248201527911549493d4884e8813d393164813d5d391548810531313d5d15160321b604482015290519081900360640190fd5b600080546040516001600160a01b03909116914780156108fc02929091818181858888f193505050501580156109a8573d6000803e3d6000fd5b506001905090565b6002546001600160a01b031681565b33600090815260076020526040812054610a0a5760405162461bcd60e51b8152600401808060200182810382526028815260200180610d436028913960400191505060405180910390fd5b6009544211610a4a5760405162461bcd60e51b8152600401808060200182810382526029815260200180610cbc6029913960400191505060405180910390fd5b600b544210610a8a5760405162461bcd60e51b8152600401808060200182810382526033815260200180610d106033913960400191505060405180910390fd5b600354604080516323b872dd60e01b81523360048201523060248201526044810185905290516001600160a01b039092169182916323b872dd9160648083019260209291908290030181600087803b158015610ae557600080fd5b505af1158015610af9573d6000803e3d6000fd5b505050506040513d6020811015610b0f57600080fd5b50503360009081526005602052604090208054840190555060019050919050565b60076020526000908152604090205481565b33600090815260076020526040812054610b8d5760405162461bcd60e51b8152600401808060200182810382526028815260200180610d436028913960400191505060405180910390fd5b600a544211610bcd5760405162461bcd60e51b815260040180806020018281038252602b815260200180610ce5602b913960400191505060405180910390fd5b600b544210610c0d5760405162461bcd60e51b8152600401808060200182810382526033815260200180610d106033913960400191505060405180910390fd5b50336000908152600660205260409020805434019055600190565b60606004805480602002602001604051908101604052809291908181526020018280548015610c8057602002820191906000526020600020905b81546001600160a01b03168152600190910190602001808311610c62575b505050505090509056fe544f4f206c6174652c207374616b696e6720636c6f736564206174207374616b696e675f656e645f74696d657374616d70544f4f206561726c792c207761697420666f72207374616b696e675f656e645f74696d657374616d70544f4f206561726c792c207761697420666f72206465706f7369745f73746172745f74696d657374616d70544f4f206c6174652c206465706f7369747320636c6f736564206174206465706f736974735f656e645f74696d657374616d706f6e6c79207374616b65686f6c646572732061726520616c6c6f77656420746f206465706f736974a2646970667358221220bf3a88fa008a8064c2c1642f99770151d53da8675708037f7f5ee80262fd771c64736f6c63430007060033",
  "linkReferences": {},
  "deployedLinkReferences": {}
}